{
  "_format": "hh-sol-artifact-1",
  "contractName": "BNUGEvent",
  "sourceName": "contracts/BNUGEvent.sol",
  "abi": [
    {
      "inputs": [],
      "stateMutability": "nonpayable",
      "type": "constructor"
    },
    {
      "anonymous": false,
      "inputs": [
        {
          "indexed": true,
          "internalType": "address",
          "name": "account",
          "type": "address"
        },
        {
          "indexed": true,
          "internalType": "address",
          "name": "operator",
          "type": "address"
        },
        {
          "indexed": false,
          "internalType": "bool",
          "name": "approved",
          "type": "bool"
        }
      ],
      "name": "ApprovalForAll",
      "type": "event"
    },
    {
      "anonymous": false,
      "inputs": [
        {
          "indexed": false,
          "internalType": "uint8",
          "name": "version",
          "type": "uint8"
        }
      ],
      "name": "Initialized",
      "type": "event"
    },
    {
      "anonymous": false,
      "inputs": [
        {
          "indexed": true,
          "internalType": "address",
          "name": "previousOwner",
          "type": "address"
        },
        {
          "indexed": true,
          "internalType": "address",
          "name": "newOwner",
          "type": "address"
        }
      ],
      "name": "OwnershipTransferred",
      "type": "event"
    },
    {
      "anonymous": false,
      "inputs": [
        {
          "indexed": false,
          "internalType": "address",
          "name": "account",
          "type": "address"
        }
      ],
      "name": "Paused",
      "type": "event"
    },
    {
      "anonymous": false,
      "inputs": [
        {
          "indexed": true,
          "internalType": "address",
          "name": "operator",
          "type": "address"
        },
        {
          "indexed": true,
          "internalType": "address",
          "name": "from",
          "type": "address"
        },
        {
          "indexed": true,
          "internalType": "address",
          "name": "to",
          "type": "address"
        },
        {
          "indexed": false,
          "internalType": "uint256[]",
          "name": "ids",
          "type": "uint256[]"
        },
        {
          "indexed": false,
          "internalType": "uint256[]",
          "name": "values",
          "type": "uint256[]"
        }
      ],
      "name": "TransferBatch",
      "type": "event"
    },
    {
      "anonymous": false,
      "inputs": [
        {
          "indexed": true,
          "internalType": "address",
          "name": "operator",
          "type": "address"
        },
        {
          "indexed": true,
          "internalType": "address",
          "name": "from",
          "type": "address"
        },
        {
          "indexed": true,
          "internalType": "address",
          "name": "to",
          "type": "address"
        },
        {
          "indexed": false,
          "internalType": "uint256",
          "name": "id",
          "type": "uint256"
        },
        {
          "indexed": false,
          "internalType": "uint256",
          "name": "value",
          "type": "uint256"
        }
      ],
      "name": "TransferSingle",
      "type": "event"
    },
    {
      "anonymous": false,
      "inputs": [
        {
          "indexed": false,
          "internalType": "string",
          "name": "value",
          "type": "string"
        },
        {
          "indexed": true,
          "internalType": "uint256",
          "name": "id",
          "type": "uint256"
        }
      ],
      "name": "URI",
      "type": "event"
    },
    {
      "anonymous": false,
      "inputs": [
        {
          "indexed": false,
          "internalType": "address",
          "name": "account",
          "type": "address"
        }
      ],
      "name": "Unpaused",
      "type": "event"
    },
    {
      "inputs": [],
      "name": "DEVS",
      "outputs": [
        {
          "internalType": "uint256",
          "name": "",
          "type": "uint256"
        }
      ],
      "stateMutability": "view",
      "type": "function"
    },
    {
      "inputs": [],
      "name": "GENERAL",
      "outputs": [
        {
          "internalType": "uint256",
          "name": "",
          "type": "uint256"
        }
      ],
      "stateMutability": "view",
      "type": "function"
    },
    {
      "inputs": [],
      "name": "VIP",
      "outputs": [
        {
          "internalType": "uint256",
          "name": "",
          "type": "uint256"
        }
      ],
      "stateMutability": "view",
      "type": "function"
    },
    {
      "inputs": [
        {
          "internalType": "address",
          "name": "account",
          "type": "address"
        },
        {
          "internalType": "uint256",
          "name": "id",
          "type": "uint256"
        }
      ],
      "name": "balanceOf",
      "outputs": [
        {
          "internalType": "uint256",
          "name": "",
          "type": "uint256"
        }
      ],
      "stateMutability": "view",
      "type": "function"
    },
    {
      "inputs": [
        {
          "internalType": "address[]",
          "name": "accounts",
          "type": "address[]"
        },
        {
          "internalType": "uint256[]",
          "name": "ids",
          "type": "uint256[]"
        }
      ],
      "name": "balanceOfBatch",
      "outputs": [
        {
          "internalType": "uint256[]",
          "name": "",
          "type": "uint256[]"
        }
      ],
      "stateMutability": "view",
      "type": "function"
    },
    {
      "inputs": [],
      "name": "devs_fee",
      "outputs": [
        {
          "internalType": "uint256",
          "name": "",
          "type": "uint256"
        }
      ],
      "stateMutability": "view",
      "type": "function"
    },
    {
      "inputs": [
        {
          "internalType": "address payable",
          "name": "_recipient",
          "type": "address"
        },
        {
          "internalType": "uint256",
          "name": "_amount",
          "type": "uint256"
        }
      ],
      "name": "distributeFee",
      "outputs": [],
      "stateMutability": "nonpayable",
      "type": "function"
    },
    {
      "inputs": [
        {
          "internalType": "uint256",
          "name": "id",
          "type": "uint256"
        }
      ],
      "name": "exists",
      "outputs": [
        {
          "internalType": "bool",
          "name": "",
          "type": "bool"
        }
      ],
      "stateMutability": "view",
      "type": "function"
    },
    {
      "inputs": [],
      "name": "general_fee",
      "outputs": [
        {
          "internalType": "uint256",
          "name": "",
          "type": "uint256"
        }
      ],
      "stateMutability": "view",
      "type": "function"
    },
    {
      "inputs": [
        {
          "internalType": "uint8",
          "name": "id",
          "type": "uint8"
        }
      ],
      "name": "getFee",
      "outputs": [
        {
          "internalType": "uint256",
          "name": "",
          "type": "uint256"
        }
      ],
      "stateMutability": "view",
      "type": "function"
    },
    {
      "inputs": [],
      "name": "getbalance",
      "outputs": [
        {
          "internalType": "uint256",
          "name": "",
          "type": "uint256"
        }
      ],
      "stateMutability": "view",
      "type": "function"
    },
    {
      "inputs": [],
      "name": "initialize",
      "outputs": [],
      "stateMutability": "nonpayable",
      "type": "function"
    },
    {
      "inputs": [
        {
          "internalType": "address",
          "name": "account",
          "type": "address"
        },
        {
          "internalType": "address",
          "name": "operator",
          "type": "address"
        }
      ],
      "name": "isApprovedForAll",
      "outputs": [
        {
          "internalType": "bool",
          "name": "",
          "type": "bool"
        }
      ],
      "stateMutability": "view",
      "type": "function"
    },
    {
      "inputs": [
        {
          "internalType": "uint8",
          "name": "id",
          "type": "uint8"
        },
        {
          "internalType": "uint256",
          "name": "amount",
          "type": "uint256"
        }
      ],
      "name": "mint",
      "outputs": [],
      "stateMutability": "payable",
      "type": "function"
    },
    {
      "inputs": [
        {
          "internalType": "address",
          "name": "to",
          "type": "address"
        },
        {
          "internalType": "uint256[]",
          "name": "ids",
          "type": "uint256[]"
        },
        {
          "internalType": "uint256[]",
          "name": "amounts",
          "type": "uint256[]"
        },
        {
          "internalType": "bytes",
          "name": "data",
          "type": "bytes"
        }
      ],
      "name": "mintBatch",
      "outputs": [],
      "stateMutability": "nonpayable",
      "type": "function"
    },
    {
      "inputs": [],
      "name": "name",
      "outputs": [
        {
          "internalType": "string",
          "name": "",
          "type": "string"
        }
      ],
      "stateMutability": "view",
      "type": "function"
    },
    {
      "inputs": [],
      "name": "owner",
      "outputs": [
        {
          "internalType": "address",
          "name": "",
          "type": "address"
        }
      ],
      "stateMutability": "view",
      "type": "function"
    },
    {
      "inputs": [],
      "name": "pause",
      "outputs": [],
      "stateMutability": "nonpayable",
      "type": "function"
    },
    {
      "inputs": [],
      "name": "paused",
      "outputs": [
        {
          "internalType": "bool",
          "name": "",
          "type": "bool"
        }
      ],
      "stateMutability": "view",
      "type": "function"
    },
    {
      "inputs": [],
      "name": "renounceOwnership",
      "outputs": [],
      "stateMutability": "nonpayable",
      "type": "function"
    },
    {
      "inputs": [
        {
          "internalType": "address",
          "name": "from",
          "type": "address"
        },
        {
          "internalType": "address",
          "name": "to",
          "type": "address"
        },
        {
          "internalType": "uint256[]",
          "name": "ids",
          "type": "uint256[]"
        },
        {
          "internalType": "uint256[]",
          "name": "amounts",
          "type": "uint256[]"
        },
        {
          "internalType": "bytes",
          "name": "data",
          "type": "bytes"
        }
      ],
      "name": "safeBatchTransferFrom",
      "outputs": [],
      "stateMutability": "nonpayable",
      "type": "function"
    },
    {
      "inputs": [
        {
          "internalType": "address",
          "name": "from",
          "type": "address"
        },
        {
          "internalType": "address",
          "name": "to",
          "type": "address"
        },
        {
          "internalType": "uint256",
          "name": "id",
          "type": "uint256"
        },
        {
          "internalType": "uint256",
          "name": "amount",
          "type": "uint256"
        },
        {
          "internalType": "bytes",
          "name": "data",
          "type": "bytes"
        }
      ],
      "name": "safeTransferFrom",
      "outputs": [],
      "stateMutability": "nonpayable",
      "type": "function"
    },
    {
      "inputs": [
        {
          "internalType": "address",
          "name": "operator",
          "type": "address"
        },
        {
          "internalType": "bool",
          "name": "approved",
          "type": "bool"
        }
      ],
      "name": "setApprovalForAll",
      "outputs": [],
      "stateMutability": "nonpayable",
      "type": "function"
    },
    {
      "inputs": [
        {
          "internalType": "uint8",
          "name": "id",
          "type": "uint8"
        },
        {
          "internalType": "uint256",
          "name": "new_fee",
          "type": "uint256"
        }
      ],
      "name": "setMintingFee",
      "outputs": [],
      "stateMutability": "nonpayable",
      "type": "function"
    },
    {
      "inputs": [
        {
          "internalType": "string",
          "name": "newuri",
          "type": "string"
        }
      ],
      "name": "setURI",
      "outputs": [],
      "stateMutability": "nonpayable",
      "type": "function"
    },
    {
      "inputs": [
        {
          "internalType": "bytes4",
          "name": "interfaceId",
          "type": "bytes4"
        }
      ],
      "name": "supportsInterface",
      "outputs": [
        {
          "internalType": "bool",
          "name": "",
          "type": "bool"
        }
      ],
      "stateMutability": "view",
      "type": "function"
    },
    {
      "inputs": [],
      "name": "symbol",
      "outputs": [
        {
          "internalType": "string",
          "name": "",
          "type": "string"
        }
      ],
      "stateMutability": "view",
      "type": "function"
    },
    {
      "inputs": [
        {
          "internalType": "uint256",
          "name": "id",
          "type": "uint256"
        }
      ],
      "name": "totalSupply",
      "outputs": [
        {
          "internalType": "uint256",
          "name": "",
          "type": "uint256"
        }
      ],
      "stateMutability": "view",
      "type": "function"
    },
    {
      "inputs": [
        {
          "internalType": "address",
          "name": "newOwner",
          "type": "address"
        }
      ],
      "name": "transferOwnership",
      "outputs": [],
      "stateMutability": "nonpayable",
      "type": "function"
    },
    {
      "inputs": [],
      "name": "unpause",
      "outputs": [],
      "stateMutability": "nonpayable",
      "type": "function"
    },
    {
      "inputs": [
        {
          "internalType": "uint256",
          "name": "",
          "type": "uint256"
        }
      ],
      "name": "uri",
      "outputs": [
        {
          "internalType": "string",
          "name": "",
          "type": "string"
        }
      ],
      "stateMutability": "view",
      "type": "function"
    },
    {
      "inputs": [],
      "name": "vip_fee",
      "outputs": [
        {
          "internalType": "uint256",
          "name": "",
          "type": "uint256"
        }
      ],
      "stateMutability": "view",
      "type": "function"
    }
  ],
  "bytecode": "0x60806040523480156200001157600080fd5b506200001c62000022565b620000e4565b600054610100900460ff16156200008f5760405162461bcd60e51b815260206004820152602760248201527f496e697469616c697a61626c653a20636f6e747261637420697320696e697469604482015266616c697a696e6760c81b606482015260840160405180910390fd5b60005460ff9081161015620000e2576000805460ff191660ff9081179091556040519081527f7f26b83ff96e1f2b6a682f133852f6798a09c465da95921460cefb38474024989060200160405180910390a15b565b61273880620000f46000396000f3fe6080604052600436106101e25760003560e01c80635c975abb1161010257806395d89b4111610095578063e985e9c511610064578063e985e9c514610539578063f242432a14610582578063f26748e2146105a2578063f2fde38b146105b557600080fd5b806395d89b41146104c0578063a22cb465146104d5578063bd85b039146104f5578063d898a2f31461052257600080fd5b80638129fc1c116100d15780638129fc1c146104595780638456cb591461046e57806389c5e469146104835780638da5cb5b1461049857600080fd5b80635c975abb146103f557806360dc69051461040d578063715018a6146104245780637524c4ad1461043957600080fd5b806320d5c3fd1161017a578063448e520f11610149578063448e520f146103645780634d9b3d5d146103845780634e1273f4146103995780634f558e79146103c657600080fd5b806320d5c3fd14610303578063274c93fc1461031a5780632eb2c2d61461032f5780633f4ba83a1461034f57600080fd5b8063083132c4116101b6578063083132c41461028e5780630b8b41b8146102ae5780630e89341c146102c35780631f7fdffa146102e357600080fd5b8062fdd58e146101e757806301ffc9a71461021a57806302fe53051461024a57806306fdde031461026c575b600080fd5b3480156101f357600080fd5b50610207610202366004611c56565b6105d5565b6040519081526020015b60405180910390f35b34801561022657600080fd5b5061023a610235366004611c98565b61066d565b6040519015158152602001610211565b34801561025657600080fd5b5061026a610265366004611d5d565b6106bf565b005b34801561027857600080fd5b506102816106d3565b6040516102119190611dfb565b34801561029a57600080fd5b506102076102a9366004611e1f565b610762565b3480156102ba57600080fd5b50610207600281565b3480156102cf57600080fd5b506102816102de366004611e3a565b6107d9565b3480156102ef57600080fd5b5061026a6102fe366004611f08565b61086d565b34801561030f57600080fd5b5061020761012d5481565b34801561032657600080fd5b50610207600081565b34801561033b57600080fd5b5061026a61034a366004611fa3565b610887565b34801561035b57600080fd5b5061026a6108d3565b34801561037057600080fd5b5061026a61037f366004611c56565b6108e5565b34801561039057600080fd5b5061020761096f565b3480156103a557600080fd5b506103b96103b4366004612051565b61097f565b6040516102119190612159565b3480156103d257600080fd5b5061023a6103e1366004611e3a565b600090815260fb6020526040902054151590565b34801561040157600080fd5b5060c95460ff1661023a565b34801561041957600080fd5b5061020761012e5481565b34801561043057600080fd5b5061026a610aa9565b34801561044557600080fd5b5061026a61045436600461216c565b610abb565b34801561046557600080fd5b5061026a610b31565b34801561047a57600080fd5b5061026a610d01565b34801561048f57600080fd5b50610207600181565b3480156104a457600080fd5b506097546040516001600160a01b039091168152602001610211565b3480156104cc57600080fd5b50610281610d11565b3480156104e157600080fd5b5061026a6104f0366004612188565b610d1f565b34801561050157600080fd5b50610207610510366004611e3a565b600090815260fb602052604090205490565b34801561052e57600080fd5b5061020761012f5481565b34801561054557600080fd5b5061023a6105543660046121c6565b6001600160a01b03918216600090815260666020908152604080832093909416825291909152205460ff1690565b34801561058e57600080fd5b5061026a61059d3660046121f4565b610d2a565b61026a6105b036600461216c565b610d6f565b3480156105c157600080fd5b5061026a6105d036600461225d565b610df7565b60006001600160a01b0383166106455760405162461bcd60e51b815260206004820152602a60248201527f455243313135353a2061646472657373207a65726f206973206e6f742061207660448201526930b634b21037bbb732b960b11b60648201526084015b60405180910390fd5b5060009081526065602090815260408083206001600160a01b03949094168352929052205490565b60006001600160e01b03198216636cdb3d1360e11b148061069e57506001600160e01b031982166303a24d0760e21b145b806106b957506301ffc9a760e01b6001600160e01b03198316145b92915050565b6106c7610e6d565b6106d081610ec7565b50565b61013080546106e19061227a565b80601f016020809104026020016040519081016040528092919081815260200182805461070d9061227a565b801561075a5780601f1061072f5761010080835404028352916020019161075a565b820191906000526020600020905b81548152906001019060200180831161073d57829003601f168201915b505050505081565b600060028260ff1611156107a55760405162461bcd60e51b815260206004820152600a602482015269125b9d985b1a59081a5960b21b604482015260640161063c565b60ff82166107b657505061012d5490565b8160ff16600114156107cb57505061012e5490565b505061012f5490565b919050565b6060606780546107e89061227a565b80601f01602080910402602001604051908101604052809291908181526020018280546108149061227a565b80156108615780601f1061083657610100808354040283529160200191610861565b820191906000526020600020905b81548152906001019060200180831161084457829003601f168201915b50505050509050919050565b610875610e6d565b61088184848484610eda565b50505050565b6001600160a01b0385163314806108a357506108a38533610554565b6108bf5760405162461bcd60e51b815260040161063c906122b5565b6108cc8585858585611035565b5050505050565b6108db610e6d565b6108e36111e2565b565b6108ed610e6d565b804710156109345760405162461bcd60e51b8152602060048201526014602482015273496e73756666696369656e742062616c616e636560601b604482015260640161063c565b6040516001600160a01b0383169082156108fc029083906000818181858888f1935050505015801561096a573d6000803e3d6000fd5b505050565b6000610979610e6d565b50475b90565b606081518351146109e45760405162461bcd60e51b815260206004820152602960248201527f455243313135353a206163636f756e747320616e6420696473206c656e677468604482015268040dad2e6dac2e8c6d60bb1b606482015260840161063c565b6000835167ffffffffffffffff811115610a0057610a00611cbc565b604051908082528060200260200182016040528015610a29578160200160208202803683370190505b50905060005b8451811015610aa157610a74858281518110610a4d57610a4d612303565b6020026020010151858381518110610a6757610a67612303565b60200260200101516105d5565b828281518110610a8657610a86612303565b6020908102919091010152610a9a8161232f565b9050610a2f565b509392505050565b610ab1610e6d565b6108e36000611234565b610ac3610e6d565b60028260ff161115610b045760405162461bcd60e51b815260206004820152600a602482015269125b9d985b1a59081a5960b21b604482015260640161063c565b60ff8216610b135761012d5550565b8160ff1660011415610b265761012e5550565b61012f8190555b5050565b600054610100900460ff1615808015610b515750600054600160ff909116105b80610b6b5750303b158015610b6b575060005460ff166001145b610bce5760405162461bcd60e51b815260206004820152602e60248201527f496e697469616c697a61626c653a20636f6e747261637420697320616c72656160448201526d191e481a5b9a5d1a585b1a5e995960921b606482015260840161063c565b6000805460ff191660011790558015610bf1576000805461ff0019166101001790555b610c126040518060800160405280604381526020016126c060439139611286565b610c1a6112b6565b610c226112e5565b610c2a611314565b671bc16d674ec8000061012d556802b5e3af16b188000061012e556801a055690d9db8000061012f5560408051808201909152600d8082526c10939551d11053c81155915395609a1b6020909201918252610c889161013091611ba8565b5060408051808201909152600780825266424e554744414f60c81b6020909201918252610cb89161013191611ba8565b5080156106d0576000805461ff0019169055604051600181527f7f26b83ff96e1f2b6a682f133852f6798a09c465da95921460cefb38474024989060200160405180910390a150565b610d09610e6d565b6108e361133b565b61013180546106e19061227a565b610b2d338383611378565b6001600160a01b038516331480610d465750610d468533610554565b610d625760405162461bcd60e51b815260040161063c906122b5565b6108cc8585858585611459565b60ff8216610dd95780610d8183610762565b610d8b919061234a565b3414610dd95760405162461bcd60e51b815260206004820152601b60248201527f4572726f723a204d696e74696e67206665652072657175697265640000000000604482015260640161063c565b610b2d338360ff168360405180602001604052806000815250611595565b610dff610e6d565b6001600160a01b038116610e645760405162461bcd60e51b815260206004820152602660248201527f4f776e61626c653a206e6577206f776e657220697320746865207a65726f206160448201526564647265737360d01b606482015260840161063c565b6106d081611234565b6097546001600160a01b031633146108e35760405162461bcd60e51b815260206004820181905260248201527f4f776e61626c653a2063616c6c6572206973206e6f7420746865206f776e6572604482015260640161063c565b8051610b2d906067906020840190611ba8565b6001600160a01b038416610f005760405162461bcd60e51b815260040161063c90612369565b8151835114610f215760405162461bcd60e51b815260040161063c906123aa565b33610f3181600087878787611680565b60005b8451811015610fcd57838181518110610f4f57610f4f612303565b602002602001015160656000878481518110610f6d57610f6d612303565b602002602001015181526020019081526020016000206000886001600160a01b03166001600160a01b031681526020019081526020016000206000828254610fb591906123f2565b90915550819050610fc58161232f565b915050610f34565b50846001600160a01b031660006001600160a01b0316826001600160a01b03167f4a39dc06d4c0dbc64b70af90fd698a233a518aa5d07e595d983b8c0526c8f7fb878760405161101e92919061240a565b60405180910390a46108cc81600087878787611696565b81518351146110565760405162461bcd60e51b815260040161063c906123aa565b6001600160a01b03841661107c5760405162461bcd60e51b815260040161063c90612438565b3361108b818787878787611680565b60005b84518110156111745760008582815181106110ab576110ab612303565b6020026020010151905060008583815181106110c9576110c9612303565b60209081029190910181015160008481526065835260408082206001600160a01b038e16835290935291909120549091508181101561111a5760405162461bcd60e51b815260040161063c9061247d565b60008381526065602090815260408083206001600160a01b038e8116855292528083208585039055908b168252812080548492906111599084906123f2565b925050819055505050508061116d9061232f565b905061108e565b50846001600160a01b0316866001600160a01b0316826001600160a01b03167f4a39dc06d4c0dbc64b70af90fd698a233a518aa5d07e595d983b8c0526c8f7fb87876040516111c492919061240a565b60405180910390a46111da818787878787611696565b505050505050565b6111ea611801565b60c9805460ff191690557f5db9ee0a495bf2e6ff9c91a7834c1ba4fdd244a5e8aa4e537bd38aeae4b073aa335b6040516001600160a01b03909116815260200160405180910390a1565b609780546001600160a01b038381166001600160a01b0319831681179093556040519116919082907f8be0079c531659141344cd1fd0a4f28419497f9722a3daafe3b4186f6b6457e090600090a35050565b600054610100900460ff166112ad5760405162461bcd60e51b815260040161063c906124c7565b6106d08161184a565b600054610100900460ff166112dd5760405162461bcd60e51b815260040161063c906124c7565b6108e3611871565b600054610100900460ff1661130c5760405162461bcd60e51b815260040161063c906124c7565b6108e36118a1565b600054610100900460ff166108e35760405162461bcd60e51b815260040161063c906124c7565b6113436118d4565b60c9805460ff191660011790557f62e78cea01bee320cd4e420270b5ea74000d11b0c9f74754ebdbfc544b05a2586112173390565b816001600160a01b0316836001600160a01b031614156113ec5760405162461bcd60e51b815260206004820152602960248201527f455243313135353a2073657474696e6720617070726f76616c20737461747573604482015268103337b91039b2b63360b91b606482015260840161063c565b6001600160a01b03838116600081815260666020908152604080832094871680845294825291829020805460ff191686151590811790915591519182527f17307eab39ab6107e8899845ad3d59bd9653f200f220920489ca2b5937696c31910160405180910390a3505050565b6001600160a01b03841661147f5760405162461bcd60e51b815260040161063c90612438565b33600061148b8561191a565b905060006114988561191a565b90506114a8838989858589611680565b60008681526065602090815260408083206001600160a01b038c168452909152902054858110156114eb5760405162461bcd60e51b815260040161063c9061247d565b60008781526065602090815260408083206001600160a01b038d8116855292528083208985039055908a1682528120805488929061152a9084906123f2565b909155505060408051888152602081018890526001600160a01b03808b16928c821692918816917fc3d58168c5ae7397731d063d5bbf3d657854427343f4c083240f7aacaa2d0f62910160405180910390a461158a848a8a8a8a8a611965565b505050505050505050565b6001600160a01b0384166115bb5760405162461bcd60e51b815260040161063c90612369565b3360006115c78561191a565b905060006115d48561191a565b90506115e583600089858589611680565b60008681526065602090815260408083206001600160a01b038b168452909152812080548792906116179084906123f2565b909155505060408051878152602081018790526001600160a01b03808a1692600092918716917fc3d58168c5ae7397731d063d5bbf3d657854427343f4c083240f7aacaa2d0f62910160405180910390a461167783600089898989611965565b50505050505050565b6116886118d4565b6111da868686868686611a2f565b6001600160a01b0384163b156111da5760405163bc197c8160e01b81526001600160a01b0385169063bc197c81906116da9089908990889088908890600401612512565b602060405180830381600087803b1580156116f457600080fd5b505af1925050508015611724575060408051601f3d908101601f1916820190925261172191810190612570565b60015b6117d15761173061258d565b806308c379a0141561176a57506117456125a8565b80611750575061176c565b8060405162461bcd60e51b815260040161063c9190611dfb565b505b60405162461bcd60e51b815260206004820152603460248201527f455243313135353a207472616e7366657220746f206e6f6e2d455243313135356044820152732932b1b2b4bb32b91034b6b83632b6b2b73a32b960611b606482015260840161063c565b6001600160e01b0319811663bc197c8160e01b146116775760405162461bcd60e51b815260040161063c90612632565b60c95460ff166108e35760405162461bcd60e51b815260206004820152601460248201527314185d5cd8589b194e881b9bdd081c185d5cd95960621b604482015260640161063c565b600054610100900460ff166106c75760405162461bcd60e51b815260040161063c906124c7565b600054610100900460ff166118985760405162461bcd60e51b815260040161063c906124c7565b6108e333611234565b600054610100900460ff166118c85760405162461bcd60e51b815260040161063c906124c7565b60c9805460ff19169055565b60c95460ff16156108e35760405162461bcd60e51b815260206004820152601060248201526f14185d5cd8589b194e881c185d5cd95960821b604482015260640161063c565b6040805160018082528183019092526060916000919060208083019080368337019050509050828160008151811061195457611954612303565b602090810291909101015292915050565b6001600160a01b0384163b156111da5760405163f23a6e6160e01b81526001600160a01b0385169063f23a6e61906119a9908990899088908890889060040161267a565b602060405180830381600087803b1580156119c357600080fd5b505af19250505080156119f3575060408051601f3d908101601f191682019092526119f091810190612570565b60015b6119ff5761173061258d565b6001600160e01b0319811663f23a6e6160e01b146116775760405162461bcd60e51b815260040161063c90612632565b6001600160a01b038516611ab65760005b8351811015611ab457828181518110611a5b57611a5b612303565b602002602001015160fb6000868481518110611a7957611a79612303565b602002602001015181526020019081526020016000206000828254611a9e91906123f2565b90915550611aad90508161232f565b9050611a40565b505b6001600160a01b0384166111da5760005b8351811015611677576000848281518110611ae457611ae4612303565b602002602001015190506000848381518110611b0257611b02612303565b60200260200101519050600060fb600084815260200190815260200160002054905081811015611b855760405162461bcd60e51b815260206004820152602860248201527f455243313135353a206275726e20616d6f756e74206578636565647320746f74604482015267616c537570706c7960c01b606482015260840161063c565b600092835260fb602052604090922091039055611ba18161232f565b9050611ac7565b828054611bb49061227a565b90600052602060002090601f016020900481019282611bd65760008555611c1c565b82601f10611bef57805160ff1916838001178555611c1c565b82800160010185558215611c1c579182015b82811115611c1c578251825591602001919060010190611c01565b50611c28929150611c2c565b5090565b5b80821115611c285760008155600101611c2d565b6001600160a01b03811681146106d057600080fd5b60008060408385031215611c6957600080fd5b8235611c7481611c41565b946020939093013593505050565b6001600160e01b0319811681146106d057600080fd5b600060208284031215611caa57600080fd5b8135611cb581611c82565b9392505050565b634e487b7160e01b600052604160045260246000fd5b601f8201601f1916810167ffffffffffffffff81118282101715611cf857611cf8611cbc565b6040525050565b600067ffffffffffffffff831115611d1957611d19611cbc565b604051611d30601f8501601f191660200182611cd2565b809150838152848484011115611d4557600080fd5b83836020830137600060208583010152509392505050565b600060208284031215611d6f57600080fd5b813567ffffffffffffffff811115611d8657600080fd5b8201601f81018413611d9757600080fd5b611da684823560208401611cff565b949350505050565b6000815180845260005b81811015611dd457602081850181015186830182015201611db8565b81811115611de6576000602083870101525b50601f01601f19169290920160200192915050565b602081526000611cb56020830184611dae565b803560ff811681146107d457600080fd5b600060208284031215611e3157600080fd5b611cb582611e0e565b600060208284031215611e4c57600080fd5b5035919050565b600067ffffffffffffffff821115611e6d57611e6d611cbc565b5060051b60200190565b600082601f830112611e8857600080fd5b81356020611e9582611e53565b604051611ea28282611cd2565b83815260059390931b8501820192828101915086841115611ec257600080fd5b8286015b84811015611edd5780358352918301918301611ec6565b509695505050505050565b600082601f830112611ef957600080fd5b611cb583833560208501611cff565b60008060008060808587031215611f1e57600080fd5b8435611f2981611c41565b9350602085013567ffffffffffffffff80821115611f4657600080fd5b611f5288838901611e77565b94506040870135915080821115611f6857600080fd5b611f7488838901611e77565b93506060870135915080821115611f8a57600080fd5b50611f9787828801611ee8565b91505092959194509250565b600080600080600060a08688031215611fbb57600080fd5b8535611fc681611c41565b94506020860135611fd681611c41565b9350604086013567ffffffffffffffff80821115611ff357600080fd5b611fff89838a01611e77565b9450606088013591508082111561201557600080fd5b61202189838a01611e77565b9350608088013591508082111561203757600080fd5b5061204488828901611ee8565b9150509295509295909350565b6000806040838503121561206457600080fd5b823567ffffffffffffffff8082111561207c57600080fd5b818501915085601f83011261209057600080fd5b8135602061209d82611e53565b6040516120aa8282611cd2565b83815260059390931b85018201928281019150898411156120ca57600080fd5b948201945b838610156120f15785356120e281611c41565b825294820194908201906120cf565b9650508601359250508082111561210757600080fd5b5061211485828601611e77565b9150509250929050565b600081518084526020808501945080840160005b8381101561214e57815187529582019590820190600101612132565b509495945050505050565b602081526000611cb5602083018461211e565b6000806040838503121561217f57600080fd5b611c7483611e0e565b6000806040838503121561219b57600080fd5b82356121a681611c41565b9150602083013580151581146121bb57600080fd5b809150509250929050565b600080604083850312156121d957600080fd5b82356121e481611c41565b915060208301356121bb81611c41565b600080600080600060a0868803121561220c57600080fd5b853561221781611c41565b9450602086013561222781611c41565b93506040860135925060608601359150608086013567ffffffffffffffff81111561225157600080fd5b61204488828901611ee8565b60006020828403121561226f57600080fd5b8135611cb581611c41565b600181811c9082168061228e57607f821691505b602082108114156122af57634e487b7160e01b600052602260045260246000fd5b50919050565b6020808252602e908201527f455243313135353a2063616c6c6572206973206e6f7420746f6b656e206f776e60408201526d195c881bdc88185c1c1c9bdd995960921b606082015260800190565b634e487b7160e01b600052603260045260246000fd5b634e487b7160e01b600052601160045260246000fd5b600060001982141561234357612343612319565b5060010190565b600081600019048311821515161561236457612364612319565b500290565b60208082526021908201527f455243313135353a206d696e7420746f20746865207a65726f206164647265736040820152607360f81b606082015260800190565b60208082526028908201527f455243313135353a2069647320616e6420616d6f756e7473206c656e677468206040820152670dad2e6dac2e8c6d60c31b606082015260800190565b6000821982111561240557612405612319565b500190565b60408152600061241d604083018561211e565b828103602084015261242f818561211e565b95945050505050565b60208082526025908201527f455243313135353a207472616e7366657220746f20746865207a65726f206164604082015264647265737360d81b606082015260800190565b6020808252602a908201527f455243313135353a20696e73756666696369656e742062616c616e636520666f60408201526939103a3930b739b332b960b11b606082015260800190565b6020808252602b908201527f496e697469616c697a61626c653a20636f6e7472616374206973206e6f74206960408201526a6e697469616c697a696e6760a81b606082015260800190565b6001600160a01b0386811682528516602082015260a06040820181905260009061253e9083018661211e565b8281036060840152612550818661211e565b905082810360808401526125648185611dae565b98975050505050505050565b60006020828403121561258257600080fd5b8151611cb581611c82565b600060033d111561097c5760046000803e5060005160e01c90565b600060443d10156125b65790565b6040516003193d81016004833e81513d67ffffffffffffffff81602484011181841117156125e657505050505090565b82850191508151818111156125fe5750505050505090565b843d87010160208285010111156126185750505050505090565b61262760208286010187611cd2565b509095945050505050565b60208082526028908201527f455243313135353a204552433131353552656365697665722072656a656374656040820152676420746f6b656e7360c01b606082015260800190565b6001600160a01b03868116825285166020820152604081018490526060810183905260a0608082018190526000906126b490830184611dae565b97965050505050505056fe68747470733a2f2f697066732e696f2f697066732f516d506843643932555232456a6556656f48786b4a526e6639673355426b7950656f55326b665839523141706e53a2646970667358221220fbbd55ac77c96a7af2cbba67e73ca7f2b6e7f23214c1275230fe3307b5d9748b64736f6c63430008090033",
  "linkReferences": {},
  "deployedLinkReferences": {}
}