{
  "_format": "hh-sol-artifact-1",
  "contractName": "BNUGToken",
  "sourceName": "contracts/BNUGToken.sol",
  "abi": [
    {
      "anonymous": false,
      "inputs": [
        {
          "indexed": true,
          "internalType": "address",
          "name": "owner",
          "type": "address"
        },
        {
          "indexed": true,
          "internalType": "address",
          "name": "spender",
          "type": "address"
        },
        {
          "indexed": false,
          "internalType": "uint256",
          "name": "value",
          "type": "uint256"
        }
      ],
      "name": "Approval",
      "type": "event"
    },
    {
      "anonymous": false,
      "inputs": [
        {
          "indexed": false,
          "internalType": "uint8",
          "name": "version",
          "type": "uint8"
        }
      ],
      "name": "Initialized",
      "type": "event"
    },
    {
      "anonymous": false,
      "inputs": [
        {
          "indexed": true,
          "internalType": "address",
          "name": "previousOwner",
          "type": "address"
        },
        {
          "indexed": true,
          "internalType": "address",
          "name": "newOwner",
          "type": "address"
        }
      ],
      "name": "OwnershipTransferred",
      "type": "event"
    },
    {
      "anonymous": false,
      "inputs": [
        {
          "indexed": true,
          "internalType": "address",
          "name": "from",
          "type": "address"
        },
        {
          "indexed": true,
          "internalType": "address",
          "name": "to",
          "type": "address"
        },
        {
          "indexed": false,
          "internalType": "uint256",
          "name": "value",
          "type": "uint256"
        }
      ],
      "name": "Transfer",
      "type": "event"
    },
    {
      "inputs": [
        {
          "internalType": "address",
          "name": "",
          "type": "address"
        }
      ],
      "name": "_isAdmin",
      "outputs": [
        {
          "internalType": "bool",
          "name": "",
          "type": "bool"
        }
      ],
      "stateMutability": "view",
      "type": "function"
    },
    {
      "inputs": [
        {
          "internalType": "address",
          "name": "owner",
          "type": "address"
        },
        {
          "internalType": "address",
          "name": "spender",
          "type": "address"
        }
      ],
      "name": "allowance",
      "outputs": [
        {
          "internalType": "uint256",
          "name": "",
          "type": "uint256"
        }
      ],
      "stateMutability": "view",
      "type": "function"
    },
    {
      "inputs": [
        {
          "internalType": "address",
          "name": "spender",
          "type": "address"
        },
        {
          "internalType": "uint256",
          "name": "amount",
          "type": "uint256"
        }
      ],
      "name": "approve",
      "outputs": [
        {
          "internalType": "bool",
          "name": "",
          "type": "bool"
        }
      ],
      "stateMutability": "nonpayable",
      "type": "function"
    },
    {
      "inputs": [
        {
          "internalType": "address",
          "name": "account",
          "type": "address"
        }
      ],
      "name": "balanceOf",
      "outputs": [
        {
          "internalType": "uint256",
          "name": "",
          "type": "uint256"
        }
      ],
      "stateMutability": "view",
      "type": "function"
    },
    {
      "inputs": [
        {
          "internalType": "address",
          "name": "account",
          "type": "address"
        },
        {
          "internalType": "uint256",
          "name": "amount",
          "type": "uint256"
        }
      ],
      "name": "burnToken",
      "outputs": [],
      "stateMutability": "nonpayable",
      "type": "function"
    },
    {
      "inputs": [],
      "name": "decimals",
      "outputs": [
        {
          "internalType": "uint8",
          "name": "",
          "type": "uint8"
        }
      ],
      "stateMutability": "view",
      "type": "function"
    },
    {
      "inputs": [
        {
          "internalType": "address",
          "name": "spender",
          "type": "address"
        },
        {
          "internalType": "uint256",
          "name": "subtractedValue",
          "type": "uint256"
        }
      ],
      "name": "decreaseAllowance",
      "outputs": [
        {
          "internalType": "bool",
          "name": "",
          "type": "bool"
        }
      ],
      "stateMutability": "nonpayable",
      "type": "function"
    },
    {
      "inputs": [
        {
          "internalType": "uint256",
          "name": "index",
          "type": "uint256"
        }
      ],
      "name": "getAdmin",
      "outputs": [
        {
          "internalType": "address",
          "name": "",
          "type": "address"
        }
      ],
      "stateMutability": "view",
      "type": "function"
    },
    {
      "inputs": [],
      "name": "getAdmins",
      "outputs": [
        {
          "internalType": "address[]",
          "name": "",
          "type": "address[]"
        }
      ],
      "stateMutability": "view",
      "type": "function"
    },
    {
      "inputs": [
        {
          "internalType": "address",
          "name": "spender",
          "type": "address"
        },
        {
          "internalType": "uint256",
          "name": "addedValue",
          "type": "uint256"
        }
      ],
      "name": "increaseAllowance",
      "outputs": [
        {
          "internalType": "bool",
          "name": "",
          "type": "bool"
        }
      ],
      "stateMutability": "nonpayable",
      "type": "function"
    },
    {
      "inputs": [
        {
          "internalType": "uint256",
          "name": "initialSupply",
          "type": "uint256"
        }
      ],
      "name": "initialize",
      "outputs": [],
      "stateMutability": "nonpayable",
      "type": "function"
    },
    {
      "inputs": [
        {
          "internalType": "address",
          "name": "user",
          "type": "address"
        }
      ],
      "name": "isAdmin",
      "outputs": [
        {
          "internalType": "bool",
          "name": "",
          "type": "bool"
        }
      ],
      "stateMutability": "view",
      "type": "function"
    },
    {
      "inputs": [],
      "name": "maxSupply",
      "outputs": [
        {
          "internalType": "uint256",
          "name": "",
          "type": "uint256"
        }
      ],
      "stateMutability": "view",
      "type": "function"
    },
    {
      "inputs": [
        {
          "internalType": "address",
          "name": "account",
          "type": "address"
        },
        {
          "internalType": "uint256",
          "name": "amount",
          "type": "uint256"
        }
      ],
      "name": "mintCommunityToken",
      "outputs": [],
      "stateMutability": "nonpayable",
      "type": "function"
    },
    {
      "inputs": [],
      "name": "name",
      "outputs": [
        {
          "internalType": "string",
          "name": "",
          "type": "string"
        }
      ],
      "stateMutability": "view",
      "type": "function"
    },
    {
      "inputs": [],
      "name": "owner",
      "outputs": [
        {
          "internalType": "address",
          "name": "",
          "type": "address"
        }
      ],
      "stateMutability": "view",
      "type": "function"
    },
    {
      "inputs": [
        {
          "internalType": "address",
          "name": "admin",
          "type": "address"
        }
      ],
      "name": "removeAdmin",
      "outputs": [],
      "stateMutability": "nonpayable",
      "type": "function"
    },
    {
      "inputs": [],
      "name": "renounceAdminship",
      "outputs": [],
      "stateMutability": "nonpayable",
      "type": "function"
    },
    {
      "inputs": [],
      "name": "renounceOwnership",
      "outputs": [],
      "stateMutability": "nonpayable",
      "type": "function"
    },
    {
      "inputs": [
        {
          "internalType": "address",
          "name": "new_admin",
          "type": "address"
        }
      ],
      "name": "setAdmin",
      "outputs": [],
      "stateMutability": "nonpayable",
      "type": "function"
    },
    {
      "inputs": [],
      "name": "symbol",
      "outputs": [
        {
          "internalType": "string",
          "name": "",
          "type": "string"
        }
      ],
      "stateMutability": "view",
      "type": "function"
    },
    {
      "inputs": [],
      "name": "totalSupply",
      "outputs": [
        {
          "internalType": "uint256",
          "name": "",
          "type": "uint256"
        }
      ],
      "stateMutability": "view",
      "type": "function"
    },
    {
      "inputs": [
        {
          "internalType": "address",
          "name": "to",
          "type": "address"
        },
        {
          "internalType": "uint256",
          "name": "amount",
          "type": "uint256"
        }
      ],
      "name": "transfer",
      "outputs": [
        {
          "internalType": "bool",
          "name": "",
          "type": "bool"
        }
      ],
      "stateMutability": "nonpayable",
      "type": "function"
    },
    {
      "inputs": [
        {
          "internalType": "address",
          "name": "from",
          "type": "address"
        },
        {
          "internalType": "address",
          "name": "to",
          "type": "address"
        },
        {
          "internalType": "uint256",
          "name": "amount",
          "type": "uint256"
        }
      ],
      "name": "transferFrom",
      "outputs": [
        {
          "internalType": "bool",
          "name": "",
          "type": "bool"
        }
      ],
      "stateMutability": "nonpayable",
      "type": "function"
    },
    {
      "inputs": [
        {
          "internalType": "address",
          "name": "newOwner",
          "type": "address"
        }
      ],
      "name": "transferOwnership",
      "outputs": [],
      "stateMutability": "nonpayable",
      "type": "function"
    }
  ],
  "bytecode": "0x608060405234801561001057600080fd5b50612b98806100206000396000f3fe608060405234801561001057600080fd5b50600436106101735760003560e01c8063715018a6116100de578063cc0df78611610097578063dd62ed3e11610071578063dd62ed3e1461044e578063e9e43f1f1461047e578063f2fde38b146104ae578063fe4b84df146104ca57610173565b8063cc0df786146103f8578063d1df306c14610414578063d5abeb011461043057610173565b8063715018a6146103485780638da5cb5b1461035257806395d89b41146103705780639bed25d81461038e578063a457c2d714610398578063a9059cbb146103c857610173565b806324d7806c1161013057806324d7806c14610260578063313ce5671461029057806331ae450b146102ae57806339509351146102cc578063704b6c02146102fc57806370a082311461031857610173565b806306fdde0314610178578063095ea7b314610196578063111fd88b146101c65780631785f53c146101f657806318160ddd1461021257806323b872dd14610230575b600080fd5b6101806104e6565b60405161018d9190612255565b60405180910390f35b6101b060048036038101906101ab9190611e44565b610578565b6040516101bd919061221f565b60405180910390f35b6101e060048036038101906101db9190611e80565b61059b565b6040516101ed91906121e2565b60405180910390f35b610210600480360381019061020b9190611d90565b6106ac565b005b61021a61070f565b6040516102279190612477565b60405180910390f35b61024a60048036038101906102459190611df5565b610719565b604051610257919061221f565b60405180910390f35b61027a60048036038101906102759190611d90565b610748565b604051610287919061221f565b60405180910390f35b61029861079e565b6040516102a59190612492565b60405180910390f35b6102b66107a7565b6040516102c391906121fd565b60405180910390f35b6102e660048036038101906102e19190611e44565b6108c1565b6040516102f3919061221f565b60405180910390f35b61031660048036038101906103119190611d90565b6108f8565b005b610332600480360381019061032d9190611d90565b610a8b565b60405161033f9190612477565b60405180910390f35b610350610ad4565b005b61035a610ae8565b60405161036791906121e2565b60405180910390f35b610378610b12565b6040516103859190612255565b60405180910390f35b610396610ba4565b005b6103b260048036038101906103ad9190611e44565b610c8a565b6040516103bf919061221f565b60405180910390f35b6103e260048036038101906103dd9190611e44565b610d01565b6040516103ef919061221f565b60405180910390f35b610412600480360381019061040d9190611e44565b610d24565b005b61042e60048036038101906104299190611e44565b610e15565b005b610438610eaf565b6040516104459190612477565b60405180910390f35b61046860048036038101906104639190611db9565b610eb9565b6040516104759190612477565b60405180910390f35b61049860048036038101906104939190611d90565b610f40565b6040516104a5919061221f565b60405180910390f35b6104c860048036038101906104c39190611d90565b610f60565b005b6104e460048036038101906104df9190611e80565b610fe4565b005b6060603680546104f5906125f2565b80601f0160208091040260200160405190810160405280929190818152602001828054610521906125f2565b801561056e5780601f106105435761010080835404028352916020019161056e565b820191906000526020600020905b81548152906001019060200180831161055157829003601f168201915b5050505050905090565b60008061058361126e565b9050610590818585611276565b600191505092915050565b6000609760003373ffffffffffffffffffffffffffffffffffffffff1673ffffffffffffffffffffffffffffffffffffffff16815260200190815260200160002060009054906101000a900460ff16610629576040517f08c379a000000000000000000000000000000000000000000000000000000000815260040161062090612337565b60405180910390fd5b6098805490508210156106a25760988281548110610670577f4e487b7100000000000000000000000000000000000000000000000000000000600052603260045260246000fd5b9060005260206000200160009054906101000a900473ffffffffffffffffffffffffffffffffffffffff1690506106a7565b600090505b919050565b6106b4611441565b6000609760008373ffffffffffffffffffffffffffffffffffffffff1673ffffffffffffffffffffffffffffffffffffffff16815260200190815260200160002060006101000a81548160ff02191690831515021790555050565b6000603554905090565b60008061072461126e565b90506107318582856114bf565b61073c85858561154b565b60019150509392505050565b6000609760008373ffffffffffffffffffffffffffffffffffffffff1673ffffffffffffffffffffffffffffffffffffffff16815260200190815260200160002060009054906101000a900460ff169050919050565b60006012905090565b6060609760003373ffffffffffffffffffffffffffffffffffffffff1673ffffffffffffffffffffffffffffffffffffffff16815260200190815260200160002060009054906101000a900460ff16610835576040517f08c379a000000000000000000000000000000000000000000000000000000000815260040161082c90612337565b60405180910390fd5b60988054806020026020016040519081016040528092919081815260200182805480156108b757602002820191906000526020600020905b8160009054906101000a900473ffffffffffffffffffffffffffffffffffffffff1673ffffffffffffffffffffffffffffffffffffffff168152602001906001019080831161086d575b5050505050905090565b6000806108cc61126e565b90506108ed8185856108de8589610eb9565b6108e89190612502565b611276565b600191505092915050565b610900611441565b6001609760008373ffffffffffffffffffffffffffffffffffffffff1673ffffffffffffffffffffffffffffffffffffffff16815260200190815260200160002060006101000a81548160ff0219169083151502179055506000805b609880549050811015610a1d578273ffffffffffffffffffffffffffffffffffffffff16609882815481106109ba577f4e487b7100000000000000000000000000000000000000000000000000000000600052603260045260246000fd5b9060005260206000200160009054906101000a900473ffffffffffffffffffffffffffffffffffffffff1673ffffffffffffffffffffffffffffffffffffffff161415610a0a5760019150610a1d565b8080610a1590612624565b91505061095c565b5080610a87576098829080600181540180825580915050600190039060005260206000200160009091909190916101000a81548173ffffffffffffffffffffffffffffffffffffffff021916908373ffffffffffffffffffffffffffffffffffffffff1602179055505b5050565b6000603360008373ffffffffffffffffffffffffffffffffffffffff1673ffffffffffffffffffffffffffffffffffffffff168152602001908152602001600020549050919050565b610adc611441565b610ae660006117c6565b565b6000606560009054906101000a900473ffffffffffffffffffffffffffffffffffffffff16905090565b606060378054610b21906125f2565b80601f0160208091040260200160405190810160405280929190818152602001828054610b4d906125f2565b8015610b9a5780601f10610b6f57610100808354040283529160200191610b9a565b820191906000526020600020905b815481529060010190602001808311610b7d57829003601f168201915b5050505050905090565b609760003373ffffffffffffffffffffffffffffffffffffffff1673ffffffffffffffffffffffffffffffffffffffff16815260200190815260200160002060009054906101000a900460ff16610c30576040517f08c379a0000000000000000000000000000000000000000000000000000000008152600401610c2790612337565b60405180910390fd5b6000609760003373ffffffffffffffffffffffffffffffffffffffff1673ffffffffffffffffffffffffffffffffffffffff16815260200190815260200160002060006101000a81548160ff021916908315150217905550565b600080610c9561126e565b90506000610ca38286610eb9565b905083811015610ce8576040517f08c379a0000000000000000000000000000000000000000000000000000000008152600401610cdf90612437565b60405180910390fd5b610cf58286868403611276565b60019250505092915050565b600080610d0c61126e565b9050610d1981858561154b565b600191505092915050565b609760003373ffffffffffffffffffffffffffffffffffffffff1673ffffffffffffffffffffffffffffffffffffffff16815260200190815260200160002060009054906101000a900460ff16610db0576040517f08c379a0000000000000000000000000000000000000000000000000000000008152600401610da790612337565b60405180910390fd5b60995481610dbc61070f565b610dc69190612502565b1115610e07576040517f08c379a0000000000000000000000000000000000000000000000000000000008152600401610dfe90612417565b60405180910390fd5b610e11828261188c565b5050565b609760003373ffffffffffffffffffffffffffffffffffffffff1673ffffffffffffffffffffffffffffffffffffffff16815260200190815260200160002060009054906101000a900460ff16610ea1576040517f08c379a0000000000000000000000000000000000000000000000000000000008152600401610e9890612337565b60405180910390fd5b610eab82826119e4565b5050565b6000609954905090565b6000603460008473ffffffffffffffffffffffffffffffffffffffff1673ffffffffffffffffffffffffffffffffffffffff16815260200190815260200160002060008373ffffffffffffffffffffffffffffffffffffffff1673ffffffffffffffffffffffffffffffffffffffff16815260200190815260200160002054905092915050565b60976020528060005260406000206000915054906101000a900460ff1681565b610f68611441565b600073ffffffffffffffffffffffffffffffffffffffff168173ffffffffffffffffffffffffffffffffffffffff161415610fd8576040517f08c379a0000000000000000000000000000000000000000000000000000000008152600401610fcf906122b7565b60405180910390fd5b610fe1816117c6565b50565b60008060019054906101000a900460ff161590508080156110155750600160008054906101000a900460ff1660ff16105b80611042575061102430611bb4565b1580156110415750600160008054906101000a900460ff1660ff16145b5b611081576040517f08c379a000000000000000000000000000000000000000000000000000000000815260040161107890612357565b60405180910390fd5b60016000806101000a81548160ff021916908360ff16021790555080156110be576001600060016101000a81548160ff0219169083151502179055505b6110c8338361188c565b6098339080600181540180825580915050600190039060005260206000200160009091909190916101000a81548173ffffffffffffffffffffffffffffffffffffffff021916908373ffffffffffffffffffffffffffffffffffffffff1602179055506001609760003373ffffffffffffffffffffffffffffffffffffffff1673ffffffffffffffffffffffffffffffffffffffff16815260200190815260200160002060006101000a81548160ff0219169083151502179055506a084595161401484a0000006099819055506112096040518060400160405280600781526020017f424e554744414f000000000000000000000000000000000000000000000000008152506040518060400160405280600481526020017f424e554700000000000000000000000000000000000000000000000000000000815250611bd7565b611211611c58565b801561126a5760008060016101000a81548160ff0219169083151502179055507f7f26b83ff96e1f2b6a682f133852f6798a09c465da95921460cefb38474024986001604051611261919061223a565b60405180910390a15b5050565b600033905090565b600073ffffffffffffffffffffffffffffffffffffffff168373ffffffffffffffffffffffffffffffffffffffff1614156112e6576040517f08c379a00000000000000000000000000000000000000000000000000000000081526004016112dd906123d7565b60405180910390fd5b600073ffffffffffffffffffffffffffffffffffffffff168273ffffffffffffffffffffffffffffffffffffffff161415611356576040517f08c379a000000000000000000000000000000000000000000000000000000000815260040161134d906122d7565b60405180910390fd5b80603460008573ffffffffffffffffffffffffffffffffffffffff1673ffffffffffffffffffffffffffffffffffffffff16815260200190815260200160002060008473ffffffffffffffffffffffffffffffffffffffff1673ffffffffffffffffffffffffffffffffffffffff168152602001908152602001600020819055508173ffffffffffffffffffffffffffffffffffffffff168373ffffffffffffffffffffffffffffffffffffffff167f8c5be1e5ebec7d5bd14f71427d1e84f3dd0314c0f7b2291e5b200ac8c7c3b925836040516114349190612477565b60405180910390a3505050565b61144961126e565b73ffffffffffffffffffffffffffffffffffffffff16611467610ae8565b73ffffffffffffffffffffffffffffffffffffffff16146114bd576040517f08c379a00000000000000000000000000000000000000000000000000000000081526004016114b490612377565b60405180910390fd5b565b60006114cb8484610eb9565b90507fffffffffffffffffffffffffffffffffffffffffffffffffffffffffffffffff81146115455781811015611537576040517f08c379a000000000000000000000000000000000000000000000000000000000815260040161152e906122f7565b60405180910390fd5b6115448484848403611276565b5b50505050565b600073ffffffffffffffffffffffffffffffffffffffff168373ffffffffffffffffffffffffffffffffffffffff1614156115bb576040517f08c379a00000000000000000000000000000000000000000000000000000000081526004016115b2906123b7565b60405180910390fd5b600073ffffffffffffffffffffffffffffffffffffffff168273ffffffffffffffffffffffffffffffffffffffff16141561162b576040517f08c379a000000000000000000000000000000000000000000000000000000000815260040161162290612277565b60405180910390fd5b611636838383611cb9565b6000603360008573ffffffffffffffffffffffffffffffffffffffff1673ffffffffffffffffffffffffffffffffffffffff168152602001908152602001600020549050818110156116bd576040517f08c379a00000000000000000000000000000000000000000000000000000000081526004016116b490612317565b60405180910390fd5b818103603360008673ffffffffffffffffffffffffffffffffffffffff1673ffffffffffffffffffffffffffffffffffffffff1681526020019081526020016000208190555081603360008573ffffffffffffffffffffffffffffffffffffffff1673ffffffffffffffffffffffffffffffffffffffff168152602001908152602001600020600082825401925050819055508273ffffffffffffffffffffffffffffffffffffffff168473ffffffffffffffffffffffffffffffffffffffff167fddf252ad1be2c89b69c2b068fc378daa952ba7f163c4a11628f55a4df523b3ef846040516117ad9190612477565b60405180910390a36117c0848484611cbe565b50505050565b6000606560009054906101000a900473ffffffffffffffffffffffffffffffffffffffff16905081606560006101000a81548173ffffffffffffffffffffffffffffffffffffffff021916908373ffffffffffffffffffffffffffffffffffffffff1602179055508173ffffffffffffffffffffffffffffffffffffffff168173ffffffffffffffffffffffffffffffffffffffff167f8be0079c531659141344cd1fd0a4f28419497f9722a3daafe3b4186f6b6457e060405160405180910390a35050565b600073ffffffffffffffffffffffffffffffffffffffff168273ffffffffffffffffffffffffffffffffffffffff1614156118fc576040517f08c379a00000000000000000000000000000000000000000000000000000000081526004016118f390612457565b60405180910390fd5b61190860008383611cb9565b806035600082825461191a9190612502565b9250508190555080603360008473ffffffffffffffffffffffffffffffffffffffff1673ffffffffffffffffffffffffffffffffffffffff168152602001908152602001600020600082825401925050819055508173ffffffffffffffffffffffffffffffffffffffff16600073ffffffffffffffffffffffffffffffffffffffff167fddf252ad1be2c89b69c2b068fc378daa952ba7f163c4a11628f55a4df523b3ef836040516119cc9190612477565b60405180910390a36119e060008383611cbe565b5050565b600073ffffffffffffffffffffffffffffffffffffffff168273ffffffffffffffffffffffffffffffffffffffff161415611a54576040517f08c379a0000000000000000000000000000000000000000000000000000000008152600401611a4b90612397565b60405180910390fd5b611a6082600083611cb9565b6000603360008473ffffffffffffffffffffffffffffffffffffffff1673ffffffffffffffffffffffffffffffffffffffff16815260200190815260200160002054905081811015611ae7576040517f08c379a0000000000000000000000000000000000000000000000000000000008152600401611ade90612297565b60405180910390fd5b818103603360008573ffffffffffffffffffffffffffffffffffffffff1673ffffffffffffffffffffffffffffffffffffffff1681526020019081526020016000208190555081603560008282540392505081905550600073ffffffffffffffffffffffffffffffffffffffff168373ffffffffffffffffffffffffffffffffffffffff167fddf252ad1be2c89b69c2b068fc378daa952ba7f163c4a11628f55a4df523b3ef84604051611b9b9190612477565b60405180910390a3611baf83600084611cbe565b505050565b6000808273ffffffffffffffffffffffffffffffffffffffff163b119050919050565b600060019054906101000a900460ff16611c26576040517f08c379a0000000000000000000000000000000000000000000000000000000008152600401611c1d906123f7565b60405180910390fd5b8160369080519060200190611c3c929190611cc3565b508060379080519060200190611c53929190611cc3565b505050565b600060019054906101000a900460ff16611ca7576040517f08c379a0000000000000000000000000000000000000000000000000000000008152600401611c9e906123f7565b60405180910390fd5b611cb7611cb261126e565b6117c6565b565b505050565b505050565b828054611ccf906125f2565b90600052602060002090601f016020900481019282611cf15760008555611d38565b82601f10611d0a57805160ff1916838001178555611d38565b82800160010185558215611d38579182015b82811115611d37578251825591602001919060010190611d1c565b5b509050611d459190611d49565b5090565b5b80821115611d62576000816000905550600101611d4a565b5090565b600081359050611d7581612b34565b92915050565b600081359050611d8a81612b4b565b92915050565b600060208284031215611da257600080fd5b6000611db084828501611d66565b91505092915050565b60008060408385031215611dcc57600080fd5b6000611dda85828601611d66565b9250506020611deb85828601611d66565b9150509250929050565b600080600060608486031215611e0a57600080fd5b6000611e1886828701611d66565b9350506020611e2986828701611d66565b9250506040611e3a86828701611d7b565b9150509250925092565b60008060408385031215611e5757600080fd5b6000611e6585828601611d66565b9250506020611e7685828601611d7b565b9150509250929050565b600060208284031215611e9257600080fd5b6000611ea084828501611d7b565b91505092915050565b6000611eb58383611ec1565b60208301905092915050565b611eca81612558565b82525050565b611ed981612558565b82525050565b6000611eea826124bd565b611ef481856124e0565b9350611eff836124ad565b8060005b83811015611f30578151611f178882611ea9565b9750611f22836124d3565b925050600181019050611f03565b5085935050505092915050565b611f468161256a565b82525050565b611f55816125ad565b82525050565b6000611f66826124c8565b611f7081856124f1565b9350611f808185602086016125bf565b611f89816126cb565b840191505092915050565b6000611fa16023836124f1565b9150611fac826126dc565b604082019050919050565b6000611fc46022836124f1565b9150611fcf8261272b565b604082019050919050565b6000611fe76026836124f1565b9150611ff28261277a565b604082019050919050565b600061200a6022836124f1565b9150612015826127c9565b604082019050919050565b600061202d601d836124f1565b915061203882612818565b602082019050919050565b60006120506026836124f1565b915061205b82612841565b604082019050919050565b60006120736018836124f1565b915061207e82612890565b602082019050919050565b6000612096602e836124f1565b91506120a1826128b9565b604082019050919050565b60006120b96020836124f1565b91506120c482612908565b602082019050919050565b60006120dc6021836124f1565b91506120e782612931565b604082019050919050565b60006120ff6025836124f1565b915061210a82612980565b604082019050919050565b60006121226024836124f1565b915061212d826129cf565b604082019050919050565b6000612145602b836124f1565b915061215082612a1e565b604082019050919050565b6000612168602a836124f1565b915061217382612a6d565b604082019050919050565b600061218b6025836124f1565b915061219682612abc565b604082019050919050565b60006121ae601f836124f1565b91506121b982612b0b565b602082019050919050565b6121cd81612596565b82525050565b6121dc816125a0565b82525050565b60006020820190506121f76000830184611ed0565b92915050565b600060208201905081810360008301526122178184611edf565b905092915050565b60006020820190506122346000830184611f3d565b92915050565b600060208201905061224f6000830184611f4c565b92915050565b6000602082019050818103600083015261226f8184611f5b565b905092915050565b6000602082019050818103600083015261229081611f94565b9050919050565b600060208201905081810360008301526122b081611fb7565b9050919050565b600060208201905081810360008301526122d081611fda565b9050919050565b600060208201905081810360008301526122f081611ffd565b9050919050565b6000602082019050818103600083015261231081612020565b9050919050565b6000602082019050818103600083015261233081612043565b9050919050565b6000602082019050818103600083015261235081612066565b9050919050565b6000602082019050818103600083015261237081612089565b9050919050565b60006020820190508181036000830152612390816120ac565b9050919050565b600060208201905081810360008301526123b0816120cf565b9050919050565b600060208201905081810360008301526123d0816120f2565b9050919050565b600060208201905081810360008301526123f081612115565b9050919050565b6000602082019050818103600083015261241081612138565b9050919050565b600060208201905081810360008301526124308161215b565b9050919050565b600060208201905081810360008301526124508161217e565b9050919050565b60006020820190508181036000830152612470816121a1565b9050919050565b600060208201905061248c60008301846121c4565b92915050565b60006020820190506124a760008301846121d3565b92915050565b6000819050602082019050919050565b600081519050919050565b600081519050919050565b6000602082019050919050565b600082825260208201905092915050565b600082825260208201905092915050565b600061250d82612596565b915061251883612596565b9250827fffffffffffffffffffffffffffffffffffffffffffffffffffffffffffffffff0382111561254d5761254c61266d565b5b828201905092915050565b600061256382612576565b9050919050565b60008115159050919050565b600073ffffffffffffffffffffffffffffffffffffffff82169050919050565b6000819050919050565b600060ff82169050919050565b60006125b8826125a0565b9050919050565b60005b838110156125dd5780820151818401526020810190506125c2565b838111156125ec576000848401525b50505050565b6000600282049050600182168061260a57607f821691505b6020821081141561261e5761261d61269c565b5b50919050565b600061262f82612596565b91507fffffffffffffffffffffffffffffffffffffffffffffffffffffffffffffffff8214156126625761266161266d565b5b600182019050919050565b7f4e487b7100000000000000000000000000000000000000000000000000000000600052601160045260246000fd5b7f4e487b7100000000000000000000000000000000000000000000000000000000600052602260045260246000fd5b6000601f19601f8301169050919050565b7f45524332303a207472616e7366657220746f20746865207a65726f206164647260008201527f6573730000000000000000000000000000000000000000000000000000000000602082015250565b7f45524332303a206275726e20616d6f756e7420657863656564732062616c616e60008201527f6365000000000000000000000000000000000000000000000000000000000000602082015250565b7f4f776e61626c653a206e6577206f776e657220697320746865207a65726f206160008201527f6464726573730000000000000000000000000000000000000000000000000000602082015250565b7f45524332303a20617070726f766520746f20746865207a65726f20616464726560008201527f7373000000000000000000000000000000000000000000000000000000000000602082015250565b7f45524332303a20696e73756666696369656e7420616c6c6f77616e6365000000600082015250565b7f45524332303a207472616e7366657220616d6f756e742065786365656473206260008201527f616c616e63650000000000000000000000000000000000000000000000000000602082015250565b7f4f6e6c792061646d696e2063616e2063616c6c20746869730000000000000000600082015250565b7f496e697469616c697a61626c653a20636f6e747261637420697320616c72656160008201527f647920696e697469616c697a6564000000000000000000000000000000000000602082015250565b7f4f776e61626c653a2063616c6c6572206973206e6f7420746865206f776e6572600082015250565b7f45524332303a206275726e2066726f6d20746865207a65726f2061646472657360008201527f7300000000000000000000000000000000000000000000000000000000000000602082015250565b7f45524332303a207472616e736665722066726f6d20746865207a65726f20616460008201527f6472657373000000000000000000000000000000000000000000000000000000602082015250565b7f45524332303a20617070726f76652066726f6d20746865207a65726f2061646460008201527f7265737300000000000000000000000000000000000000000000000000000000602082015250565b7f496e697469616c697a61626c653a20636f6e7472616374206973206e6f74206960008201527f6e697469616c697a696e67000000000000000000000000000000000000000000602082015250565b7f546f74616c20737570706c792063616e6e6f742065786365656564206d61786960008201527f6d756d20737570706c7900000000000000000000000000000000000000000000602082015250565b7f45524332303a2064656372656173656420616c6c6f77616e63652062656c6f7760008201527f207a65726f000000000000000000000000000000000000000000000000000000602082015250565b7f45524332303a206d696e7420746f20746865207a65726f206164647265737300600082015250565b612b3d81612558565b8114612b4857600080fd5b50565b612b5481612596565b8114612b5f57600080fd5b5056fea26469706673582212202d39270c66b2d80ddf41aa5553ffb2c82fdefae093af61808cdb6ff62e76a19064736f6c63430008040033",
  "linkReferences": {},
  "deployedLinkReferences": {}
}