{
  "_format": "hh-sol-artifact-1",
  "contractName": "BNUGEvent",
  "sourceName": "contracts/BNUGEvent.sol",
  "abi": [
    {
      "inputs": [],
      "stateMutability": "nonpayable",
      "type": "constructor"
    },
    {
      "anonymous": false,
      "inputs": [
        {
          "indexed": true,
          "internalType": "address",
          "name": "account",
          "type": "address"
        },
        {
          "indexed": true,
          "internalType": "address",
          "name": "operator",
          "type": "address"
        },
        {
          "indexed": false,
          "internalType": "bool",
          "name": "approved",
          "type": "bool"
        }
      ],
      "name": "ApprovalForAll",
      "type": "event"
    },
    {
      "anonymous": false,
      "inputs": [
        {
          "indexed": false,
          "internalType": "uint8",
          "name": "version",
          "type": "uint8"
        }
      ],
      "name": "Initialized",
      "type": "event"
    },
    {
      "anonymous": false,
      "inputs": [
        {
          "indexed": true,
          "internalType": "address",
          "name": "previousOwner",
          "type": "address"
        },
        {
          "indexed": true,
          "internalType": "address",
          "name": "newOwner",
          "type": "address"
        }
      ],
      "name": "OwnershipTransferred",
      "type": "event"
    },
    {
      "anonymous": false,
      "inputs": [
        {
          "indexed": false,
          "internalType": "address",
          "name": "account",
          "type": "address"
        }
      ],
      "name": "Paused",
      "type": "event"
    },
    {
      "anonymous": false,
      "inputs": [
        {
          "indexed": true,
          "internalType": "address",
          "name": "operator",
          "type": "address"
        },
        {
          "indexed": true,
          "internalType": "address",
          "name": "from",
          "type": "address"
        },
        {
          "indexed": true,
          "internalType": "address",
          "name": "to",
          "type": "address"
        },
        {
          "indexed": false,
          "internalType": "uint256[]",
          "name": "ids",
          "type": "uint256[]"
        },
        {
          "indexed": false,
          "internalType": "uint256[]",
          "name": "values",
          "type": "uint256[]"
        }
      ],
      "name": "TransferBatch",
      "type": "event"
    },
    {
      "anonymous": false,
      "inputs": [
        {
          "indexed": true,
          "internalType": "address",
          "name": "operator",
          "type": "address"
        },
        {
          "indexed": true,
          "internalType": "address",
          "name": "from",
          "type": "address"
        },
        {
          "indexed": true,
          "internalType": "address",
          "name": "to",
          "type": "address"
        },
        {
          "indexed": false,
          "internalType": "uint256",
          "name": "id",
          "type": "uint256"
        },
        {
          "indexed": false,
          "internalType": "uint256",
          "name": "value",
          "type": "uint256"
        }
      ],
      "name": "TransferSingle",
      "type": "event"
    },
    {
      "anonymous": false,
      "inputs": [
        {
          "indexed": false,
          "internalType": "string",
          "name": "value",
          "type": "string"
        },
        {
          "indexed": true,
          "internalType": "uint256",
          "name": "id",
          "type": "uint256"
        }
      ],
      "name": "URI",
      "type": "event"
    },
    {
      "anonymous": false,
      "inputs": [
        {
          "indexed": false,
          "internalType": "address",
          "name": "account",
          "type": "address"
        }
      ],
      "name": "Unpaused",
      "type": "event"
    },
    {
      "inputs": [],
      "name": "DEVS",
      "outputs": [
        {
          "internalType": "uint256",
          "name": "",
          "type": "uint256"
        }
      ],
      "stateMutability": "view",
      "type": "function"
    },
    {
      "inputs": [],
      "name": "GENERAL",
      "outputs": [
        {
          "internalType": "uint256",
          "name": "",
          "type": "uint256"
        }
      ],
      "stateMutability": "view",
      "type": "function"
    },
    {
      "inputs": [],
      "name": "VIP",
      "outputs": [
        {
          "internalType": "uint256",
          "name": "",
          "type": "uint256"
        }
      ],
      "stateMutability": "view",
      "type": "function"
    },
    {
      "inputs": [
        {
          "internalType": "address",
          "name": "account",
          "type": "address"
        },
        {
          "internalType": "uint256",
          "name": "id",
          "type": "uint256"
        }
      ],
      "name": "balanceOf",
      "outputs": [
        {
          "internalType": "uint256",
          "name": "",
          "type": "uint256"
        }
      ],
      "stateMutability": "view",
      "type": "function"
    },
    {
      "inputs": [
        {
          "internalType": "address[]",
          "name": "accounts",
          "type": "address[]"
        },
        {
          "internalType": "uint256[]",
          "name": "ids",
          "type": "uint256[]"
        }
      ],
      "name": "balanceOfBatch",
      "outputs": [
        {
          "internalType": "uint256[]",
          "name": "",
          "type": "uint256[]"
        }
      ],
      "stateMutability": "view",
      "type": "function"
    },
    {
      "inputs": [],
      "name": "devs_fee",
      "outputs": [
        {
          "internalType": "uint256",
          "name": "",
          "type": "uint256"
        }
      ],
      "stateMutability": "view",
      "type": "function"
    },
    {
      "inputs": [
        {
          "internalType": "address payable",
          "name": "_recipient",
          "type": "address"
        },
        {
          "internalType": "uint256",
          "name": "_amount",
          "type": "uint256"
        }
      ],
      "name": "distributeFee",
      "outputs": [],
      "stateMutability": "nonpayable",
      "type": "function"
    },
    {
      "inputs": [
        {
          "internalType": "uint256",
          "name": "id",
          "type": "uint256"
        }
      ],
      "name": "exists",
      "outputs": [
        {
          "internalType": "bool",
          "name": "",
          "type": "bool"
        }
      ],
      "stateMutability": "view",
      "type": "function"
    },
    {
      "inputs": [],
      "name": "general_fee",
      "outputs": [
        {
          "internalType": "uint256",
          "name": "",
          "type": "uint256"
        }
      ],
      "stateMutability": "view",
      "type": "function"
    },
    {
      "inputs": [
        {
          "internalType": "uint8",
          "name": "id",
          "type": "uint8"
        }
      ],
      "name": "getFee",
      "outputs": [
        {
          "internalType": "uint256",
          "name": "",
          "type": "uint256"
        }
      ],
      "stateMutability": "view",
      "type": "function"
    },
    {
      "inputs": [],
      "name": "getbalance",
      "outputs": [
        {
          "internalType": "uint256",
          "name": "",
          "type": "uint256"
        }
      ],
      "stateMutability": "view",
      "type": "function"
    },
    {
      "inputs": [],
      "name": "initialize",
      "outputs": [],
      "stateMutability": "nonpayable",
      "type": "function"
    },
    {
      "inputs": [
        {
          "internalType": "address",
          "name": "account",
          "type": "address"
        },
        {
          "internalType": "address",
          "name": "operator",
          "type": "address"
        }
      ],
      "name": "isApprovedForAll",
      "outputs": [
        {
          "internalType": "bool",
          "name": "",
          "type": "bool"
        }
      ],
      "stateMutability": "view",
      "type": "function"
    },
    {
      "inputs": [
        {
          "internalType": "uint8",
          "name": "id",
          "type": "uint8"
        },
        {
          "internalType": "uint256",
          "name": "amount",
          "type": "uint256"
        }
      ],
      "name": "mint",
      "outputs": [],
      "stateMutability": "payable",
      "type": "function"
    },
    {
      "inputs": [
        {
          "internalType": "address",
          "name": "to",
          "type": "address"
        },
        {
          "internalType": "uint256[]",
          "name": "ids",
          "type": "uint256[]"
        },
        {
          "internalType": "uint256[]",
          "name": "amounts",
          "type": "uint256[]"
        },
        {
          "internalType": "bytes",
          "name": "data",
          "type": "bytes"
        }
      ],
      "name": "mintBatch",
      "outputs": [],
      "stateMutability": "nonpayable",
      "type": "function"
    },
    {
      "inputs": [],
      "name": "owner",
      "outputs": [
        {
          "internalType": "address",
          "name": "",
          "type": "address"
        }
      ],
      "stateMutability": "view",
      "type": "function"
    },
    {
      "inputs": [],
      "name": "pause",
      "outputs": [],
      "stateMutability": "nonpayable",
      "type": "function"
    },
    {
      "inputs": [],
      "name": "paused",
      "outputs": [
        {
          "internalType": "bool",
          "name": "",
          "type": "bool"
        }
      ],
      "stateMutability": "view",
      "type": "function"
    },
    {
      "inputs": [],
      "name": "renounceOwnership",
      "outputs": [],
      "stateMutability": "nonpayable",
      "type": "function"
    },
    {
      "inputs": [
        {
          "internalType": "address",
          "name": "from",
          "type": "address"
        },
        {
          "internalType": "address",
          "name": "to",
          "type": "address"
        },
        {
          "internalType": "uint256[]",
          "name": "ids",
          "type": "uint256[]"
        },
        {
          "internalType": "uint256[]",
          "name": "amounts",
          "type": "uint256[]"
        },
        {
          "internalType": "bytes",
          "name": "data",
          "type": "bytes"
        }
      ],
      "name": "safeBatchTransferFrom",
      "outputs": [],
      "stateMutability": "nonpayable",
      "type": "function"
    },
    {
      "inputs": [
        {
          "internalType": "address",
          "name": "from",
          "type": "address"
        },
        {
          "internalType": "address",
          "name": "to",
          "type": "address"
        },
        {
          "internalType": "uint256",
          "name": "id",
          "type": "uint256"
        },
        {
          "internalType": "uint256",
          "name": "amount",
          "type": "uint256"
        },
        {
          "internalType": "bytes",
          "name": "data",
          "type": "bytes"
        }
      ],
      "name": "safeTransferFrom",
      "outputs": [],
      "stateMutability": "nonpayable",
      "type": "function"
    },
    {
      "inputs": [
        {
          "internalType": "address",
          "name": "operator",
          "type": "address"
        },
        {
          "internalType": "bool",
          "name": "approved",
          "type": "bool"
        }
      ],
      "name": "setApprovalForAll",
      "outputs": [],
      "stateMutability": "nonpayable",
      "type": "function"
    },
    {
      "inputs": [
        {
          "internalType": "uint8",
          "name": "id",
          "type": "uint8"
        },
        {
          "internalType": "uint256",
          "name": "new_fee",
          "type": "uint256"
        }
      ],
      "name": "setMintingFee",
      "outputs": [],
      "stateMutability": "nonpayable",
      "type": "function"
    },
    {
      "inputs": [
        {
          "internalType": "string",
          "name": "newuri",
          "type": "string"
        }
      ],
      "name": "setURI",
      "outputs": [],
      "stateMutability": "nonpayable",
      "type": "function"
    },
    {
      "inputs": [
        {
          "internalType": "bytes4",
          "name": "interfaceId",
          "type": "bytes4"
        }
      ],
      "name": "supportsInterface",
      "outputs": [
        {
          "internalType": "bool",
          "name": "",
          "type": "bool"
        }
      ],
      "stateMutability": "view",
      "type": "function"
    },
    {
      "inputs": [
        {
          "internalType": "uint256",
          "name": "id",
          "type": "uint256"
        }
      ],
      "name": "totalSupply",
      "outputs": [
        {
          "internalType": "uint256",
          "name": "",
          "type": "uint256"
        }
      ],
      "stateMutability": "view",
      "type": "function"
    },
    {
      "inputs": [
        {
          "internalType": "address",
          "name": "newOwner",
          "type": "address"
        }
      ],
      "name": "transferOwnership",
      "outputs": [],
      "stateMutability": "nonpayable",
      "type": "function"
    },
    {
      "inputs": [],
      "name": "unpause",
      "outputs": [],
      "stateMutability": "nonpayable",
      "type": "function"
    },
    {
      "inputs": [
        {
          "internalType": "uint256",
          "name": "",
          "type": "uint256"
        }
      ],
      "name": "uri",
      "outputs": [
        {
          "internalType": "string",
          "name": "",
          "type": "string"
        }
      ],
      "stateMutability": "view",
      "type": "function"
    },
    {
      "inputs": [],
      "name": "vip_fee",
      "outputs": [
        {
          "internalType": "uint256",
          "name": "",
          "type": "uint256"
        }
      ],
      "stateMutability": "view",
      "type": "function"
    }
  ],
  "bytecode": "0x60806040523480156200001157600080fd5b506200001c62000022565b620000e4565b600054610100900460ff16156200008f5760405162461bcd60e51b815260206004820152602760248201527f496e697469616c697a61626c653a20636f6e747261637420697320696e697469604482015266616c697a696e6760c81b606482015260840160405180910390fd5b60005460ff9081161015620000e2576000805460ff191660ff9081179091556040519081527f7f26b83ff96e1f2b6a682f133852f6798a09c465da95921460cefb38474024989060200160405180910390a15b565b6125f580620000f46000396000f3fe6080604052600436106101cc5760003560e01c80635c975abb116100f75780638da5cb5b11610095578063e985e9c511610064578063e985e9c5146104f9578063f242432a14610542578063f26748e214610562578063f2fde38b1461057557600080fd5b80638da5cb5b1461046d578063a22cb46514610495578063bd85b039146104b5578063d898a2f3146104e257600080fd5b80637524c4ad116100d15780637524c4ad1461040e5780638129fc1c1461042e5780638456cb591461044357806389c5e4691461045857600080fd5b80635c975abb146103ca57806360dc6905146103e2578063715018a6146103f957600080fd5b806320d5c3fd1161016f578063448e520f1161013e578063448e520f146103395780634d9b3d5d146103595780634e1273f41461036e5780634f558e791461039b57600080fd5b806320d5c3fd146102d8578063274c93fc146102ef5780632eb2c2d6146103045780633f4ba83a1461032457600080fd5b8063083132c4116101ab578063083132c4146102565780630b8b41b8146102765780630e89341c1461028b5780631f7fdffa146102b857600080fd5b8062fdd58e146101d157806301ffc9a71461020457806302fe530514610234575b600080fd5b3480156101dd57600080fd5b506101f16101ec366004611b13565b610595565b6040519081526020015b60405180910390f35b34801561021057600080fd5b5061022461021f366004611b55565b61062d565b60405190151581526020016101fb565b34801561024057600080fd5b5061025461024f366004611c1a565b61067f565b005b34801561026257600080fd5b506101f1610271366004611c7c565b610693565b34801561028257600080fd5b506101f1600281565b34801561029757600080fd5b506102ab6102a6366004611c97565b61070a565b6040516101fb9190611cfd565b3480156102c457600080fd5b506102546102d3366004611dc5565b61079e565b3480156102e457600080fd5b506101f161012d5481565b3480156102fb57600080fd5b506101f1600081565b34801561031057600080fd5b5061025461031f366004611e60565b6107b8565b34801561033057600080fd5b50610254610804565b34801561034557600080fd5b50610254610354366004611b13565b610816565b34801561036557600080fd5b506101f16108a0565b34801561037a57600080fd5b5061038e610389366004611f0e565b6108b0565b6040516101fb9190612016565b3480156103a757600080fd5b506102246103b6366004611c97565b600090815260fb6020526040902054151590565b3480156103d657600080fd5b5060c95460ff16610224565b3480156103ee57600080fd5b506101f161012e5481565b34801561040557600080fd5b506102546109da565b34801561041a57600080fd5b50610254610429366004612029565b6109ec565b34801561043a57600080fd5b50610254610a62565b34801561044f57600080fd5b50610254610bcc565b34801561046457600080fd5b506101f1600181565b34801561047957600080fd5b506097546040516001600160a01b0390911681526020016101fb565b3480156104a157600080fd5b506102546104b0366004612045565b610bdc565b3480156104c157600080fd5b506101f16104d0366004611c97565b600090815260fb602052604090205490565b3480156104ee57600080fd5b506101f161012f5481565b34801561050557600080fd5b50610224610514366004612083565b6001600160a01b03918216600090815260666020908152604080832093909416825291909152205460ff1690565b34801561054e57600080fd5b5061025461055d3660046120b1565b610be7565b610254610570366004612029565b610c2c565b34801561058157600080fd5b5061025461059036600461211a565b610cb4565b60006001600160a01b0383166106055760405162461bcd60e51b815260206004820152602a60248201527f455243313135353a2061646472657373207a65726f206973206e6f742061207660448201526930b634b21037bbb732b960b11b60648201526084015b60405180910390fd5b5060009081526065602090815260408083206001600160a01b03949094168352929052205490565b60006001600160e01b03198216636cdb3d1360e11b148061065e57506001600160e01b031982166303a24d0760e21b145b8061067957506301ffc9a760e01b6001600160e01b03198316145b92915050565b610687610d2a565b61069081610d84565b50565b600060028260ff1611156106d65760405162461bcd60e51b815260206004820152600a602482015269125b9d985b1a59081a5960b21b60448201526064016105fc565b60ff82166106e757505061012d5490565b8160ff16600114156106fc57505061012e5490565b505061012f5490565b919050565b60606067805461071990612137565b80601f016020809104026020016040519081016040528092919081815260200182805461074590612137565b80156107925780601f1061076757610100808354040283529160200191610792565b820191906000526020600020905b81548152906001019060200180831161077557829003601f168201915b50505050509050919050565b6107a6610d2a565b6107b284848484610d97565b50505050565b6001600160a01b0385163314806107d457506107d48533610514565b6107f05760405162461bcd60e51b81526004016105fc90612172565b6107fd8585858585610ef2565b5050505050565b61080c610d2a565b61081461109f565b565b61081e610d2a565b804710156108655760405162461bcd60e51b8152602060048201526014602482015273496e73756666696369656e742062616c616e636560601b60448201526064016105fc565b6040516001600160a01b0383169082156108fc029083906000818181858888f1935050505015801561089b573d6000803e3d6000fd5b505050565b60006108aa610d2a565b50475b90565b606081518351146109155760405162461bcd60e51b815260206004820152602960248201527f455243313135353a206163636f756e747320616e6420696473206c656e677468604482015268040dad2e6dac2e8c6d60bb1b60648201526084016105fc565b6000835167ffffffffffffffff81111561093157610931611b79565b60405190808252806020026020018201604052801561095a578160200160208202803683370190505b50905060005b84518110156109d2576109a585828151811061097e5761097e6121c0565b6020026020010151858381518110610998576109986121c0565b6020026020010151610595565b8282815181106109b7576109b76121c0565b60209081029190910101526109cb816121ec565b9050610960565b509392505050565b6109e2610d2a565b61081460006110f1565b6109f4610d2a565b60028260ff161115610a355760405162461bcd60e51b815260206004820152600a602482015269125b9d985b1a59081a5960b21b60448201526064016105fc565b60ff8216610a445761012d5550565b8160ff1660011415610a575761012e5550565b61012f8190555b5050565b600054610100900460ff1615808015610a825750600054600160ff909116105b80610a9c5750303b158015610a9c575060005460ff166001145b610aff5760405162461bcd60e51b815260206004820152602e60248201527f496e697469616c697a61626c653a20636f6e747261637420697320616c72656160448201526d191e481a5b9a5d1a585b1a5e995960921b60648201526084016105fc565b6000805460ff191660011790558015610b22576000805461ff0019166101001790555b610b4360405180608001604052806043815260200161257d60439139611143565b610b4b611173565b610b536111a2565b610b5b6111d1565b671bc16d674ec8000061012d556802b5e3af16b188000061012e556801a055690d9db8000061012f558015610690576000805461ff0019169055604051600181527f7f26b83ff96e1f2b6a682f133852f6798a09c465da95921460cefb38474024989060200160405180910390a150565b610bd4610d2a565b6108146111f8565b610a5e338383611235565b6001600160a01b038516331480610c035750610c038533610514565b610c1f5760405162461bcd60e51b81526004016105fc90612172565b6107fd8585858585611316565b60ff8216610c965780610c3e83610693565b610c489190612207565b3414610c965760405162461bcd60e51b815260206004820152601b60248201527f4572726f723a204d696e74696e6720666565207265717569726564000000000060448201526064016105fc565b610a5e338360ff168360405180602001604052806000815250611452565b610cbc610d2a565b6001600160a01b038116610d215760405162461bcd60e51b815260206004820152602660248201527f4f776e61626c653a206e6577206f776e657220697320746865207a65726f206160448201526564647265737360d01b60648201526084016105fc565b610690816110f1565b6097546001600160a01b031633146108145760405162461bcd60e51b815260206004820181905260248201527f4f776e61626c653a2063616c6c6572206973206e6f7420746865206f776e657260448201526064016105fc565b8051610a5e906067906020840190611a65565b6001600160a01b038416610dbd5760405162461bcd60e51b81526004016105fc90612226565b8151835114610dde5760405162461bcd60e51b81526004016105fc90612267565b33610dee8160008787878761153d565b60005b8451811015610e8a57838181518110610e0c57610e0c6121c0565b602002602001015160656000878481518110610e2a57610e2a6121c0565b602002602001015181526020019081526020016000206000886001600160a01b03166001600160a01b031681526020019081526020016000206000828254610e7291906122af565b90915550819050610e82816121ec565b915050610df1565b50846001600160a01b031660006001600160a01b0316826001600160a01b03167f4a39dc06d4c0dbc64b70af90fd698a233a518aa5d07e595d983b8c0526c8f7fb8787604051610edb9291906122c7565b60405180910390a46107fd81600087878787611553565b8151835114610f135760405162461bcd60e51b81526004016105fc90612267565b6001600160a01b038416610f395760405162461bcd60e51b81526004016105fc906122f5565b33610f4881878787878761153d565b60005b8451811015611031576000858281518110610f6857610f686121c0565b602002602001015190506000858381518110610f8657610f866121c0565b60209081029190910181015160008481526065835260408082206001600160a01b038e168352909352919091205490915081811015610fd75760405162461bcd60e51b81526004016105fc9061233a565b60008381526065602090815260408083206001600160a01b038e8116855292528083208585039055908b168252812080548492906110169084906122af565b925050819055505050508061102a906121ec565b9050610f4b565b50846001600160a01b0316866001600160a01b0316826001600160a01b03167f4a39dc06d4c0dbc64b70af90fd698a233a518aa5d07e595d983b8c0526c8f7fb87876040516110819291906122c7565b60405180910390a4611097818787878787611553565b505050505050565b6110a76116be565b60c9805460ff191690557f5db9ee0a495bf2e6ff9c91a7834c1ba4fdd244a5e8aa4e537bd38aeae4b073aa335b6040516001600160a01b03909116815260200160405180910390a1565b609780546001600160a01b038381166001600160a01b0319831681179093556040519116919082907f8be0079c531659141344cd1fd0a4f28419497f9722a3daafe3b4186f6b6457e090600090a35050565b600054610100900460ff1661116a5760405162461bcd60e51b81526004016105fc90612384565b61069081611707565b600054610100900460ff1661119a5760405162461bcd60e51b81526004016105fc90612384565b61081461172e565b600054610100900460ff166111c95760405162461bcd60e51b81526004016105fc90612384565b61081461175e565b600054610100900460ff166108145760405162461bcd60e51b81526004016105fc90612384565b611200611791565b60c9805460ff191660011790557f62e78cea01bee320cd4e420270b5ea74000d11b0c9f74754ebdbfc544b05a2586110d43390565b816001600160a01b0316836001600160a01b031614156112a95760405162461bcd60e51b815260206004820152602960248201527f455243313135353a2073657474696e6720617070726f76616c20737461747573604482015268103337b91039b2b63360b91b60648201526084016105fc565b6001600160a01b03838116600081815260666020908152604080832094871680845294825291829020805460ff191686151590811790915591519182527f17307eab39ab6107e8899845ad3d59bd9653f200f220920489ca2b5937696c31910160405180910390a3505050565b6001600160a01b03841661133c5760405162461bcd60e51b81526004016105fc906122f5565b336000611348856117d7565b90506000611355856117d7565b905061136583898985858961153d565b60008681526065602090815260408083206001600160a01b038c168452909152902054858110156113a85760405162461bcd60e51b81526004016105fc9061233a565b60008781526065602090815260408083206001600160a01b038d8116855292528083208985039055908a168252812080548892906113e79084906122af565b909155505060408051888152602081018890526001600160a01b03808b16928c821692918816917fc3d58168c5ae7397731d063d5bbf3d657854427343f4c083240f7aacaa2d0f62910160405180910390a4611447848a8a8a8a8a611822565b505050505050505050565b6001600160a01b0384166114785760405162461bcd60e51b81526004016105fc90612226565b336000611484856117d7565b90506000611491856117d7565b90506114a28360008985858961153d565b60008681526065602090815260408083206001600160a01b038b168452909152812080548792906114d49084906122af565b909155505060408051878152602081018790526001600160a01b03808a1692600092918716917fc3d58168c5ae7397731d063d5bbf3d657854427343f4c083240f7aacaa2d0f62910160405180910390a461153483600089898989611822565b50505050505050565b611545611791565b6110978686868686866118ec565b6001600160a01b0384163b156110975760405163bc197c8160e01b81526001600160a01b0385169063bc197c819061159790899089908890889088906004016123cf565b602060405180830381600087803b1580156115b157600080fd5b505af19250505080156115e1575060408051601f3d908101601f191682019092526115de9181019061242d565b60015b61168e576115ed61244a565b806308c379a014156116275750611602612465565b8061160d5750611629565b8060405162461bcd60e51b81526004016105fc9190611cfd565b505b60405162461bcd60e51b815260206004820152603460248201527f455243313135353a207472616e7366657220746f206e6f6e2d455243313135356044820152732932b1b2b4bb32b91034b6b83632b6b2b73a32b960611b60648201526084016105fc565b6001600160e01b0319811663bc197c8160e01b146115345760405162461bcd60e51b81526004016105fc906124ef565b60c95460ff166108145760405162461bcd60e51b815260206004820152601460248201527314185d5cd8589b194e881b9bdd081c185d5cd95960621b60448201526064016105fc565b600054610100900460ff166106875760405162461bcd60e51b81526004016105fc90612384565b600054610100900460ff166117555760405162461bcd60e51b81526004016105fc90612384565b610814336110f1565b600054610100900460ff166117855760405162461bcd60e51b81526004016105fc90612384565b60c9805460ff19169055565b60c95460ff16156108145760405162461bcd60e51b815260206004820152601060248201526f14185d5cd8589b194e881c185d5cd95960821b60448201526064016105fc565b60408051600180825281830190925260609160009190602080830190803683370190505090508281600081518110611811576118116121c0565b602090810291909101015292915050565b6001600160a01b0384163b156110975760405163f23a6e6160e01b81526001600160a01b0385169063f23a6e61906118669089908990889088908890600401612537565b602060405180830381600087803b15801561188057600080fd5b505af19250505080156118b0575060408051601f3d908101601f191682019092526118ad9181019061242d565b60015b6118bc576115ed61244a565b6001600160e01b0319811663f23a6e6160e01b146115345760405162461bcd60e51b81526004016105fc906124ef565b6001600160a01b0385166119735760005b835181101561197157828181518110611918576119186121c0565b602002602001015160fb6000868481518110611936576119366121c0565b60200260200101518152602001908152602001600020600082825461195b91906122af565b9091555061196a9050816121ec565b90506118fd565b505b6001600160a01b0384166110975760005b83518110156115345760008482815181106119a1576119a16121c0565b6020026020010151905060008483815181106119bf576119bf6121c0565b60200260200101519050600060fb600084815260200190815260200160002054905081811015611a425760405162461bcd60e51b815260206004820152602860248201527f455243313135353a206275726e20616d6f756e74206578636565647320746f74604482015267616c537570706c7960c01b60648201526084016105fc565b600092835260fb602052604090922091039055611a5e816121ec565b9050611984565b828054611a7190612137565b90600052602060002090601f016020900481019282611a935760008555611ad9565b82601f10611aac57805160ff1916838001178555611ad9565b82800160010185558215611ad9579182015b82811115611ad9578251825591602001919060010190611abe565b50611ae5929150611ae9565b5090565b5b80821115611ae55760008155600101611aea565b6001600160a01b038116811461069057600080fd5b60008060408385031215611b2657600080fd5b8235611b3181611afe565b946020939093013593505050565b6001600160e01b03198116811461069057600080fd5b600060208284031215611b6757600080fd5b8135611b7281611b3f565b9392505050565b634e487b7160e01b600052604160045260246000fd5b601f8201601f1916810167ffffffffffffffff81118282101715611bb557611bb5611b79565b6040525050565b600067ffffffffffffffff831115611bd657611bd6611b79565b604051611bed601f8501601f191660200182611b8f565b809150838152848484011115611c0257600080fd5b83836020830137600060208583010152509392505050565b600060208284031215611c2c57600080fd5b813567ffffffffffffffff811115611c4357600080fd5b8201601f81018413611c5457600080fd5b611c6384823560208401611bbc565b949350505050565b803560ff8116811461070557600080fd5b600060208284031215611c8e57600080fd5b611b7282611c6b565b600060208284031215611ca957600080fd5b5035919050565b6000815180845260005b81811015611cd657602081850181015186830182015201611cba565b81811115611ce8576000602083870101525b50601f01601f19169290920160200192915050565b602081526000611b726020830184611cb0565b600067ffffffffffffffff821115611d2a57611d2a611b79565b5060051b60200190565b600082601f830112611d4557600080fd5b81356020611d5282611d10565b604051611d5f8282611b8f565b83815260059390931b8501820192828101915086841115611d7f57600080fd5b8286015b84811015611d9a5780358352918301918301611d83565b509695505050505050565b600082601f830112611db657600080fd5b611b7283833560208501611bbc565b60008060008060808587031215611ddb57600080fd5b8435611de681611afe565b9350602085013567ffffffffffffffff80821115611e0357600080fd5b611e0f88838901611d34565b94506040870135915080821115611e2557600080fd5b611e3188838901611d34565b93506060870135915080821115611e4757600080fd5b50611e5487828801611da5565b91505092959194509250565b600080600080600060a08688031215611e7857600080fd5b8535611e8381611afe565b94506020860135611e9381611afe565b9350604086013567ffffffffffffffff80821115611eb057600080fd5b611ebc89838a01611d34565b94506060880135915080821115611ed257600080fd5b611ede89838a01611d34565b93506080880135915080821115611ef457600080fd5b50611f0188828901611da5565b9150509295509295909350565b60008060408385031215611f2157600080fd5b823567ffffffffffffffff80821115611f3957600080fd5b818501915085601f830112611f4d57600080fd5b81356020611f5a82611d10565b604051611f678282611b8f565b83815260059390931b8501820192828101915089841115611f8757600080fd5b948201945b83861015611fae578535611f9f81611afe565b82529482019490820190611f8c565b96505086013592505080821115611fc457600080fd5b50611fd185828601611d34565b9150509250929050565b600081518084526020808501945080840160005b8381101561200b57815187529582019590820190600101611fef565b509495945050505050565b602081526000611b726020830184611fdb565b6000806040838503121561203c57600080fd5b611b3183611c6b565b6000806040838503121561205857600080fd5b823561206381611afe565b91506020830135801515811461207857600080fd5b809150509250929050565b6000806040838503121561209657600080fd5b82356120a181611afe565b9150602083013561207881611afe565b600080600080600060a086880312156120c957600080fd5b85356120d481611afe565b945060208601356120e481611afe565b93506040860135925060608601359150608086013567ffffffffffffffff81111561210e57600080fd5b611f0188828901611da5565b60006020828403121561212c57600080fd5b8135611b7281611afe565b600181811c9082168061214b57607f821691505b6020821081141561216c57634e487b7160e01b600052602260045260246000fd5b50919050565b6020808252602e908201527f455243313135353a2063616c6c6572206973206e6f7420746f6b656e206f776e60408201526d195c881bdc88185c1c1c9bdd995960921b606082015260800190565b634e487b7160e01b600052603260045260246000fd5b634e487b7160e01b600052601160045260246000fd5b6000600019821415612200576122006121d6565b5060010190565b6000816000190483118215151615612221576122216121d6565b500290565b60208082526021908201527f455243313135353a206d696e7420746f20746865207a65726f206164647265736040820152607360f81b606082015260800190565b60208082526028908201527f455243313135353a2069647320616e6420616d6f756e7473206c656e677468206040820152670dad2e6dac2e8c6d60c31b606082015260800190565b600082198211156122c2576122c26121d6565b500190565b6040815260006122da6040830185611fdb565b82810360208401526122ec8185611fdb565b95945050505050565b60208082526025908201527f455243313135353a207472616e7366657220746f20746865207a65726f206164604082015264647265737360d81b606082015260800190565b6020808252602a908201527f455243313135353a20696e73756666696369656e742062616c616e636520666f60408201526939103a3930b739b332b960b11b606082015260800190565b6020808252602b908201527f496e697469616c697a61626c653a20636f6e7472616374206973206e6f74206960408201526a6e697469616c697a696e6760a81b606082015260800190565b6001600160a01b0386811682528516602082015260a0604082018190526000906123fb90830186611fdb565b828103606084015261240d8186611fdb565b905082810360808401526124218185611cb0565b98975050505050505050565b60006020828403121561243f57600080fd5b8151611b7281611b3f565b600060033d11156108ad5760046000803e5060005160e01c90565b600060443d10156124735790565b6040516003193d81016004833e81513d67ffffffffffffffff81602484011181841117156124a357505050505090565b82850191508151818111156124bb5750505050505090565b843d87010160208285010111156124d55750505050505090565b6124e460208286010187611b8f565b509095945050505050565b60208082526028908201527f455243313135353a204552433131353552656365697665722072656a656374656040820152676420746f6b656e7360c01b606082015260800190565b6001600160a01b03868116825285166020820152604081018490526060810183905260a06080820181905260009061257190830184611cb0565b97965050505050505056fe68747470733a2f2f697066732e696f2f697066732f516d5339376a616842536a514a69524667627a616641554245666b7a4172343166663374686765446972316f7934a26469706673582212201a8a28c875bedbc4e6a5618df476048cc4d6b1c17ac7c70f2d590af6f1593f2f64736f6c63430008090033",
  "linkReferences": {},
  "deployedLinkReferences": {}
}