{
  "_format": "hh-sol-artifact-1",
  "contractName": "BNUGToken",
  "sourceName": "contracts/BNUGToken.sol",
  "abi": [
    {
      "anonymous": false,
      "inputs": [
        {
          "indexed": true,
          "internalType": "address",
          "name": "owner",
          "type": "address"
        },
        {
          "indexed": true,
          "internalType": "address",
          "name": "spender",
          "type": "address"
        },
        {
          "indexed": false,
          "internalType": "uint256",
          "name": "value",
          "type": "uint256"
        }
      ],
      "name": "Approval",
      "type": "event"
    },
    {
      "anonymous": false,
      "inputs": [
        {
          "indexed": false,
          "internalType": "uint8",
          "name": "version",
          "type": "uint8"
        }
      ],
      "name": "Initialized",
      "type": "event"
    },
    {
      "anonymous": false,
      "inputs": [
        {
          "indexed": true,
          "internalType": "address",
          "name": "previousOwner",
          "type": "address"
        },
        {
          "indexed": true,
          "internalType": "address",
          "name": "newOwner",
          "type": "address"
        }
      ],
      "name": "OwnershipTransferred",
      "type": "event"
    },
    {
      "anonymous": false,
      "inputs": [
        {
          "indexed": true,
          "internalType": "address",
          "name": "from",
          "type": "address"
        },
        {
          "indexed": true,
          "internalType": "address",
          "name": "to",
          "type": "address"
        },
        {
          "indexed": false,
          "internalType": "uint256",
          "name": "value",
          "type": "uint256"
        }
      ],
      "name": "Transfer",
      "type": "event"
    },
    {
      "inputs": [
        {
          "internalType": "address",
          "name": "",
          "type": "address"
        }
      ],
      "name": "_isAdmin",
      "outputs": [
        {
          "internalType": "bool",
          "name": "",
          "type": "bool"
        }
      ],
      "stateMutability": "view",
      "type": "function"
    },
    {
      "inputs": [
        {
          "internalType": "address",
          "name": "owner",
          "type": "address"
        },
        {
          "internalType": "address",
          "name": "spender",
          "type": "address"
        }
      ],
      "name": "allowance",
      "outputs": [
        {
          "internalType": "uint256",
          "name": "",
          "type": "uint256"
        }
      ],
      "stateMutability": "view",
      "type": "function"
    },
    {
      "inputs": [
        {
          "internalType": "address",
          "name": "spender",
          "type": "address"
        },
        {
          "internalType": "uint256",
          "name": "amount",
          "type": "uint256"
        }
      ],
      "name": "approve",
      "outputs": [
        {
          "internalType": "bool",
          "name": "",
          "type": "bool"
        }
      ],
      "stateMutability": "nonpayable",
      "type": "function"
    },
    {
      "inputs": [
        {
          "internalType": "address",
          "name": "account",
          "type": "address"
        }
      ],
      "name": "balanceOf",
      "outputs": [
        {
          "internalType": "uint256",
          "name": "",
          "type": "uint256"
        }
      ],
      "stateMutability": "view",
      "type": "function"
    },
    {
      "inputs": [
        {
          "internalType": "address",
          "name": "account",
          "type": "address"
        },
        {
          "internalType": "uint256",
          "name": "amount",
          "type": "uint256"
        }
      ],
      "name": "burnToken",
      "outputs": [],
      "stateMutability": "nonpayable",
      "type": "function"
    },
    {
      "inputs": [],
      "name": "decimals",
      "outputs": [
        {
          "internalType": "uint8",
          "name": "",
          "type": "uint8"
        }
      ],
      "stateMutability": "view",
      "type": "function"
    },
    {
      "inputs": [
        {
          "internalType": "address",
          "name": "spender",
          "type": "address"
        },
        {
          "internalType": "uint256",
          "name": "subtractedValue",
          "type": "uint256"
        }
      ],
      "name": "decreaseAllowance",
      "outputs": [
        {
          "internalType": "bool",
          "name": "",
          "type": "bool"
        }
      ],
      "stateMutability": "nonpayable",
      "type": "function"
    },
    {
      "inputs": [
        {
          "internalType": "uint256",
          "name": "index",
          "type": "uint256"
        }
      ],
      "name": "getAdmin",
      "outputs": [
        {
          "internalType": "address",
          "name": "",
          "type": "address"
        }
      ],
      "stateMutability": "view",
      "type": "function"
    },
    {
      "inputs": [],
      "name": "getAdmins",
      "outputs": [
        {
          "internalType": "address[]",
          "name": "",
          "type": "address[]"
        }
      ],
      "stateMutability": "view",
      "type": "function"
    },
    {
      "inputs": [
        {
          "internalType": "address",
          "name": "spender",
          "type": "address"
        },
        {
          "internalType": "uint256",
          "name": "addedValue",
          "type": "uint256"
        }
      ],
      "name": "increaseAllowance",
      "outputs": [
        {
          "internalType": "bool",
          "name": "",
          "type": "bool"
        }
      ],
      "stateMutability": "nonpayable",
      "type": "function"
    },
    {
      "inputs": [],
      "name": "initialize",
      "outputs": [],
      "stateMutability": "nonpayable",
      "type": "function"
    },
    {
      "inputs": [
        {
          "internalType": "address",
          "name": "user",
          "type": "address"
        }
      ],
      "name": "isAdmin",
      "outputs": [
        {
          "internalType": "bool",
          "name": "",
          "type": "bool"
        }
      ],
      "stateMutability": "view",
      "type": "function"
    },
    {
      "inputs": [],
      "name": "maxSupply",
      "outputs": [
        {
          "internalType": "uint256",
          "name": "",
          "type": "uint256"
        }
      ],
      "stateMutability": "view",
      "type": "function"
    },
    {
      "inputs": [
        {
          "internalType": "address",
          "name": "account",
          "type": "address"
        },
        {
          "internalType": "uint256",
          "name": "amount",
          "type": "uint256"
        }
      ],
      "name": "mintCommunityToken",
      "outputs": [],
      "stateMutability": "nonpayable",
      "type": "function"
    },
    {
      "inputs": [],
      "name": "name",
      "outputs": [
        {
          "internalType": "string",
          "name": "",
          "type": "string"
        }
      ],
      "stateMutability": "view",
      "type": "function"
    },
    {
      "inputs": [],
      "name": "owner",
      "outputs": [
        {
          "internalType": "address",
          "name": "",
          "type": "address"
        }
      ],
      "stateMutability": "view",
      "type": "function"
    },
    {
      "inputs": [
        {
          "internalType": "address",
          "name": "admin",
          "type": "address"
        }
      ],
      "name": "removeAdmin",
      "outputs": [],
      "stateMutability": "nonpayable",
      "type": "function"
    },
    {
      "inputs": [],
      "name": "renounceAdminship",
      "outputs": [],
      "stateMutability": "nonpayable",
      "type": "function"
    },
    {
      "inputs": [],
      "name": "renounceOwnership",
      "outputs": [],
      "stateMutability": "nonpayable",
      "type": "function"
    },
    {
      "inputs": [
        {
          "internalType": "address",
          "name": "new_admin",
          "type": "address"
        }
      ],
      "name": "setAdmin",
      "outputs": [],
      "stateMutability": "nonpayable",
      "type": "function"
    },
    {
      "inputs": [],
      "name": "symbol",
      "outputs": [
        {
          "internalType": "string",
          "name": "",
          "type": "string"
        }
      ],
      "stateMutability": "view",
      "type": "function"
    },
    {
      "inputs": [],
      "name": "totalSupply",
      "outputs": [
        {
          "internalType": "uint256",
          "name": "",
          "type": "uint256"
        }
      ],
      "stateMutability": "view",
      "type": "function"
    },
    {
      "inputs": [
        {
          "internalType": "address",
          "name": "to",
          "type": "address"
        },
        {
          "internalType": "uint256",
          "name": "amount",
          "type": "uint256"
        }
      ],
      "name": "transfer",
      "outputs": [
        {
          "internalType": "bool",
          "name": "",
          "type": "bool"
        }
      ],
      "stateMutability": "nonpayable",
      "type": "function"
    },
    {
      "inputs": [
        {
          "internalType": "address",
          "name": "from",
          "type": "address"
        },
        {
          "internalType": "address",
          "name": "to",
          "type": "address"
        },
        {
          "internalType": "uint256",
          "name": "amount",
          "type": "uint256"
        }
      ],
      "name": "transferFrom",
      "outputs": [
        {
          "internalType": "bool",
          "name": "",
          "type": "bool"
        }
      ],
      "stateMutability": "nonpayable",
      "type": "function"
    },
    {
      "inputs": [
        {
          "internalType": "address",
          "name": "newOwner",
          "type": "address"
        }
      ],
      "name": "transferOwnership",
      "outputs": [],
      "stateMutability": "nonpayable",
      "type": "function"
    }
  ],
  "bytecode": "0x608060405234801561001057600080fd5b506114c3806100206000396000f3fe608060405234801561001057600080fd5b50600436106101735760003560e01c8063715018a6116100de578063a9059cbb11610097578063d5abeb0111610071578063d5abeb011461033a578063dd62ed3e14610342578063e9e43f1f14610355578063f2fde38b1461037857600080fd5b8063a9059cbb14610301578063cc0df78614610314578063d1df306c1461032757600080fd5b8063715018a6146102bd5780638129fc1c146102c55780638da5cb5b146102cd57806395d89b41146102de5780639bed25d8146102e6578063a457c2d7146102ee57600080fd5b806324d7806c1161013057806324d7806c1461021e578063313ce5671461024a57806331ae450b14610259578063395093511461026e578063704b6c021461028157806370a082311461029457600080fd5b806306fdde0314610178578063095ea7b314610196578063111fd88b146101b95780631785f53c146101e457806318160ddd146101f957806323b872dd1461020b575b600080fd5b61018061038b565b60405161018d9190611334565b60405180910390f35b6101a96101a43660046112a6565b61041d565b604051901515815260200161018d565b6101cc6101c73660046112cf565b610435565b6040516001600160a01b03909116815260200161018d565b6101f76101f2366004611218565b6104bc565b005b6035545b60405190815260200161018d565b6101a961021936600461126b565b6104e5565b6101a961022c366004611218565b6001600160a01b031660009081526097602052604090205460ff1690565b6040516012815260200161018d565b610261610509565b60405161018d91906112e7565b6101a961027c3660046112a6565b61059a565b6101f761028f366004611218565b6105bc565b6101fd6102a2366004611218565b6001600160a01b031660009081526033602052604090205490565b6101f76106aa565b6101f76106be565b6065546001600160a01b03166101cc565b610180610890565b6101f761089f565b6101a96102fc3660046112a6565b6108e7565b6101a961030f3660046112a6565b610962565b6101f76103223660046112a6565b610970565b6101f76103353660046112a6565b610a21565b6099546101fd565b6101fd610350366004611239565b610a5a565b6101a9610363366004611218565b60976020526000908152604090205460ff1681565b6101f7610386366004611218565b610a85565b60606036805461039a90611421565b80601f01602080910402602001604051908101604052809291908181526020018280546103c690611421565b80156104135780601f106103e857610100808354040283529160200191610413565b820191906000526020600020905b8154815290600101906020018083116103f657829003601f168201915b5050505050905090565b60003361042b818585610afb565b5060019392505050565b3360009081526097602052604081205460ff1661046d5760405162461bcd60e51b815260040161046490611387565b60405180910390fd5b6098548210156104b3576098828154811061049857634e487b7160e01b600052603260045260246000fd5b6000918252602090912001546001600160a01b031692915050565b5060005b919050565b6104c4610c1f565b6001600160a01b03166000908152609760205260409020805460ff19169055565b6000336104f3858285610c79565b6104fe858585610cf3565b506001949350505050565b3360009081526097602052604090205460609060ff1661053b5760405162461bcd60e51b815260040161046490611387565b609880548060200260200160405190810160405280929190818152602001828054801561041357602002820191906000526020600020905b81546001600160a01b03168152600190910190602001808311610573575050505050905090565b60003361042b8185856105ad8383610a5a565b6105b79190611409565b610afb565b6105c4610c1f565b6001600160a01b0381166000908152609760205260408120805460ff19166001179055805b60985481101561065457826001600160a01b03166098828154811061061e57634e487b7160e01b600052603260045260246000fd5b6000918252602090912001546001600160a01b031614156106425760019150610654565b8061064c8161145c565b9150506105e9565b50806106a657609880546001810182556000919091527f2237a976fa961f5921fd19f2b03c925c725d77b20ce8f790c19709c03de4d8140180546001600160a01b0319166001600160a01b0384161790555b5050565b6106b2610c1f565b6106bc6000610e9e565b565b600054610100900460ff16158080156106de5750600054600160ff909116105b806106f85750303b1580156106f8575060005460ff166001145b61075b5760405162461bcd60e51b815260206004820152602e60248201527f496e697469616c697a61626c653a20636f6e747261637420697320616c72656160448201526d191e481a5b9a5d1a585b1a5e995960921b6064820152608401610464565b6000805460ff19166001179055801561077e576000805461ff0019166101001790555b6107923369d3c21bcecceda1000000610ef0565b6098805460018181019092557f2237a976fa961f5921fd19f2b03c925c725d77b20ce8f790c19709c03de4d8140180546001600160a01b03191633908117909155600090815260976020908152604091829020805460ff19169093179092556a084595161401484a000000609955805180820182526007815266424e554744414f60c81b8184015281518083019092526004825263424e554760e01b9282019290925261083f9190610fb1565b610847611004565b801561088d576000805461ff0019169055604051600181527f7f26b83ff96e1f2b6a682f133852f6798a09c465da95921460cefb38474024989060200160405180910390a15b50565b60606037805461039a90611421565b3360009081526097602052604090205460ff166108ce5760405162461bcd60e51b815260040161046490611387565b336000908152609760205260409020805460ff19169055565b600033816108f58286610a5a565b9050838110156109555760405162461bcd60e51b815260206004820152602560248201527f45524332303a2064656372656173656420616c6c6f77616e63652062656c6f77604482015264207a65726f60d81b6064820152608401610464565b6104fe8286868403610afb565b60003361042b818585610cf3565b3360009081526097602052604090205460ff1661099f5760405162461bcd60e51b815260040161046490611387565b609954816109ac60355490565b6109b69190611409565b1115610a175760405162461bcd60e51b815260206004820152602a60248201527f546f74616c20737570706c792063616e6e6f742065786365656564206d6178696044820152696d756d20737570706c7960b01b6064820152608401610464565b6106a68282610ef0565b3360009081526097602052604090205460ff16610a505760405162461bcd60e51b815260040161046490611387565b6106a68282611034565b6001600160a01b03918216600090815260346020908152604080832093909416825291909152205490565b610a8d610c1f565b6001600160a01b038116610af25760405162461bcd60e51b815260206004820152602660248201527f4f776e61626c653a206e6577206f776e657220697320746865207a65726f206160448201526564647265737360d01b6064820152608401610464565b61088d81610e9e565b6001600160a01b038316610b5d5760405162461bcd60e51b8152602060048201526024808201527f45524332303a20617070726f76652066726f6d20746865207a65726f206164646044820152637265737360e01b6064820152608401610464565b6001600160a01b038216610bbe5760405162461bcd60e51b815260206004820152602260248201527f45524332303a20617070726f766520746f20746865207a65726f206164647265604482015261737360f01b6064820152608401610464565b6001600160a01b0383811660008181526034602090815260408083209487168084529482529182902085905590518481527f8c5be1e5ebec7d5bd14f71427d1e84f3dd0314c0f7b2291e5b200ac8c7c3b925910160405180910390a3505050565b6065546001600160a01b031633146106bc5760405162461bcd60e51b815260206004820181905260248201527f4f776e61626c653a2063616c6c6572206973206e6f7420746865206f776e65726044820152606401610464565b6000610c858484610a5a565b90506000198114610ced5781811015610ce05760405162461bcd60e51b815260206004820152601d60248201527f45524332303a20696e73756666696369656e7420616c6c6f77616e63650000006044820152606401610464565b610ced8484848403610afb565b50505050565b6001600160a01b038316610d575760405162461bcd60e51b815260206004820152602560248201527f45524332303a207472616e736665722066726f6d20746865207a65726f206164604482015264647265737360d81b6064820152608401610464565b6001600160a01b038216610db95760405162461bcd60e51b815260206004820152602360248201527f45524332303a207472616e7366657220746f20746865207a65726f206164647260448201526265737360e81b6064820152608401610464565b6001600160a01b03831660009081526033602052604090205481811015610e315760405162461bcd60e51b815260206004820152602660248201527f45524332303a207472616e7366657220616d6f756e7420657863656564732062604482015265616c616e636560d01b6064820152608401610464565b6001600160a01b0380851660008181526033602052604080822086860390559286168082529083902080548601905591517fddf252ad1be2c89b69c2b068fc378daa952ba7f163c4a11628f55a4df523b3ef90610e919086815260200190565b60405180910390a3610ced565b606580546001600160a01b038381166001600160a01b0319831681179093556040519116919082907f8be0079c531659141344cd1fd0a4f28419497f9722a3daafe3b4186f6b6457e090600090a35050565b6001600160a01b038216610f465760405162461bcd60e51b815260206004820152601f60248201527f45524332303a206d696e7420746f20746865207a65726f2061646472657373006044820152606401610464565b8060356000828254610f589190611409565b90915550506001600160a01b0382166000818152603360209081526040808320805486019055518481527fddf252ad1be2c89b69c2b068fc378daa952ba7f163c4a11628f55a4df523b3ef910160405180910390a35050565b600054610100900460ff16610fd85760405162461bcd60e51b8152600401610464906113be565b8151610feb906036906020850190611168565b508051610fff906037906020840190611168565b505050565b600054610100900460ff1661102b5760405162461bcd60e51b8152600401610464906113be565b6106bc33610e9e565b6001600160a01b0382166110945760405162461bcd60e51b815260206004820152602160248201527f45524332303a206275726e2066726f6d20746865207a65726f206164647265736044820152607360f81b6064820152608401610464565b6001600160a01b038216600090815260336020526040902054818110156111085760405162461bcd60e51b815260206004820152602260248201527f45524332303a206275726e20616d6f756e7420657863656564732062616c616e604482015261636560f01b6064820152608401610464565b6001600160a01b03831660008181526033602090815260408083208686039055603580548790039055518581529192917fddf252ad1be2c89b69c2b068fc378daa952ba7f163c4a11628f55a4df523b3ef910160405180910390a3505050565b82805461117490611421565b90600052602060002090601f01602090048101928261119657600085556111dc565b82601f106111af57805160ff19168380011785556111dc565b828001600101855582156111dc579182015b828111156111dc5782518255916020019190600101906111c1565b506111e89291506111ec565b5090565b5b808211156111e857600081556001016111ed565b80356001600160a01b03811681146104b757600080fd5b600060208284031215611229578081fd5b61123282611201565b9392505050565b6000806040838503121561124b578081fd5b61125483611201565b915061126260208401611201565b90509250929050565b60008060006060848603121561127f578081fd5b61128884611201565b925061129660208501611201565b9150604084013590509250925092565b600080604083850312156112b8578182fd5b6112c183611201565b946020939093013593505050565b6000602082840312156112e0578081fd5b5035919050565b6020808252825182820181905260009190848201906040850190845b818110156113285783516001600160a01b031683529284019291840191600101611303565b50909695505050505050565b6000602080835283518082850152825b8181101561136057858101830151858201604001528201611344565b818111156113715783604083870101525b50601f01601f1916929092016040019392505050565b60208082526018908201527f4f6e6c792061646d696e2063616e2063616c6c20746869730000000000000000604082015260600190565b6020808252602b908201527f496e697469616c697a61626c653a20636f6e7472616374206973206e6f74206960408201526a6e697469616c697a696e6760a81b606082015260800190565b6000821982111561141c5761141c611477565b500190565b600181811c9082168061143557607f821691505b6020821081141561145657634e487b7160e01b600052602260045260246000fd5b50919050565b600060001982141561147057611470611477565b5060010190565b634e487b7160e01b600052601160045260246000fdfea264697066735822122099f374685ccd36fa8813249a1e6d897b6ccd8550ee56a647eb10e2ced3738c1d64736f6c63430008040033",
  "linkReferences": {},
  "deployedLinkReferences": {}
}