{
  "_format": "hh-sol-artifact-1",
  "contractName": "BNUGEvent",
  "sourceName": "contracts/BNUGEvent.sol",
  "abi": [
    {
      "inputs": [],
      "stateMutability": "nonpayable",
      "type": "constructor"
    },
    {
      "anonymous": false,
      "inputs": [
        {
          "indexed": true,
          "internalType": "address",
          "name": "account",
          "type": "address"
        },
        {
          "indexed": true,
          "internalType": "address",
          "name": "operator",
          "type": "address"
        },
        {
          "indexed": false,
          "internalType": "bool",
          "name": "approved",
          "type": "bool"
        }
      ],
      "name": "ApprovalForAll",
      "type": "event"
    },
    {
      "anonymous": false,
      "inputs": [
        {
          "indexed": false,
          "internalType": "uint8",
          "name": "version",
          "type": "uint8"
        }
      ],
      "name": "Initialized",
      "type": "event"
    },
    {
      "anonymous": false,
      "inputs": [
        {
          "indexed": true,
          "internalType": "address",
          "name": "previousOwner",
          "type": "address"
        },
        {
          "indexed": true,
          "internalType": "address",
          "name": "newOwner",
          "type": "address"
        }
      ],
      "name": "OwnershipTransferred",
      "type": "event"
    },
    {
      "anonymous": false,
      "inputs": [
        {
          "indexed": false,
          "internalType": "address",
          "name": "account",
          "type": "address"
        }
      ],
      "name": "Paused",
      "type": "event"
    },
    {
      "anonymous": false,
      "inputs": [
        {
          "indexed": true,
          "internalType": "address",
          "name": "operator",
          "type": "address"
        },
        {
          "indexed": true,
          "internalType": "address",
          "name": "from",
          "type": "address"
        },
        {
          "indexed": true,
          "internalType": "address",
          "name": "to",
          "type": "address"
        },
        {
          "indexed": false,
          "internalType": "uint256[]",
          "name": "ids",
          "type": "uint256[]"
        },
        {
          "indexed": false,
          "internalType": "uint256[]",
          "name": "values",
          "type": "uint256[]"
        }
      ],
      "name": "TransferBatch",
      "type": "event"
    },
    {
      "anonymous": false,
      "inputs": [
        {
          "indexed": true,
          "internalType": "address",
          "name": "operator",
          "type": "address"
        },
        {
          "indexed": true,
          "internalType": "address",
          "name": "from",
          "type": "address"
        },
        {
          "indexed": true,
          "internalType": "address",
          "name": "to",
          "type": "address"
        },
        {
          "indexed": false,
          "internalType": "uint256",
          "name": "id",
          "type": "uint256"
        },
        {
          "indexed": false,
          "internalType": "uint256",
          "name": "value",
          "type": "uint256"
        }
      ],
      "name": "TransferSingle",
      "type": "event"
    },
    {
      "anonymous": false,
      "inputs": [
        {
          "indexed": false,
          "internalType": "string",
          "name": "value",
          "type": "string"
        },
        {
          "indexed": true,
          "internalType": "uint256",
          "name": "id",
          "type": "uint256"
        }
      ],
      "name": "URI",
      "type": "event"
    },
    {
      "anonymous": false,
      "inputs": [
        {
          "indexed": false,
          "internalType": "address",
          "name": "account",
          "type": "address"
        }
      ],
      "name": "Unpaused",
      "type": "event"
    },
    {
      "inputs": [],
      "name": "DEVS",
      "outputs": [
        {
          "internalType": "uint256",
          "name": "",
          "type": "uint256"
        }
      ],
      "stateMutability": "view",
      "type": "function"
    },
    {
      "inputs": [],
      "name": "GENERAL",
      "outputs": [
        {
          "internalType": "uint256",
          "name": "",
          "type": "uint256"
        }
      ],
      "stateMutability": "view",
      "type": "function"
    },
    {
      "inputs": [],
      "name": "VIP",
      "outputs": [
        {
          "internalType": "uint256",
          "name": "",
          "type": "uint256"
        }
      ],
      "stateMutability": "view",
      "type": "function"
    },
    {
      "inputs": [
        {
          "internalType": "address",
          "name": "account",
          "type": "address"
        },
        {
          "internalType": "uint256",
          "name": "id",
          "type": "uint256"
        }
      ],
      "name": "balanceOf",
      "outputs": [
        {
          "internalType": "uint256",
          "name": "",
          "type": "uint256"
        }
      ],
      "stateMutability": "view",
      "type": "function"
    },
    {
      "inputs": [
        {
          "internalType": "address[]",
          "name": "accounts",
          "type": "address[]"
        },
        {
          "internalType": "uint256[]",
          "name": "ids",
          "type": "uint256[]"
        }
      ],
      "name": "balanceOfBatch",
      "outputs": [
        {
          "internalType": "uint256[]",
          "name": "",
          "type": "uint256[]"
        }
      ],
      "stateMutability": "view",
      "type": "function"
    },
    {
      "inputs": [],
      "name": "devs_fee",
      "outputs": [
        {
          "internalType": "uint256",
          "name": "",
          "type": "uint256"
        }
      ],
      "stateMutability": "view",
      "type": "function"
    },
    {
      "inputs": [
        {
          "internalType": "address payable",
          "name": "_recipient",
          "type": "address"
        },
        {
          "internalType": "uint256",
          "name": "_amount",
          "type": "uint256"
        }
      ],
      "name": "distributeFee",
      "outputs": [],
      "stateMutability": "nonpayable",
      "type": "function"
    },
    {
      "inputs": [
        {
          "internalType": "uint256",
          "name": "id",
          "type": "uint256"
        }
      ],
      "name": "exists",
      "outputs": [
        {
          "internalType": "bool",
          "name": "",
          "type": "bool"
        }
      ],
      "stateMutability": "view",
      "type": "function"
    },
    {
      "inputs": [],
      "name": "general_fee",
      "outputs": [
        {
          "internalType": "uint256",
          "name": "",
          "type": "uint256"
        }
      ],
      "stateMutability": "view",
      "type": "function"
    },
    {
      "inputs": [
        {
          "internalType": "uint8",
          "name": "id",
          "type": "uint8"
        }
      ],
      "name": "getFee",
      "outputs": [
        {
          "internalType": "uint256",
          "name": "",
          "type": "uint256"
        }
      ],
      "stateMutability": "view",
      "type": "function"
    },
    {
      "inputs": [],
      "name": "getbalance",
      "outputs": [
        {
          "internalType": "uint256",
          "name": "",
          "type": "uint256"
        }
      ],
      "stateMutability": "view",
      "type": "function"
    },
    {
      "inputs": [
        {
          "internalType": "string",
          "name": "uri_",
          "type": "string"
        }
      ],
      "name": "initialize",
      "outputs": [],
      "stateMutability": "nonpayable",
      "type": "function"
    },
    {
      "inputs": [
        {
          "internalType": "address",
          "name": "account",
          "type": "address"
        },
        {
          "internalType": "address",
          "name": "operator",
          "type": "address"
        }
      ],
      "name": "isApprovedForAll",
      "outputs": [
        {
          "internalType": "bool",
          "name": "",
          "type": "bool"
        }
      ],
      "stateMutability": "view",
      "type": "function"
    },
    {
      "inputs": [
        {
          "internalType": "uint8",
          "name": "id",
          "type": "uint8"
        },
        {
          "internalType": "uint256",
          "name": "amount",
          "type": "uint256"
        }
      ],
      "name": "mint",
      "outputs": [],
      "stateMutability": "payable",
      "type": "function"
    },
    {
      "inputs": [
        {
          "internalType": "address",
          "name": "to",
          "type": "address"
        },
        {
          "internalType": "uint256[]",
          "name": "ids",
          "type": "uint256[]"
        },
        {
          "internalType": "uint256[]",
          "name": "amounts",
          "type": "uint256[]"
        },
        {
          "internalType": "bytes",
          "name": "data",
          "type": "bytes"
        }
      ],
      "name": "mintBatch",
      "outputs": [],
      "stateMutability": "nonpayable",
      "type": "function"
    },
    {
      "inputs": [],
      "name": "name",
      "outputs": [
        {
          "internalType": "string",
          "name": "",
          "type": "string"
        }
      ],
      "stateMutability": "view",
      "type": "function"
    },
    {
      "inputs": [],
      "name": "owner",
      "outputs": [
        {
          "internalType": "address",
          "name": "",
          "type": "address"
        }
      ],
      "stateMutability": "view",
      "type": "function"
    },
    {
      "inputs": [],
      "name": "pause",
      "outputs": [],
      "stateMutability": "nonpayable",
      "type": "function"
    },
    {
      "inputs": [],
      "name": "paused",
      "outputs": [
        {
          "internalType": "bool",
          "name": "",
          "type": "bool"
        }
      ],
      "stateMutability": "view",
      "type": "function"
    },
    {
      "inputs": [],
      "name": "renounceOwnership",
      "outputs": [],
      "stateMutability": "nonpayable",
      "type": "function"
    },
    {
      "inputs": [
        {
          "internalType": "address",
          "name": "from",
          "type": "address"
        },
        {
          "internalType": "address",
          "name": "to",
          "type": "address"
        },
        {
          "internalType": "uint256[]",
          "name": "ids",
          "type": "uint256[]"
        },
        {
          "internalType": "uint256[]",
          "name": "amounts",
          "type": "uint256[]"
        },
        {
          "internalType": "bytes",
          "name": "data",
          "type": "bytes"
        }
      ],
      "name": "safeBatchTransferFrom",
      "outputs": [],
      "stateMutability": "nonpayable",
      "type": "function"
    },
    {
      "inputs": [
        {
          "internalType": "address",
          "name": "from",
          "type": "address"
        },
        {
          "internalType": "address",
          "name": "to",
          "type": "address"
        },
        {
          "internalType": "uint256",
          "name": "id",
          "type": "uint256"
        },
        {
          "internalType": "uint256",
          "name": "amount",
          "type": "uint256"
        },
        {
          "internalType": "bytes",
          "name": "data",
          "type": "bytes"
        }
      ],
      "name": "safeTransferFrom",
      "outputs": [],
      "stateMutability": "nonpayable",
      "type": "function"
    },
    {
      "inputs": [
        {
          "internalType": "address",
          "name": "operator",
          "type": "address"
        },
        {
          "internalType": "bool",
          "name": "approved",
          "type": "bool"
        }
      ],
      "name": "setApprovalForAll",
      "outputs": [],
      "stateMutability": "nonpayable",
      "type": "function"
    },
    {
      "inputs": [
        {
          "internalType": "uint8",
          "name": "id",
          "type": "uint8"
        },
        {
          "internalType": "uint256",
          "name": "new_fee",
          "type": "uint256"
        }
      ],
      "name": "setMintingFee",
      "outputs": [],
      "stateMutability": "nonpayable",
      "type": "function"
    },
    {
      "inputs": [
        {
          "internalType": "string",
          "name": "newuri",
          "type": "string"
        }
      ],
      "name": "setURI",
      "outputs": [],
      "stateMutability": "nonpayable",
      "type": "function"
    },
    {
      "inputs": [
        {
          "internalType": "bytes4",
          "name": "interfaceId",
          "type": "bytes4"
        }
      ],
      "name": "supportsInterface",
      "outputs": [
        {
          "internalType": "bool",
          "name": "",
          "type": "bool"
        }
      ],
      "stateMutability": "view",
      "type": "function"
    },
    {
      "inputs": [],
      "name": "symbol",
      "outputs": [
        {
          "internalType": "string",
          "name": "",
          "type": "string"
        }
      ],
      "stateMutability": "view",
      "type": "function"
    },
    {
      "inputs": [
        {
          "internalType": "uint256",
          "name": "id",
          "type": "uint256"
        }
      ],
      "name": "totalSupply",
      "outputs": [
        {
          "internalType": "uint256",
          "name": "",
          "type": "uint256"
        }
      ],
      "stateMutability": "view",
      "type": "function"
    },
    {
      "inputs": [
        {
          "internalType": "address",
          "name": "newOwner",
          "type": "address"
        }
      ],
      "name": "transferOwnership",
      "outputs": [],
      "stateMutability": "nonpayable",
      "type": "function"
    },
    {
      "inputs": [],
      "name": "unpause",
      "outputs": [],
      "stateMutability": "nonpayable",
      "type": "function"
    },
    {
      "inputs": [
        {
          "internalType": "uint256",
          "name": "tokenId",
          "type": "uint256"
        }
      ],
      "name": "uri",
      "outputs": [
        {
          "internalType": "string",
          "name": "",
          "type": "string"
        }
      ],
      "stateMutability": "view",
      "type": "function"
    },
    {
      "inputs": [],
      "name": "vip_fee",
      "outputs": [
        {
          "internalType": "uint256",
          "name": "",
          "type": "uint256"
        }
      ],
      "stateMutability": "view",
      "type": "function"
    }
  ],
  "bytecode": "0x60806040523480156200001157600080fd5b506200001c62000022565b620000e4565b600054610100900460ff16156200008f5760405162461bcd60e51b815260206004820152602760248201527f496e697469616c697a61626c653a20636f6e747261637420697320696e697469604482015266616c697a696e6760c81b606482015260840160405180910390fd5b60005460ff9081161015620000e2576000805460ff191660ff9081179091556040519081527f7f26b83ff96e1f2b6a682f133852f6798a09c465da95921460cefb38474024989060200160405180910390a15b565b612a2980620000f46000396000f3fe6080604052600436106101e25760003560e01c80635c975abb11610102578063a22cb46511610095578063f242432a11610064578063f242432a1461056d578063f26748e21461058d578063f2fde38b146105a0578063f62d1888146105c057600080fd5b8063a22cb465146104c0578063bd85b039146104e0578063d898a2f31461050d578063e985e9c51461052457600080fd5b80638456cb59116100d15780638456cb591461045957806389c5e4691461046e5780638da5cb5b1461048357806395d89b41146104ab57600080fd5b80635c975abb146103f557806360dc69051461040d578063715018a6146104245780637524c4ad1461043957600080fd5b806320d5c3fd1161017a578063448e520f11610149578063448e520f146103645780634d9b3d5d146103845780634e1273f4146103995780634f558e79146103c657600080fd5b806320d5c3fd14610303578063274c93fc1461031a5780632eb2c2d61461032f5780633f4ba83a1461034f57600080fd5b8063083132c4116101b6578063083132c41461028e5780630b8b41b8146102ae5780630e89341c146102c35780631f7fdffa146102e357600080fd5b8062fdd58e146101e757806301ffc9a71461021a57806302fe53051461024a57806306fdde031461026c575b600080fd5b3480156101f357600080fd5b50610207610202366004611e2f565b6105e0565b6040519081526020015b60405180910390f35b34801561022657600080fd5b5061023a610235366004611e71565b610678565b6040519015158152602001610211565b34801561025657600080fd5b5061026a610265366004611f36565b6106ca565b005b34801561027857600080fd5b506102816106f3565b6040516102119190611fdf565b34801561029a57600080fd5b506102076102a9366004612003565b610782565b3480156102ba57600080fd5b50610207600281565b3480156102cf57600080fd5b506102816102de36600461201e565b6107f9565b3480156102ef57600080fd5b5061026a6102fe3660046120ec565b61082e565b34801561030f57600080fd5b5061020761012d5481565b34801561032657600080fd5b50610207600081565b34801561033b57600080fd5b5061026a61034a366004612187565b610848565b34801561035b57600080fd5b5061026a610894565b34801561037057600080fd5b5061026a61037f366004611e2f565b6108a6565b34801561039057600080fd5b50610207610930565b3480156103a557600080fd5b506103b96103b4366004612235565b610940565b604051610211919061233d565b3480156103d257600080fd5b5061023a6103e136600461201e565b600090815260fb6020526040902054151590565b34801561040157600080fd5b5060c95460ff1661023a565b34801561041957600080fd5b5061020761012e5481565b34801561043057600080fd5b5061026a610a6a565b34801561044557600080fd5b5061026a610454366004612350565b610a7c565b34801561046557600080fd5b5061026a610af2565b34801561047a57600080fd5b50610207600181565b34801561048f57600080fd5b506097546040516001600160a01b039091168152602001610211565b3480156104b757600080fd5b50610281610b02565b3480156104cc57600080fd5b5061026a6104db36600461236c565b610b10565b3480156104ec57600080fd5b506102076104fb36600461201e565b600090815260fb602052604090205490565b34801561051957600080fd5b5061020761012f5481565b34801561053057600080fd5b5061023a61053f3660046123aa565b6001600160a01b03918216600090815260666020908152604080832093909416825291909152205460ff1690565b34801561057957600080fd5b5061026a6105883660046123d8565b610b1b565b61026a61059b366004612350565b610b60565b3480156105ac57600080fd5b5061026a6105bb366004612441565b610be8565b3480156105cc57600080fd5b5061026a6105db36600461245e565b610c5e565b60006001600160a01b0383166106505760405162461bcd60e51b815260206004820152602a60248201527f455243313135353a2061646472657373207a65726f206973206e6f742061207660448201526930b634b21037bbb732b960b11b60648201526084015b60405180910390fd5b5060009081526065602090815260408083206001600160a01b03949094168352929052205490565b60006001600160e01b03198216636cdb3d1360e11b14806106a957506001600160e01b031982166303a24d0760e21b145b806106c457506301ffc9a760e01b6001600160e01b03198316145b92915050565b6106d2610e5c565b80516106e690610132906020840190611d0d565b506106f081610eb6565b50565b6101308054610701906124d0565b80601f016020809104026020016040519081016040528092919081815260200182805461072d906124d0565b801561077a5780601f1061074f5761010080835404028352916020019161077a565b820191906000526020600020905b81548152906001019060200180831161075d57829003601f168201915b505050505081565b600060028260ff1611156107c55760405162461bcd60e51b815260206004820152600a602482015269125b9d985b1a59081a5960b21b6044820152606401610647565b60ff82166107d657505061012d5490565b8160ff16600114156107eb57505061012e5490565b505061012f5490565b919050565b606061013261080783610ec9565b604051602001610818929190612527565b6040516020818303038152906040529050919050565b610836610e5c565b61084284848484610f5e565b50505050565b6001600160a01b0385163314806108645750610864853361053f565b6108805760405162461bcd60e51b8152600401610647906125f2565b61088d85858585856110b9565b5050505050565b61089c610e5c565b6108a4611266565b565b6108ae610e5c565b804710156108f55760405162461bcd60e51b8152602060048201526014602482015273496e73756666696369656e742062616c616e636560601b6044820152606401610647565b6040516001600160a01b0383169082156108fc029083906000818181858888f1935050505015801561092b573d6000803e3d6000fd5b505050565b600061093a610e5c565b50475b90565b606081518351146109a55760405162461bcd60e51b815260206004820152602960248201527f455243313135353a206163636f756e747320616e6420696473206c656e677468604482015268040dad2e6dac2e8c6d60bb1b6064820152608401610647565b6000835167ffffffffffffffff8111156109c1576109c1611e95565b6040519080825280602002602001820160405280156109ea578160200160208202803683370190505b50905060005b8451811015610a6257610a35858281518110610a0e57610a0e612640565b6020026020010151858381518110610a2857610a28612640565b60200260200101516105e0565b828281518110610a4757610a47612640565b6020908102919091010152610a5b8161266c565b90506109f0565b509392505050565b610a72610e5c565b6108a460006112b8565b610a84610e5c565b60028260ff161115610ac55760405162461bcd60e51b815260206004820152600a602482015269125b9d985b1a59081a5960b21b6044820152606401610647565b60ff8216610ad45761012d5550565b8160ff1660011415610ae75761012e5550565b61012f8190555b5050565b610afa610e5c565b6108a461130a565b6101318054610701906124d0565b610aee338383611347565b6001600160a01b038516331480610b375750610b37853361053f565b610b535760405162461bcd60e51b8152600401610647906125f2565b61088d8585858585611428565b60ff8216610bca5780610b7283610782565b610b7c9190612687565b3414610bca5760405162461bcd60e51b815260206004820152601b60248201527f4572726f723a204d696e74696e672066656520726571756972656400000000006044820152606401610647565b610aee338360ff168360405180602001604052806000815250611564565b610bf0610e5c565b6001600160a01b038116610c555760405162461bcd60e51b815260206004820152602660248201527f4f776e61626c653a206e6577206f776e657220697320746865207a65726f206160448201526564647265737360d01b6064820152608401610647565b6106f0816112b8565b600054610100900460ff1615808015610c7e5750600054600160ff909116105b80610c985750303b158015610c98575060005460ff166001145b610cfb5760405162461bcd60e51b815260206004820152602e60248201527f496e697469616c697a61626c653a20636f6e747261637420697320616c72656160448201526d191e481a5b9a5d1a585b1a5e995960921b6064820152608401610647565b6000805460ff191660011790558015610d1e576000805461ff0019166101001790555b610d5d83838080601f01602080910402602001604051908101604052809392919081815260200183838082843760009201919091525061164f92505050565b610d6561167f565b610d6d6116ae565b610d756116dd565b671bc16d674ec8000061012d556802b5e3af16b188000061012e556801a055690d9db8000061012f5560408051808201909152600d8082526c10939551d11053c81155915395609a1b6020909201918252610dd39161013091611d0d565b5060408051808201909152600780825266424e554744414f60c81b6020909201918252610e039161013191611d0d565b50610e116101328484611d91565b50801561092b576000805461ff0019169055604051600181527f7f26b83ff96e1f2b6a682f133852f6798a09c465da95921460cefb38474024989060200160405180910390a1505050565b6097546001600160a01b031633146108a45760405162461bcd60e51b815260206004820181905260248201527f4f776e61626c653a2063616c6c6572206973206e6f7420746865206f776e65726044820152606401610647565b8051610aee906067906020840190611d0d565b60606000610ed683611704565b600101905060008167ffffffffffffffff811115610ef657610ef6611e95565b6040519080825280601f01601f191660200182016040528015610f20576020820181803683370190505b5090508181016020015b600019016f181899199a1a9b1b9c1cb0b131b232b360811b600a86061a8153600a8504945084610f5957610a62565b610f2a565b6001600160a01b038416610f845760405162461bcd60e51b8152600401610647906126a6565b8151835114610fa55760405162461bcd60e51b8152600401610647906126e7565b33610fb5816000878787876117dc565b60005b845181101561105157838181518110610fd357610fd3612640565b602002602001015160656000878481518110610ff157610ff1612640565b602002602001015181526020019081526020016000206000886001600160a01b03166001600160a01b031681526020019081526020016000206000828254611039919061272f565b909155508190506110498161266c565b915050610fb8565b50846001600160a01b031660006001600160a01b0316826001600160a01b03167f4a39dc06d4c0dbc64b70af90fd698a233a518aa5d07e595d983b8c0526c8f7fb87876040516110a2929190612747565b60405180910390a461088d816000878787876117f2565b81518351146110da5760405162461bcd60e51b8152600401610647906126e7565b6001600160a01b0384166111005760405162461bcd60e51b81526004016106479061276c565b3361110f8187878787876117dc565b60005b84518110156111f857600085828151811061112f5761112f612640565b60200260200101519050600085838151811061114d5761114d612640565b60209081029190910181015160008481526065835260408082206001600160a01b038e16835290935291909120549091508181101561119e5760405162461bcd60e51b8152600401610647906127b1565b60008381526065602090815260408083206001600160a01b038e8116855292528083208585039055908b168252812080548492906111dd90849061272f565b92505081905550505050806111f19061266c565b9050611112565b50846001600160a01b0316866001600160a01b0316826001600160a01b03167f4a39dc06d4c0dbc64b70af90fd698a233a518aa5d07e595d983b8c0526c8f7fb8787604051611248929190612747565b60405180910390a461125e8187878787876117f2565b505050505050565b61126e61195d565b60c9805460ff191690557f5db9ee0a495bf2e6ff9c91a7834c1ba4fdd244a5e8aa4e537bd38aeae4b073aa335b6040516001600160a01b03909116815260200160405180910390a1565b609780546001600160a01b038381166001600160a01b0319831681179093556040519116919082907f8be0079c531659141344cd1fd0a4f28419497f9722a3daafe3b4186f6b6457e090600090a35050565b6113126119a6565b60c9805460ff191660011790557f62e78cea01bee320cd4e420270b5ea74000d11b0c9f74754ebdbfc544b05a25861129b3390565b816001600160a01b0316836001600160a01b031614156113bb5760405162461bcd60e51b815260206004820152602960248201527f455243313135353a2073657474696e6720617070726f76616c20737461747573604482015268103337b91039b2b63360b91b6064820152608401610647565b6001600160a01b03838116600081815260666020908152604080832094871680845294825291829020805460ff191686151590811790915591519182527f17307eab39ab6107e8899845ad3d59bd9653f200f220920489ca2b5937696c31910160405180910390a3505050565b6001600160a01b03841661144e5760405162461bcd60e51b81526004016106479061276c565b33600061145a856119ec565b90506000611467856119ec565b90506114778389898585896117dc565b60008681526065602090815260408083206001600160a01b038c168452909152902054858110156114ba5760405162461bcd60e51b8152600401610647906127b1565b60008781526065602090815260408083206001600160a01b038d8116855292528083208985039055908a168252812080548892906114f990849061272f565b909155505060408051888152602081018890526001600160a01b03808b16928c821692918816917fc3d58168c5ae7397731d063d5bbf3d657854427343f4c083240f7aacaa2d0f62910160405180910390a4611559848a8a8a8a8a611a37565b505050505050505050565b6001600160a01b03841661158a5760405162461bcd60e51b8152600401610647906126a6565b336000611596856119ec565b905060006115a3856119ec565b90506115b4836000898585896117dc565b60008681526065602090815260408083206001600160a01b038b168452909152812080548792906115e690849061272f565b909155505060408051878152602081018790526001600160a01b03808a1692600092918716917fc3d58168c5ae7397731d063d5bbf3d657854427343f4c083240f7aacaa2d0f62910160405180910390a461164683600089898989611a37565b50505050505050565b600054610100900460ff166116765760405162461bcd60e51b8152600401610647906127fb565b6106f081611b01565b600054610100900460ff166116a65760405162461bcd60e51b8152600401610647906127fb565b6108a4611b31565b600054610100900460ff166116d55760405162461bcd60e51b8152600401610647906127fb565b6108a4611b61565b600054610100900460ff166108a45760405162461bcd60e51b8152600401610647906127fb565b60008072184f03e93ff9f4daa797ed6e38ed64bf6a1f0160401b83106117435772184f03e93ff9f4daa797ed6e38ed64bf6a1f0160401b830492506040015b6d04ee2d6d415b85acef8100000000831061176f576d04ee2d6d415b85acef8100000000830492506020015b662386f26fc10000831061178d57662386f26fc10000830492506010015b6305f5e10083106117a5576305f5e100830492506008015b61271083106117b957612710830492506004015b606483106117cb576064830492506002015b600a83106106c45760010192915050565b6117e46119a6565b61125e868686868686611b94565b6001600160a01b0384163b1561125e5760405163bc197c8160e01b81526001600160a01b0385169063bc197c81906118369089908990889088908890600401612846565b602060405180830381600087803b15801561185057600080fd5b505af1925050508015611880575060408051601f3d908101601f1916820190925261187d918101906128a4565b60015b61192d5761188c6128c1565b806308c379a014156118c657506118a16128dc565b806118ac57506118c8565b8060405162461bcd60e51b81526004016106479190611fdf565b505b60405162461bcd60e51b815260206004820152603460248201527f455243313135353a207472616e7366657220746f206e6f6e2d455243313135356044820152732932b1b2b4bb32b91034b6b83632b6b2b73a32b960611b6064820152608401610647565b6001600160e01b0319811663bc197c8160e01b146116465760405162461bcd60e51b815260040161064790612966565b60c95460ff166108a45760405162461bcd60e51b815260206004820152601460248201527314185d5cd8589b194e881b9bdd081c185d5cd95960621b6044820152606401610647565b60c95460ff16156108a45760405162461bcd60e51b815260206004820152601060248201526f14185d5cd8589b194e881c185d5cd95960821b6044820152606401610647565b60408051600180825281830190925260609160009190602080830190803683370190505090508281600081518110611a2657611a26612640565b602090810291909101015292915050565b6001600160a01b0384163b1561125e5760405163f23a6e6160e01b81526001600160a01b0385169063f23a6e6190611a7b90899089908890889088906004016129ae565b602060405180830381600087803b158015611a9557600080fd5b505af1925050508015611ac5575060408051601f3d908101601f19168201909252611ac2918101906128a4565b60015b611ad15761188c6128c1565b6001600160e01b0319811663f23a6e6160e01b146116465760405162461bcd60e51b815260040161064790612966565b600054610100900460ff16611b285760405162461bcd60e51b8152600401610647906127fb565b6106f081610eb6565b600054610100900460ff16611b585760405162461bcd60e51b8152600401610647906127fb565b6108a4336112b8565b600054610100900460ff16611b885760405162461bcd60e51b8152600401610647906127fb565b60c9805460ff19169055565b6001600160a01b038516611c1b5760005b8351811015611c1957828181518110611bc057611bc0612640565b602002602001015160fb6000868481518110611bde57611bde612640565b602002602001015181526020019081526020016000206000828254611c03919061272f565b90915550611c1290508161266c565b9050611ba5565b505b6001600160a01b03841661125e5760005b8351811015611646576000848281518110611c4957611c49612640565b602002602001015190506000848381518110611c6757611c67612640565b60200260200101519050600060fb600084815260200190815260200160002054905081811015611cea5760405162461bcd60e51b815260206004820152602860248201527f455243313135353a206275726e20616d6f756e74206578636565647320746f74604482015267616c537570706c7960c01b6064820152608401610647565b600092835260fb602052604090922091039055611d068161266c565b9050611c2c565b828054611d19906124d0565b90600052602060002090601f016020900481019282611d3b5760008555611d81565b82601f10611d5457805160ff1916838001178555611d81565b82800160010185558215611d81579182015b82811115611d81578251825591602001919060010190611d66565b50611d8d929150611e05565b5090565b828054611d9d906124d0565b90600052602060002090601f016020900481019282611dbf5760008555611d81565b82601f10611dd85782800160ff19823516178555611d81565b82800160010185558215611d81579182015b82811115611d81578235825591602001919060010190611dea565b5b80821115611d8d5760008155600101611e06565b6001600160a01b03811681146106f057600080fd5b60008060408385031215611e4257600080fd5b8235611e4d81611e1a565b946020939093013593505050565b6001600160e01b0319811681146106f057600080fd5b600060208284031215611e8357600080fd5b8135611e8e81611e5b565b9392505050565b634e487b7160e01b600052604160045260246000fd5b601f8201601f1916810167ffffffffffffffff81118282101715611ed157611ed1611e95565b6040525050565b600067ffffffffffffffff831115611ef257611ef2611e95565b604051611f09601f8501601f191660200182611eab565b809150838152848484011115611f1e57600080fd5b83836020830137600060208583010152509392505050565b600060208284031215611f4857600080fd5b813567ffffffffffffffff811115611f5f57600080fd5b8201601f81018413611f7057600080fd5b611f7f84823560208401611ed8565b949350505050565b60005b83811015611fa2578181015183820152602001611f8a565b838111156108425750506000910152565b60008151808452611fcb816020860160208601611f87565b601f01601f19169290920160200192915050565b602081526000611e8e6020830184611fb3565b803560ff811681146107f457600080fd5b60006020828403121561201557600080fd5b611e8e82611ff2565b60006020828403121561203057600080fd5b5035919050565b600067ffffffffffffffff82111561205157612051611e95565b5060051b60200190565b600082601f83011261206c57600080fd5b8135602061207982612037565b6040516120868282611eab565b83815260059390931b85018201928281019150868411156120a657600080fd5b8286015b848110156120c157803583529183019183016120aa565b509695505050505050565b600082601f8301126120dd57600080fd5b611e8e83833560208501611ed8565b6000806000806080858703121561210257600080fd5b843561210d81611e1a565b9350602085013567ffffffffffffffff8082111561212a57600080fd5b6121368883890161205b565b9450604087013591508082111561214c57600080fd5b6121588883890161205b565b9350606087013591508082111561216e57600080fd5b5061217b878288016120cc565b91505092959194509250565b600080600080600060a0868803121561219f57600080fd5b85356121aa81611e1a565b945060208601356121ba81611e1a565b9350604086013567ffffffffffffffff808211156121d757600080fd5b6121e389838a0161205b565b945060608801359150808211156121f957600080fd5b61220589838a0161205b565b9350608088013591508082111561221b57600080fd5b50612228888289016120cc565b9150509295509295909350565b6000806040838503121561224857600080fd5b823567ffffffffffffffff8082111561226057600080fd5b818501915085601f83011261227457600080fd5b8135602061228182612037565b60405161228e8282611eab565b83815260059390931b85018201928281019150898411156122ae57600080fd5b948201945b838610156122d55785356122c681611e1a565b825294820194908201906122b3565b965050860135925050808211156122eb57600080fd5b506122f88582860161205b565b9150509250929050565b600081518084526020808501945080840160005b8381101561233257815187529582019590820190600101612316565b509495945050505050565b602081526000611e8e6020830184612302565b6000806040838503121561236357600080fd5b611e4d83611ff2565b6000806040838503121561237f57600080fd5b823561238a81611e1a565b91506020830135801515811461239f57600080fd5b809150509250929050565b600080604083850312156123bd57600080fd5b82356123c881611e1a565b9150602083013561239f81611e1a565b600080600080600060a086880312156123f057600080fd5b85356123fb81611e1a565b9450602086013561240b81611e1a565b93506040860135925060608601359150608086013567ffffffffffffffff81111561243557600080fd5b612228888289016120cc565b60006020828403121561245357600080fd5b8135611e8e81611e1a565b6000806020838503121561247157600080fd5b823567ffffffffffffffff8082111561248957600080fd5b818501915085601f83011261249d57600080fd5b8135818111156124ac57600080fd5b8660208285010111156124be57600080fd5b60209290920196919550909350505050565b600181811c908216806124e457607f821691505b6020821081141561250557634e487b7160e01b600052602260045260246000fd5b50919050565b6000815161251d818560208601611f87565b9290920192915050565b600080845481600182811c91508083168061254357607f831692505b602080841082141561256357634e487b7160e01b86526022600452602486fd5b8180156125775760018114612588576125b5565b60ff198616895284890196506125b5565b60008b81526020902060005b868110156125ad5781548b820152908501908301612594565b505084890196505b5050505050506125e96125d86125d283602f60f81b815260010190565b8661250b565b64173539b7b760d91b815260050190565b95945050505050565b6020808252602e908201527f455243313135353a2063616c6c6572206973206e6f7420746f6b656e206f776e60408201526d195c881bdc88185c1c1c9bdd995960921b606082015260800190565b634e487b7160e01b600052603260045260246000fd5b634e487b7160e01b600052601160045260246000fd5b600060001982141561268057612680612656565b5060010190565b60008160001904831182151516156126a1576126a1612656565b500290565b60208082526021908201527f455243313135353a206d696e7420746f20746865207a65726f206164647265736040820152607360f81b606082015260800190565b60208082526028908201527f455243313135353a2069647320616e6420616d6f756e7473206c656e677468206040820152670dad2e6dac2e8c6d60c31b606082015260800190565b6000821982111561274257612742612656565b500190565b60408152600061275a6040830185612302565b82810360208401526125e98185612302565b60208082526025908201527f455243313135353a207472616e7366657220746f20746865207a65726f206164604082015264647265737360d81b606082015260800190565b6020808252602a908201527f455243313135353a20696e73756666696369656e742062616c616e636520666f60408201526939103a3930b739b332b960b11b606082015260800190565b6020808252602b908201527f496e697469616c697a61626c653a20636f6e7472616374206973206e6f74206960408201526a6e697469616c697a696e6760a81b606082015260800190565b6001600160a01b0386811682528516602082015260a06040820181905260009061287290830186612302565b82810360608401526128848186612302565b905082810360808401526128988185611fb3565b98975050505050505050565b6000602082840312156128b657600080fd5b8151611e8e81611e5b565b600060033d111561093d5760046000803e5060005160e01c90565b600060443d10156128ea5790565b6040516003193d81016004833e81513d67ffffffffffffffff816024840111818411171561291a57505050505090565b82850191508151818111156129325750505050505090565b843d870101602082850101111561294c5750505050505090565b61295b60208286010187611eab565b509095945050505050565b60208082526028908201527f455243313135353a204552433131353552656365697665722072656a656374656040820152676420746f6b656e7360c01b606082015260800190565b6001600160a01b03868116825285166020820152604081018490526060810183905260a0608082018190526000906129e890830184611fb3565b97965050505050505056fea26469706673582212208bb90997bb28268a0e1a10f2de868597cb5c78e949e8bf2c27cef6ba9628e2bc64736f6c63430008090033",
  "linkReferences": {},
  "deployedLinkReferences": {}
}