{
  "_format": "hh-sol-artifact-1",
  "contractName": "NFTMarketplace",
  "sourceName": "contracts/NFTMarketplace.sol",
  "abi": [
    {
      "anonymous": false,
      "inputs": [
        {
          "indexed": true,
          "internalType": "address",
          "name": "owner",
          "type": "address"
        },
        {
          "indexed": true,
          "internalType": "address",
          "name": "approved",
          "type": "address"
        },
        {
          "indexed": true,
          "internalType": "uint256",
          "name": "tokenId",
          "type": "uint256"
        }
      ],
      "name": "Approval",
      "type": "event"
    },
    {
      "anonymous": false,
      "inputs": [
        {
          "indexed": true,
          "internalType": "address",
          "name": "owner",
          "type": "address"
        },
        {
          "indexed": true,
          "internalType": "address",
          "name": "operator",
          "type": "address"
        },
        {
          "indexed": false,
          "internalType": "bool",
          "name": "approved",
          "type": "bool"
        }
      ],
      "name": "ApprovalForAll",
      "type": "event"
    },
    {
      "anonymous": false,
      "inputs": [
        {
          "indexed": false,
          "internalType": "uint8",
          "name": "version",
          "type": "uint8"
        }
      ],
      "name": "Initialized",
      "type": "event"
    },
    {
      "anonymous": false,
      "inputs": [
        {
          "indexed": true,
          "internalType": "uint256",
          "name": "tokenId",
          "type": "uint256"
        },
        {
          "indexed": false,
          "internalType": "address",
          "name": "seller",
          "type": "address"
        },
        {
          "indexed": false,
          "internalType": "address",
          "name": "owner",
          "type": "address"
        },
        {
          "indexed": false,
          "internalType": "uint256",
          "name": "price",
          "type": "uint256"
        },
        {
          "indexed": false,
          "internalType": "bool",
          "name": "sold",
          "type": "bool"
        }
      ],
      "name": "MarketItemCreated",
      "type": "event"
    },
    {
      "anonymous": false,
      "inputs": [
        {
          "indexed": true,
          "internalType": "address",
          "name": "previousOwner",
          "type": "address"
        },
        {
          "indexed": true,
          "internalType": "address",
          "name": "newOwner",
          "type": "address"
        }
      ],
      "name": "OwnershipTransferred",
      "type": "event"
    },
    {
      "anonymous": false,
      "inputs": [
        {
          "indexed": true,
          "internalType": "address",
          "name": "from",
          "type": "address"
        },
        {
          "indexed": true,
          "internalType": "address",
          "name": "to",
          "type": "address"
        },
        {
          "indexed": true,
          "internalType": "uint256",
          "name": "tokenId",
          "type": "uint256"
        }
      ],
      "name": "Transfer",
      "type": "event"
    },
    {
      "inputs": [
        {
          "internalType": "address",
          "name": "to",
          "type": "address"
        },
        {
          "internalType": "uint256",
          "name": "tokenId",
          "type": "uint256"
        }
      ],
      "name": "approve",
      "outputs": [],
      "stateMutability": "nonpayable",
      "type": "function"
    },
    {
      "inputs": [
        {
          "internalType": "address",
          "name": "owner",
          "type": "address"
        }
      ],
      "name": "balanceOf",
      "outputs": [
        {
          "internalType": "uint256",
          "name": "",
          "type": "uint256"
        }
      ],
      "stateMutability": "view",
      "type": "function"
    },
    {
      "inputs": [
        {
          "internalType": "address",
          "name": "referer",
          "type": "address"
        }
      ],
      "name": "connectUser",
      "outputs": [],
      "stateMutability": "nonpayable",
      "type": "function"
    },
    {
      "inputs": [
        {
          "internalType": "uint256",
          "name": "tokenId",
          "type": "uint256"
        }
      ],
      "name": "createMarketSale",
      "outputs": [],
      "stateMutability": "payable",
      "type": "function"
    },
    {
      "inputs": [
        {
          "internalType": "string",
          "name": "tokenURI",
          "type": "string"
        },
        {
          "internalType": "uint256",
          "name": "price",
          "type": "uint256"
        },
        {
          "internalType": "address",
          "name": "referer",
          "type": "address"
        }
      ],
      "name": "createToken",
      "outputs": [
        {
          "internalType": "uint256",
          "name": "",
          "type": "uint256"
        }
      ],
      "stateMutability": "payable",
      "type": "function"
    },
    {
      "inputs": [],
      "name": "fetchItemsListed",
      "outputs": [
        {
          "components": [
            {
              "internalType": "uint256",
              "name": "tokenId",
              "type": "uint256"
            },
            {
              "internalType": "address payable",
              "name": "seller",
              "type": "address"
            },
            {
              "internalType": "address payable",
              "name": "owner",
              "type": "address"
            },
            {
              "internalType": "uint256",
              "name": "price",
              "type": "uint256"
            },
            {
              "internalType": "bool",
              "name": "sold",
              "type": "bool"
            }
          ],
          "internalType": "struct NFTMarketplace.MarketItem[]",
          "name": "",
          "type": "tuple[]"
        }
      ],
      "stateMutability": "view",
      "type": "function"
    },
    {
      "inputs": [],
      "name": "fetchMarketItems",
      "outputs": [
        {
          "components": [
            {
              "internalType": "uint256",
              "name": "tokenId",
              "type": "uint256"
            },
            {
              "internalType": "address payable",
              "name": "seller",
              "type": "address"
            },
            {
              "internalType": "address payable",
              "name": "owner",
              "type": "address"
            },
            {
              "internalType": "uint256",
              "name": "price",
              "type": "uint256"
            },
            {
              "internalType": "bool",
              "name": "sold",
              "type": "bool"
            }
          ],
          "internalType": "struct NFTMarketplace.MarketItem[]",
          "name": "",
          "type": "tuple[]"
        }
      ],
      "stateMutability": "view",
      "type": "function"
    },
    {
      "inputs": [],
      "name": "fetchMyNFTs",
      "outputs": [
        {
          "components": [
            {
              "internalType": "uint256",
              "name": "tokenId",
              "type": "uint256"
            },
            {
              "internalType": "address payable",
              "name": "seller",
              "type": "address"
            },
            {
              "internalType": "address payable",
              "name": "owner",
              "type": "address"
            },
            {
              "internalType": "uint256",
              "name": "price",
              "type": "uint256"
            },
            {
              "internalType": "bool",
              "name": "sold",
              "type": "bool"
            }
          ],
          "internalType": "struct NFTMarketplace.MarketItem[]",
          "name": "",
          "type": "tuple[]"
        }
      ],
      "stateMutability": "view",
      "type": "function"
    },
    {
      "inputs": [],
      "name": "fetchRewards",
      "outputs": [
        {
          "components": [
            {
              "internalType": "address",
              "name": "from",
              "type": "address"
            },
            {
              "internalType": "uint256",
              "name": "amount",
              "type": "uint256"
            },
            {
              "internalType": "string",
              "name": "rewardType",
              "type": "string"
            }
          ],
          "internalType": "struct NFTMarketplace.Reward[]",
          "name": "",
          "type": "tuple[]"
        }
      ],
      "stateMutability": "view",
      "type": "function"
    },
    {
      "inputs": [],
      "name": "getAllUser",
      "outputs": [
        {
          "components": [
            {
              "internalType": "uint256",
              "name": "userId",
              "type": "uint256"
            },
            {
              "internalType": "address",
              "name": "userAddress",
              "type": "address"
            },
            {
              "internalType": "string",
              "name": "avatar",
              "type": "string"
            },
            {
              "internalType": "uint256",
              "name": "nftCount",
              "type": "uint256"
            },
            {
              "internalType": "address",
              "name": "referedBy",
              "type": "address"
            }
          ],
          "internalType": "struct NFTMarketplace.User[]",
          "name": "",
          "type": "tuple[]"
        }
      ],
      "stateMutability": "view",
      "type": "function"
    },
    {
      "inputs": [
        {
          "internalType": "uint256",
          "name": "tokenId",
          "type": "uint256"
        }
      ],
      "name": "getApproved",
      "outputs": [
        {
          "internalType": "address",
          "name": "",
          "type": "address"
        }
      ],
      "stateMutability": "view",
      "type": "function"
    },
    {
      "inputs": [],
      "name": "getListingPrice",
      "outputs": [
        {
          "internalType": "uint256",
          "name": "",
          "type": "uint256"
        }
      ],
      "stateMutability": "view",
      "type": "function"
    },
    {
      "inputs": [],
      "name": "getMintingReward",
      "outputs": [
        {
          "internalType": "uint256",
          "name": "reward",
          "type": "uint256"
        }
      ],
      "stateMutability": "view",
      "type": "function"
    },
    {
      "inputs": [
        {
          "internalType": "address",
          "name": "user",
          "type": "address"
        }
      ],
      "name": "getUser",
      "outputs": [
        {
          "components": [
            {
              "internalType": "uint256",
              "name": "userId",
              "type": "uint256"
            },
            {
              "internalType": "address",
              "name": "userAddress",
              "type": "address"
            },
            {
              "internalType": "string",
              "name": "avatar",
              "type": "string"
            },
            {
              "internalType": "uint256",
              "name": "nftCount",
              "type": "uint256"
            },
            {
              "internalType": "address",
              "name": "referedBy",
              "type": "address"
            }
          ],
          "internalType": "struct NFTMarketplace.User",
          "name": "",
          "type": "tuple"
        },
        {
          "components": [
            {
              "internalType": "address",
              "name": "from",
              "type": "address"
            },
            {
              "internalType": "uint256",
              "name": "amount",
              "type": "uint256"
            },
            {
              "internalType": "string",
              "name": "rewardType",
              "type": "string"
            }
          ],
          "internalType": "struct NFTMarketplace.Reward[]",
          "name": "",
          "type": "tuple[]"
        }
      ],
      "stateMutability": "view",
      "type": "function"
    },
    {
      "inputs": [
        {
          "internalType": "address",
          "name": "bnung_token",
          "type": "address"
        }
      ],
      "name": "intialize",
      "outputs": [],
      "stateMutability": "nonpayable",
      "type": "function"
    },
    {
      "inputs": [
        {
          "internalType": "address",
          "name": "owner",
          "type": "address"
        },
        {
          "internalType": "address",
          "name": "operator",
          "type": "address"
        }
      ],
      "name": "isApprovedForAll",
      "outputs": [
        {
          "internalType": "bool",
          "name": "",
          "type": "bool"
        }
      ],
      "stateMutability": "view",
      "type": "function"
    },
    {
      "inputs": [],
      "name": "name",
      "outputs": [
        {
          "internalType": "string",
          "name": "",
          "type": "string"
        }
      ],
      "stateMutability": "view",
      "type": "function"
    },
    {
      "inputs": [],
      "name": "owner",
      "outputs": [
        {
          "internalType": "address",
          "name": "",
          "type": "address"
        }
      ],
      "stateMutability": "view",
      "type": "function"
    },
    {
      "inputs": [
        {
          "internalType": "uint256",
          "name": "tokenId",
          "type": "uint256"
        }
      ],
      "name": "ownerOf",
      "outputs": [
        {
          "internalType": "address",
          "name": "",
          "type": "address"
        }
      ],
      "stateMutability": "view",
      "type": "function"
    },
    {
      "inputs": [],
      "name": "pauseMintingReward",
      "outputs": [],
      "stateMutability": "nonpayable",
      "type": "function"
    },
    {
      "inputs": [],
      "name": "renounceOwnership",
      "outputs": [],
      "stateMutability": "nonpayable",
      "type": "function"
    },
    {
      "inputs": [
        {
          "internalType": "uint256",
          "name": "tokenId",
          "type": "uint256"
        },
        {
          "internalType": "uint256",
          "name": "price",
          "type": "uint256"
        }
      ],
      "name": "resellToken",
      "outputs": [],
      "stateMutability": "payable",
      "type": "function"
    },
    {
      "inputs": [],
      "name": "resumeMintingReward",
      "outputs": [],
      "stateMutability": "nonpayable",
      "type": "function"
    },
    {
      "inputs": [
        {
          "internalType": "address",
          "name": "from",
          "type": "address"
        },
        {
          "internalType": "address",
          "name": "to",
          "type": "address"
        },
        {
          "internalType": "uint256",
          "name": "tokenId",
          "type": "uint256"
        }
      ],
      "name": "safeTransferFrom",
      "outputs": [],
      "stateMutability": "nonpayable",
      "type": "function"
    },
    {
      "inputs": [
        {
          "internalType": "address",
          "name": "from",
          "type": "address"
        },
        {
          "internalType": "address",
          "name": "to",
          "type": "address"
        },
        {
          "internalType": "uint256",
          "name": "tokenId",
          "type": "uint256"
        },
        {
          "internalType": "bytes",
          "name": "data",
          "type": "bytes"
        }
      ],
      "name": "safeTransferFrom",
      "outputs": [],
      "stateMutability": "nonpayable",
      "type": "function"
    },
    {
      "inputs": [
        {
          "internalType": "address",
          "name": "operator",
          "type": "address"
        },
        {
          "internalType": "bool",
          "name": "approved",
          "type": "bool"
        }
      ],
      "name": "setApprovalForAll",
      "outputs": [],
      "stateMutability": "nonpayable",
      "type": "function"
    },
    {
      "inputs": [
        {
          "internalType": "uint256",
          "name": "newMintingReward",
          "type": "uint256"
        }
      ],
      "name": "setMintingReward",
      "outputs": [],
      "stateMutability": "nonpayable",
      "type": "function"
    },
    {
      "inputs": [
        {
          "internalType": "bytes4",
          "name": "interfaceId",
          "type": "bytes4"
        }
      ],
      "name": "supportsInterface",
      "outputs": [
        {
          "internalType": "bool",
          "name": "",
          "type": "bool"
        }
      ],
      "stateMutability": "view",
      "type": "function"
    },
    {
      "inputs": [],
      "name": "symbol",
      "outputs": [
        {
          "internalType": "string",
          "name": "",
          "type": "string"
        }
      ],
      "stateMutability": "view",
      "type": "function"
    },
    {
      "inputs": [
        {
          "internalType": "uint256",
          "name": "tokenId",
          "type": "uint256"
        }
      ],
      "name": "tokenURI",
      "outputs": [
        {
          "internalType": "string",
          "name": "",
          "type": "string"
        }
      ],
      "stateMutability": "view",
      "type": "function"
    },
    {
      "inputs": [
        {
          "internalType": "address",
          "name": "from",
          "type": "address"
        },
        {
          "internalType": "address",
          "name": "to",
          "type": "address"
        },
        {
          "internalType": "uint256",
          "name": "tokenId",
          "type": "uint256"
        }
      ],
      "name": "transferFrom",
      "outputs": [],
      "stateMutability": "nonpayable",
      "type": "function"
    },
    {
      "inputs": [
        {
          "internalType": "address",
          "name": "newOwner",
          "type": "address"
        }
      ],
      "name": "transferOwnership",
      "outputs": [],
      "stateMutability": "nonpayable",
      "type": "function"
    },
    {
      "inputs": [
        {
          "internalType": "string",
          "name": "avatarUrl",
          "type": "string"
        }
      ],
      "name": "updateAvatar",
      "outputs": [],
      "stateMutability": "nonpayable",
      "type": "function"
    },
    {
      "inputs": [
        {
          "internalType": "address",
          "name": "bnug_token",
          "type": "address"
        }
      ],
      "name": "updateBNUGTokenAddress",
      "outputs": [],
      "stateMutability": "nonpayable",
      "type": "function"
    },
    {
      "inputs": [],
      "name": "updateInfiniteReward",
      "outputs": [],
      "stateMutability": "nonpayable",
      "type": "function"
    },
    {
      "inputs": [
        {
          "internalType": "uint256",
          "name": "_listingPrice",
          "type": "uint256"
        }
      ],
      "name": "updateListingPrice",
      "outputs": [],
      "stateMutability": "payable",
      "type": "function"
    },
    {
      "inputs": [
        {
          "internalType": "uint256",
          "name": "newReward",
          "type": "uint256"
        }
      ],
      "name": "updateReferReward",
      "outputs": [],
      "stateMutability": "nonpayable",
      "type": "function"
    }
  ],
  "bytecode": "0x608060405234801561001057600080fd5b506163cf80620000216000396000f3fe60806040526004361061021a5760003560e01c80636f77926b11610123578063a105fc6f116100ab578063c87b56dd1161006f578063c87b56dd1461075b578063e219fc7514610798578063e985e9c5146107b4578063ed21aa89146107f1578063f2fde38b1461081c5761021a565b8063a105fc6f146106ba578063a22cb465146106d1578063ae677aa3146106fa578063b88d4fde14610716578063be9af5361461073f5761021a565b80638da5cb5b116100f25780638da5cb5b146105e9578063935b5b821461061457806395d89b411461063d578063982f0d36146106685780639fe958b9146106915761021a565b80636f77926b1461052e57806370a082311461056c578063715018a6146105a957806382da338a146105c05761021a565b80631542bb95116101a6578063353298d811610175578063353298d81461044957806342842e0e1461047257806345f8fa801461049b57806347531df8146104c65780636352211e146104f15761021a565b80631542bb95146103ae578063202e3740146103de57806323b872dd146104095780632f5a0d81146104325761021a565b8063090564e9116101ed578063090564e9146102ed578063095ea7b3146103045780630f08efe01461032d5780630f1c1c641461035857806312e85585146103835761021a565b806301ffc9a71461021f57806306fdde031461025c57806307ef9c9b14610287578063081812fc146102b0575b600080fd5b34801561022b57600080fd5b5061024660048036038101906102419190614b26565b610845565b6040516102539190615589565b60405180910390f35b34801561026857600080fd5b50610271610927565b60405161027e91906155bf565b60405180910390f35b34801561029357600080fd5b506102ae60048036038101906102a99190614c20565b6109b9565b005b3480156102bc57600080fd5b506102d760048036038101906102d29190614c20565b6109cc565b6040516102e4919061544e565b60405180910390f35b3480156102f957600080fd5b50610302610a12565b005b34801561031057600080fd5b5061032b60048036038101906103269190614aea565b610a48565b005b34801561033957600080fd5b50610342610b60565b60405161034f9190615523565b60405180910390f35b34801561036457600080fd5b5061036d610e17565b60405161037a91906158f8565b60405180910390f35b34801561038f57600080fd5b50610398610e21565b6040516103a591906158f8565b60405180910390f35b6103c860048036038101906103c39190614bb9565b610e2b565b6040516103d591906158f8565b60405180910390f35b3480156103ea57600080fd5b506103f3610f60565b6040516104009190615523565b60405180910390f35b34801561041557600080fd5b50610430600480360381019061042b91906149e4565b61129d565b005b34801561043e57600080fd5b506104476112fd565b005b34801561045557600080fd5b50610470600480360381019061046b919061497f565b611323565b005b34801561047e57600080fd5b50610499600480360381019061049491906149e4565b611a52565b005b3480156104a757600080fd5b506104b0611a72565b6040516104bd9190615523565b60405180910390f35b3480156104d257600080fd5b506104db611daf565b6040516104e89190615567565b60405180910390f35b3480156104fd57600080fd5b5061051860048036038101906105139190614c20565b61201c565b604051610525919061544e565b60405180910390f35b34801561053a57600080fd5b506105556004803603810190610550919061497f565b6120a3565b6040516105639291906158c1565b60405180910390f35b34801561057857600080fd5b50610593600480360381019061058e919061497f565b6123e1565b6040516105a091906158f8565b60405180910390f35b3480156105b557600080fd5b506105be612499565b005b3480156105cc57600080fd5b506105e760048036038101906105e29190614c20565b6124ad565b005b3480156105f557600080fd5b506105fe612502565b60405161060b919061544e565b60405180910390f35b34801561062057600080fd5b5061063b6004803603810190610636919061497f565b61252c565b005b34801561064957600080fd5b506106526125e8565b60405161065f91906155bf565b60405180910390f35b34801561067457600080fd5b5061068f600480360381019061068a919061497f565b61267a565b005b34801561069d57600080fd5b506106b860048036038101906106b39190614b78565b6128d3565b005b3480156106c657600080fd5b506106cf61292e565b005b3480156106dd57600080fd5b506106f860048036038101906106f39190614aae565b612954565b005b610714600480360381019061070f9190614c20565b61296a565b005b34801561072257600080fd5b5061073d60048036038101906107389190614a33565b61297c565b005b61075960048036038101906107549190614c20565b6129de565b005b34801561076757600080fd5b50610782600480360381019061077d9190614c20565b612bb0565b60405161078f91906155bf565b60405180910390f35b6107b260048036038101906107ad9190614c49565b612cc3565b005b3480156107c057600080fd5b506107db60048036038101906107d691906149a8565b612ebd565b6040516107e89190615589565b60405180910390f35b3480156107fd57600080fd5b50610806612f51565b6040516108139190615545565b60405180910390f35b34801561082857600080fd5b50610843600480360381019061083e919061497f565b6130e0565b005b60007f80ac58cd000000000000000000000000000000000000000000000000000000007bffffffffffffffffffffffffffffffffffffffffffffffffffffffff1916827bffffffffffffffffffffffffffffffffffffffffffffffffffffffff1916148061091057507f5b5e139f000000000000000000000000000000000000000000000000000000007bffffffffffffffffffffffffffffffffffffffffffffffffffffffff1916827bffffffffffffffffffffffffffffffffffffffffffffffffffffffff1916145b80610920575061091f82613164565b5b9050919050565b60606065805461093690615c0a565b80601f016020809104026020016040519081016040528092919081815260200182805461096290615c0a565b80156109af5780601f10610984576101008083540402835291602001916109af565b820191906000526020600020905b81548152906001019060200180831161099257829003601f168201915b5050505050905090565b6109c16131ce565b806101038190555050565b60006109d78261324c565b6069600083815260200190815260200160002060009054906101000a900473ffffffffffffffffffffffffffffffffffffffff169050919050565b610a1a6131ce565b61010260009054906101000a900460ff161561010260006101000a81548160ff021916908315150217905550565b6000610a538261201c565b90508073ffffffffffffffffffffffffffffffffffffffff168373ffffffffffffffffffffffffffffffffffffffff161415610ac4576040517f08c379a0000000000000000000000000000000000000000000000000000000008152600401610abb90615801565b60405180910390fd5b8073ffffffffffffffffffffffffffffffffffffffff16610ae3613297565b73ffffffffffffffffffffffffffffffffffffffff161480610b125750610b1181610b0c613297565b612ebd565b5b610b51576040517f08c379a0000000000000000000000000000000000000000000000000000000008152600401610b4890615841565b60405180910390fd5b610b5b838361329f565b505050565b60606000610b6e60fb613358565b90506000610b7c60fc613358565b610b8660fb613358565b610b909190615aef565b90506000808267ffffffffffffffff811115610bd5577f4e487b7100000000000000000000000000000000000000000000000000000000600052604160045260246000fd5b604051908082528060200260200182016040528015610c0e57816020015b610bfb6146eb565b815260200190600190039081610bf35790505b50905060005b84811015610e0c573073ffffffffffffffffffffffffffffffffffffffff166101046000600184610c459190615a99565b815260200190815260200160002060020160009054906101000a900473ffffffffffffffffffffffffffffffffffffffff1673ffffffffffffffffffffffffffffffffffffffff161415610df9576000600182610ca29190615a99565b9050600061010460008381526020019081526020016000209050806040518060a0016040529081600082015481526020016001820160009054906101000a900473ffffffffffffffffffffffffffffffffffffffff1673ffffffffffffffffffffffffffffffffffffffff1673ffffffffffffffffffffffffffffffffffffffff1681526020016002820160009054906101000a900473ffffffffffffffffffffffffffffffffffffffff1673ffffffffffffffffffffffffffffffffffffffff1673ffffffffffffffffffffffffffffffffffffffff168152602001600382015481526020016004820160009054906101000a900460ff161515151581525050848681518110610ddc577f4e487b7100000000000000000000000000000000000000000000000000000000600052603260045260246000fd5b6020026020010181905250600185610df49190615a99565b945050505b8080610e0490615c6d565b915050610c14565b508094505050505090565b600060ff54905090565b600060fe54905090565b6000610e3760fb613366565b6000610e4360fb613358565b9050610e4f338261337c565b610e59818661359a565b610e63818561360e565b61010060009054906101000a900460ff16610f4c5760fd60009054906101000a900473ffffffffffffffffffffffffffffffffffffffff1673ffffffffffffffffffffffffffffffffffffffff1663cc0df7863360ff546040518363ffffffff1660e01b8152600401610ed79291906154fa565b600060405180830381600087803b158015610ef157600080fd5b505af1158015610f05573d6000803e3d6000fd5b50505050610f4b3360ff546040518060400160405280600e81526020017f6d696e74696e675f726577617264000000000000000000000000000000000000815250613862565b5b610f5583611323565b809150509392505050565b60606000610f6e60fb613358565b905060008060005b83811015611018573373ffffffffffffffffffffffffffffffffffffffff166101046000600184610fa79190615a99565b815260200190815260200160002060020160009054906101000a900473ffffffffffffffffffffffffffffffffffffffff1673ffffffffffffffffffffffffffffffffffffffff161415611005576001836110029190615a99565b92505b808061101090615c6d565b915050610f76565b5060008267ffffffffffffffff81111561105b577f4e487b7100000000000000000000000000000000000000000000000000000000600052604160045260246000fd5b60405190808252806020026020018201604052801561109457816020015b6110816146eb565b8152602001906001900390816110795790505b50905060005b84811015611292573373ffffffffffffffffffffffffffffffffffffffff1661010460006001846110cb9190615a99565b815260200190815260200160002060020160009054906101000a900473ffffffffffffffffffffffffffffffffffffffff1673ffffffffffffffffffffffffffffffffffffffff16141561127f5760006001826111289190615a99565b9050600061010460008381526020019081526020016000209050806040518060a0016040529081600082015481526020016001820160009054906101000a900473ffffffffffffffffffffffffffffffffffffffff1673ffffffffffffffffffffffffffffffffffffffff1673ffffffffffffffffffffffffffffffffffffffff1681526020016002820160009054906101000a900473ffffffffffffffffffffffffffffffffffffffff1673ffffffffffffffffffffffffffffffffffffffff1673ffffffffffffffffffffffffffffffffffffffff168152602001600382015481526020016004820160009054906101000a900460ff161515151581525050848681518110611262577f4e487b7100000000000000000000000000000000000000000000000000000000600052603260045260246000fd5b602002602001018190525060018561127a9190615a99565b945050505b808061128a90615c6d565b91505061109a565b508094505050505090565b6112ae6112a8613297565b82613971565b6112ed576040517f08c379a00000000000000000000000000000000000000000000000000000000081526004016112e4906155e1565b60405180910390fd5b6112f8838383613a06565b505050565b6113056131ce565b600061010060006101000a81548160ff021916908315150217905550565b600061010560003373ffffffffffffffffffffffffffffffffffffffff1673ffffffffffffffffffffffffffffffffffffffff168152602001908152602001600020600001541415611737576040518060a001604052806101016000815461138a90615c6d565b91905081905581526020013373ffffffffffffffffffffffffffffffffffffffff168152602001604051806020016040528060008152508152602001600181526020018273ffffffffffffffffffffffffffffffffffffffff1681525061010560003373ffffffffffffffffffffffffffffffffffffffff1673ffffffffffffffffffffffffffffffffffffffff1681526020019081526020016000206000820151816000015560208201518160010160006101000a81548173ffffffffffffffffffffffffffffffffffffffff021916908373ffffffffffffffffffffffffffffffffffffffff1602179055506040820151816002019080519060200190611494929190614748565b506060820151816003015560808201518160040160006101000a81548173ffffffffffffffffffffffffffffffffffffffff021916908373ffffffffffffffffffffffffffffffffffffffff1602179055509050506040518060a001604052806101015481526020013373ffffffffffffffffffffffffffffffffffffffff168152602001604051806020016040528060008152508152602001600181526020018273ffffffffffffffffffffffffffffffffffffffff1681525061010660006101015481526020019081526020016000206000820151816000015560208201518160010160006101000a81548173ffffffffffffffffffffffffffffffffffffffff021916908373ffffffffffffffffffffffffffffffffffffffff16021790555060408201518160020190805190602001906115d3929190614748565b506060820151816003015560808201518160040160006101000a81548173ffffffffffffffffffffffffffffffffffffffff021916908373ffffffffffffffffffffffffffffffffffffffff160217905550905050600073ffffffffffffffffffffffffffffffffffffffff168173ffffffffffffffffffffffffffffffffffffffff16146117325760fd60009054906101000a900473ffffffffffffffffffffffffffffffffffffffff1673ffffffffffffffffffffffffffffffffffffffff1663cc0df78682610103546040518363ffffffff1660e01b81526004016116bc9291906154fa565b600060405180830381600087803b1580156116d657600080fd5b505af11580156116ea573d6000803e3d6000fd5b5050505061173181610103546040518060400160405280601581526020017f726566657265725f6d696e7465725f7265776172640000000000000000000000815250613862565b5b611a4f565b61010560003373ffffffffffffffffffffffffffffffffffffffff1673ffffffffffffffffffffffffffffffffffffffff168152602001908152602001600020600301600081548092919061178b90615c6d565b9190505550610106600061010560003373ffffffffffffffffffffffffffffffffffffffff1673ffffffffffffffffffffffffffffffffffffffff16815260200190815260200160002060000154815260200190815260200160002060030160008154809291906117fb90615c6d565b919050555061010260009054906101000a900460ff1680156118ad5750600073ffffffffffffffffffffffffffffffffffffffff1661010560003373ffffffffffffffffffffffffffffffffffffffff1673ffffffffffffffffffffffffffffffffffffffff16815260200190815260200160002060040160009054906101000a900473ffffffffffffffffffffffffffffffffffffffff1673ffffffffffffffffffffffffffffffffffffffff1614155b15611a4e5760fd60009054906101000a900473ffffffffffffffffffffffffffffffffffffffff1673ffffffffffffffffffffffffffffffffffffffff1663cc0df78661010560003373ffffffffffffffffffffffffffffffffffffffff1673ffffffffffffffffffffffffffffffffffffffff16815260200190815260200160002060040160009054906101000a900473ffffffffffffffffffffffffffffffffffffffff16610103546040518363ffffffff1660e01b81526004016119759291906154fa565b600060405180830381600087803b15801561198f57600080fd5b505af11580156119a3573d6000803e3d6000fd5b50505050611a4d61010560003373ffffffffffffffffffffffffffffffffffffffff1673ffffffffffffffffffffffffffffffffffffffff16815260200190815260200160002060040160009054906101000a900473ffffffffffffffffffffffffffffffffffffffff16610103546040518060400160405280601581526020017f726566657265725f6d696e7465725f7265776172640000000000000000000000815250613862565b5b5b50565b611a6d8383836040518060200160405280600081525061297c565b505050565b60606000611a8060fb613358565b905060008060005b83811015611b2a573373ffffffffffffffffffffffffffffffffffffffff166101046000600184611ab99190615a99565b815260200190815260200160002060010160009054906101000a900473ffffffffffffffffffffffffffffffffffffffff1673ffffffffffffffffffffffffffffffffffffffff161415611b1757600183611b149190615a99565b92505b8080611b2290615c6d565b915050611a88565b5060008267ffffffffffffffff811115611b6d577f4e487b7100000000000000000000000000000000000000000000000000000000600052604160045260246000fd5b604051908082528060200260200182016040528015611ba657816020015b611b936146eb565b815260200190600190039081611b8b5790505b50905060005b84811015611da4573373ffffffffffffffffffffffffffffffffffffffff166101046000600184611bdd9190615a99565b815260200190815260200160002060010160009054906101000a900473ffffffffffffffffffffffffffffffffffffffff1673ffffffffffffffffffffffffffffffffffffffff161415611d91576000600182611c3a9190615a99565b9050600061010460008381526020019081526020016000209050806040518060a0016040529081600082015481526020016001820160009054906101000a900473ffffffffffffffffffffffffffffffffffffffff1673ffffffffffffffffffffffffffffffffffffffff1673ffffffffffffffffffffffffffffffffffffffff1681526020016002820160009054906101000a900473ffffffffffffffffffffffffffffffffffffffff1673ffffffffffffffffffffffffffffffffffffffff1673ffffffffffffffffffffffffffffffffffffffff168152602001600382015481526020016004820160009054906101000a900460ff161515151581525050848681518110611d74577f4e487b7100000000000000000000000000000000000000000000000000000000600052603260045260246000fd5b6020026020010181905250600185611d8c9190615a99565b945050505b8080611d9c90615c6d565b915050611bac565b508094505050505090565b606060006101015467ffffffffffffffff811115611df6577f4e487b7100000000000000000000000000000000000000000000000000000000600052604160045260246000fd5b604051908082528060200260200182016040528015611e2f57816020015b611e1c6147ce565b815260200190600190039081611e145790505b50905060005b61010154811015612014576101066000600183611e529190615a99565b81526020019081526020016000206040518060a0016040529081600082015481526020016001820160009054906101000a900473ffffffffffffffffffffffffffffffffffffffff1673ffffffffffffffffffffffffffffffffffffffff1673ffffffffffffffffffffffffffffffffffffffff168152602001600282018054611edb90615c0a565b80601f0160208091040260200160405190810160405280929190818152602001828054611f0790615c0a565b8015611f545780601f10611f2957610100808354040283529160200191611f54565b820191906000526020600020905b815481529060010190602001808311611f3757829003601f168201915b50505050508152602001600382015481526020016004820160009054906101000a900473ffffffffffffffffffffffffffffffffffffffff1673ffffffffffffffffffffffffffffffffffffffff1673ffffffffffffffffffffffffffffffffffffffff1681525050828281518110611ff6577f4e487b7100000000000000000000000000000000000000000000000000000000600052603260045260246000fd5b6020026020010181905250808061200c90615c6d565b915050611e35565b508091505090565b60008061202883613d00565b9050600073ffffffffffffffffffffffffffffffffffffffff168173ffffffffffffffffffffffffffffffffffffffff16141561209a576040517f08c379a0000000000000000000000000000000000000000000000000000000008152600401612091906157e1565b60405180910390fd5b80915050919050565b6120ab6147ce565b606061010560008473ffffffffffffffffffffffffffffffffffffffff1673ffffffffffffffffffffffffffffffffffffffff16815260200190815260200160002061010760008573ffffffffffffffffffffffffffffffffffffffff1673ffffffffffffffffffffffffffffffffffffffff168152602001908152602001600020816040518060a0016040529081600082015481526020016001820160009054906101000a900473ffffffffffffffffffffffffffffffffffffffff1673ffffffffffffffffffffffffffffffffffffffff1673ffffffffffffffffffffffffffffffffffffffff1681526020016002820180546121a990615c0a565b80601f01602080910402602001604051908101604052809291908181526020018280546121d590615c0a565b80156122225780601f106121f757610100808354040283529160200191612222565b820191906000526020600020905b81548152906001019060200180831161220557829003601f168201915b50505050508152602001600382015481526020016004820160009054906101000a900473ffffffffffffffffffffffffffffffffffffffff1673ffffffffffffffffffffffffffffffffffffffff1673ffffffffffffffffffffffffffffffffffffffff1681525050915080805480602002602001604051908101604052809291908181526020016000905b828210156123d257838290600052602060002090600302016040518060600160405290816000820160009054906101000a900473ffffffffffffffffffffffffffffffffffffffff1673ffffffffffffffffffffffffffffffffffffffff1673ffffffffffffffffffffffffffffffffffffffff1681526020016001820154815260200160028201805461234190615c0a565b80601f016020809104026020016040519081016040528092919081815260200182805461236d90615c0a565b80156123ba5780601f1061238f576101008083540402835291602001916123ba565b820191906000526020600020905b81548152906001019060200180831161239d57829003601f168201915b505050505081525050815260200190600101906122ae565b50505050905091509150915091565b60008073ffffffffffffffffffffffffffffffffffffffff168273ffffffffffffffffffffffffffffffffffffffff161415612452576040517f08c379a000000000000000000000000000000000000000000000000000000000815260040161244990615701565b60405180910390fd5b606860008373ffffffffffffffffffffffffffffffffffffffff1673ffffffffffffffffffffffffffffffffffffffff168152602001908152602001600020549050919050565b6124a16131ce565b6124ab6000613d3d565b565b6124b56131ce565b600081116124f8576040517f08c379a00000000000000000000000000000000000000000000000000000000081526004016124ef906156e1565b60405180910390fd5b8060ff8190555050565b600060c960009054906101000a900473ffffffffffffffffffffffffffffffffffffffff16905090565b6125346131ce565b600073ffffffffffffffffffffffffffffffffffffffff168173ffffffffffffffffffffffffffffffffffffffff1614156125a4576040517f08c379a000000000000000000000000000000000000000000000000000000000815260040161259b90615861565b60405180910390fd5b8060fd60006101000a81548173ffffffffffffffffffffffffffffffffffffffff021916908373ffffffffffffffffffffffffffffffffffffffff16021790555050565b6060606680546125f790615c0a565b80601f016020809104026020016040519081016040528092919081815260200182805461262390615c0a565b80156126705780601f1061264557610100808354040283529160200191612670565b820191906000526020600020905b81548152906001019060200180831161265357829003601f168201915b5050505050905090565b60008060019054906101000a900460ff161590508080156126ab5750600160008054906101000a900460ff1660ff16105b806126d857506126ba30613e03565b1580156126d75750600160008054906101000a900460ff1660ff16145b5b612717576040517f08c379a000000000000000000000000000000000000000000000000000000000815260040161270e90615741565b60405180910390fd5b60016000806101000a81548160ff021916908360ff1602179055508015612754576001600060016101000a81548160ff0219169083151502179055505b8160fd60006101000a81548173ffffffffffffffffffffffffffffffffffffffff021916908373ffffffffffffffffffffffffffffffffffffffff1602179055506128096040518060400160405280600981526020017f4e656772697475646500000000000000000000000000000000000000000000008152506040518060400160405280600381526020017f4e45470000000000000000000000000000000000000000000000000000000000815250613e26565b612811613ea7565b6658d15e1762800060fe81905550678ac7230489e8000060ff81905550600061010060006101000a81548160ff021916908315150217905550600061010260006101000a81548160ff021916908315150217905550674563918244f400006101038190555080156128cf5760008060016101000a81548160ff0219169083151502179055507f7f26b83ff96e1f2b6a682f133852f6798a09c465da95921460cefb384740249860016040516128c691906155a4565b60405180910390a15b5050565b8061010560003373ffffffffffffffffffffffffffffffffffffffff1673ffffffffffffffffffffffffffffffffffffffff168152602001908152602001600020600201908051906020019061292a929190614748565b5050565b6129366131ce565b600161010060006101000a81548160ff021916908315150217905550565b61296661295f613297565b8383613f08565b5050565b6129726131ce565b8060fe8190555050565b61298d612987613297565b83613971565b6129cc576040517f08c379a00000000000000000000000000000000000000000000000000000000081526004016129c3906155e1565b60405180910390fd5b6129d884848484614075565b50505050565b60006101046000838152602001908152602001600020600301549050803414612a3c576040517f08c379a0000000000000000000000000000000000000000000000000000000008152600401612a3390615761565b60405180910390fd5b33610104600084815260200190815260200160002060020160006101000a81548173ffffffffffffffffffffffffffffffffffffffff021916908373ffffffffffffffffffffffffffffffffffffffff1602179055506001610104600084815260200190815260200160002060040160006101000a81548160ff0219169083151502179055506000610104600084815260200190815260200160002060010160006101000a81548173ffffffffffffffffffffffffffffffffffffffff021916908373ffffffffffffffffffffffffffffffffffffffff160217905550612b2360fc613366565b612b2e303384613a06565b610104600083815260200190815260200160002060010160009054906101000a900473ffffffffffffffffffffffffffffffffffffffff1673ffffffffffffffffffffffffffffffffffffffff166108fc349081150290604051600060405180830381858888f19350505050158015612bab573d6000803e3d6000fd5b505050565b6060612bbb8261324c565b6000609760008481526020019081526020016000208054612bdb90615c0a565b80601f0160208091040260200160405190810160405280929190818152602001828054612c0790615c0a565b8015612c545780601f10612c2957610100808354040283529160200191612c54565b820191906000526020600020905b815481529060010190602001808311612c3757829003601f168201915b505050505090506000612c656140d1565b9050600081511415612c7b578192505050612cbe565b600082511115612cb0578082604051602001612c9892919061542a565b60405160208183030381529060405292505050612cbe565b612cb9846140e8565b925050505b919050565b3373ffffffffffffffffffffffffffffffffffffffff16610104600084815260200190815260200160002060020160009054906101000a900473ffffffffffffffffffffffffffffffffffffffff1673ffffffffffffffffffffffffffffffffffffffff1614612d68576040517f08c379a0000000000000000000000000000000000000000000000000000000008152600401612d5f906157a1565b60405180910390fd5b60fe543414612dac576040517f08c379a0000000000000000000000000000000000000000000000000000000008152600401612da390615821565b60405180910390fd5b6000610104600084815260200190815260200160002060040160006101000a81548160ff0219169083151502179055508061010460008481526020019081526020016000206003018190555033610104600084815260200190815260200160002060010160006101000a81548173ffffffffffffffffffffffffffffffffffffffff021916908373ffffffffffffffffffffffffffffffffffffffff16021790555030610104600084815260200190815260200160002060020160006101000a81548173ffffffffffffffffffffffffffffffffffffffff021916908373ffffffffffffffffffffffffffffffffffffffff160217905550612eae60fc614150565b612eb9333084613a06565b5050565b6000606a60008473ffffffffffffffffffffffffffffffffffffffff1673ffffffffffffffffffffffffffffffffffffffff16815260200190815260200160002060008373ffffffffffffffffffffffffffffffffffffffff1673ffffffffffffffffffffffffffffffffffffffff16815260200190815260200160002060009054906101000a900460ff16905092915050565b606061010760003373ffffffffffffffffffffffffffffffffffffffff1673ffffffffffffffffffffffffffffffffffffffff168152602001908152602001600020805480602002602001604051908101604052809291908181526020016000905b828210156130d757838290600052602060002090600302016040518060600160405290816000820160009054906101000a900473ffffffffffffffffffffffffffffffffffffffff1673ffffffffffffffffffffffffffffffffffffffff1673ffffffffffffffffffffffffffffffffffffffff1681526020016001820154815260200160028201805461304690615c0a565b80601f016020809104026020016040519081016040528092919081815260200182805461307290615c0a565b80156130bf5780601f10613094576101008083540402835291602001916130bf565b820191906000526020600020905b8154815290600101906020018083116130a257829003601f168201915b50505050508152505081526020019060010190612fb3565b50505050905090565b6130e86131ce565b600073ffffffffffffffffffffffffffffffffffffffff168173ffffffffffffffffffffffffffffffffffffffff161415613158576040517f08c379a000000000000000000000000000000000000000000000000000000000815260040161314f90615641565b60405180910390fd5b61316181613d3d565b50565b60007f01ffc9a7000000000000000000000000000000000000000000000000000000007bffffffffffffffffffffffffffffffffffffffffffffffffffffffff1916827bffffffffffffffffffffffffffffffffffffffffffffffffffffffff1916149050919050565b6131d6613297565b73ffffffffffffffffffffffffffffffffffffffff166131f4612502565b73ffffffffffffffffffffffffffffffffffffffff161461324a576040517f08c379a0000000000000000000000000000000000000000000000000000000008152600401613241906157c1565b60405180910390fd5b565b613255816141ac565b613294576040517f08c379a000000000000000000000000000000000000000000000000000000000815260040161328b906157e1565b60405180910390fd5b50565b600033905090565b816069600083815260200190815260200160002060006101000a81548173ffffffffffffffffffffffffffffffffffffffff021916908373ffffffffffffffffffffffffffffffffffffffff160217905550808273ffffffffffffffffffffffffffffffffffffffff166133128361201c565b73ffffffffffffffffffffffffffffffffffffffff167f8c5be1e5ebec7d5bd14f71427d1e84f3dd0314c0f7b2291e5b200ac8c7c3b92560405160405180910390a45050565b600081600001549050919050565b6001816000016000828254019250508190555050565b600073ffffffffffffffffffffffffffffffffffffffff168273ffffffffffffffffffffffffffffffffffffffff1614156133ec576040517f08c379a00000000000000000000000000000000000000000000000000000000081526004016133e390615781565b60405180910390fd5b6133f5816141ac565b15613435576040517f08c379a000000000000000000000000000000000000000000000000000000000815260040161342c90615681565b60405180910390fd5b6134436000838360016141ed565b61344c816141ac565b1561348c576040517f08c379a000000000000000000000000000000000000000000000000000000000815260040161348390615681565b60405180910390fd5b6001606860008473ffffffffffffffffffffffffffffffffffffffff1673ffffffffffffffffffffffffffffffffffffffff16815260200190815260200160002060008282540192505081905550816067600083815260200190815260200160002060006101000a81548173ffffffffffffffffffffffffffffffffffffffff021916908373ffffffffffffffffffffffffffffffffffffffff160217905550808273ffffffffffffffffffffffffffffffffffffffff16600073ffffffffffffffffffffffffffffffffffffffff167fddf252ad1be2c89b69c2b068fc378daa952ba7f163c4a11628f55a4df523b3ef60405160405180910390a46135966000838360016141f3565b5050565b6135a3826141ac565b6135e2576040517f08c379a00000000000000000000000000000000000000000000000000000000081526004016135d990615721565b60405180910390fd5b80609760008481526020019081526020016000209080519060200190613609929190614748565b505050565b60008111613651576040517f08c379a0000000000000000000000000000000000000000000000000000000008152600401613648906158a1565b60405180910390fd5b60fe543414613695576040517f08c379a000000000000000000000000000000000000000000000000000000000815260040161368c90615821565b60405180910390fd5b6040518060a001604052808381526020013373ffffffffffffffffffffffffffffffffffffffff1681526020013073ffffffffffffffffffffffffffffffffffffffff1681526020018281526020016000151581525061010460008481526020019081526020016000206000820151816000015560208201518160010160006101000a81548173ffffffffffffffffffffffffffffffffffffffff021916908373ffffffffffffffffffffffffffffffffffffffff16021790555060408201518160020160006101000a81548173ffffffffffffffffffffffffffffffffffffffff021916908373ffffffffffffffffffffffffffffffffffffffff1602179055506060820151816003015560808201518160040160006101000a81548160ff0219169083151502179055509050506137cf333084613a06565b6137d7612502565b73ffffffffffffffffffffffffffffffffffffffff166108fc60fe549081150290604051600060405180830381858888f1935050505015801561381e573d6000803e3d6000fd5b50817fb640004f1d14576d0c209e240cad0410e0d8c0c33a09375861fbadae2588a98d33308460006040516138569493929190615469565b60405180910390a25050565b61010760008473ffffffffffffffffffffffffffffffffffffffff1673ffffffffffffffffffffffffffffffffffffffff16815260200190815260200160002060405180606001604052803373ffffffffffffffffffffffffffffffffffffffff16815260200184815260200183815250908060018154018082558091505060019003906000526020600020906003020160009091909190915060008201518160000160006101000a81548173ffffffffffffffffffffffffffffffffffffffff021916908373ffffffffffffffffffffffffffffffffffffffff160217905550602082015181600101556040820151816002019080519060200190613969929190614748565b505050505050565b60008061397d8361201c565b90508073ffffffffffffffffffffffffffffffffffffffff168473ffffffffffffffffffffffffffffffffffffffff1614806139bf57506139be8185612ebd565b5b806139fd57508373ffffffffffffffffffffffffffffffffffffffff166139e5846109cc565b73ffffffffffffffffffffffffffffffffffffffff16145b91505092915050565b8273ffffffffffffffffffffffffffffffffffffffff16613a268261201c565b73ffffffffffffffffffffffffffffffffffffffff1614613a7c576040517f08c379a0000000000000000000000000000000000000000000000000000000008152600401613a7390615661565b60405180910390fd5b600073ffffffffffffffffffffffffffffffffffffffff168273ffffffffffffffffffffffffffffffffffffffff161415613aec576040517f08c379a0000000000000000000000000000000000000000000000000000000008152600401613ae3906156a1565b60405180910390fd5b613af983838360016141ed565b8273ffffffffffffffffffffffffffffffffffffffff16613b198261201c565b73ffffffffffffffffffffffffffffffffffffffff1614613b6f576040517f08c379a0000000000000000000000000000000000000000000000000000000008152600401613b6690615661565b60405180910390fd5b6069600082815260200190815260200160002060006101000a81549073ffffffffffffffffffffffffffffffffffffffff02191690556001606860008573ffffffffffffffffffffffffffffffffffffffff1673ffffffffffffffffffffffffffffffffffffffff168152602001908152602001600020600082825403925050819055506001606860008473ffffffffffffffffffffffffffffffffffffffff1673ffffffffffffffffffffffffffffffffffffffff16815260200190815260200160002060008282540192505081905550816067600083815260200190815260200160002060006101000a81548173ffffffffffffffffffffffffffffffffffffffff021916908373ffffffffffffffffffffffffffffffffffffffff160217905550808273ffffffffffffffffffffffffffffffffffffffff168473ffffffffffffffffffffffffffffffffffffffff167fddf252ad1be2c89b69c2b068fc378daa952ba7f163c4a11628f55a4df523b3ef60405160405180910390a4613cfb83838360016141f3565b505050565b60006067600083815260200190815260200160002060009054906101000a900473ffffffffffffffffffffffffffffffffffffffff169050919050565b600060c960009054906101000a900473ffffffffffffffffffffffffffffffffffffffff1690508160c960006101000a81548173ffffffffffffffffffffffffffffffffffffffff021916908373ffffffffffffffffffffffffffffffffffffffff1602179055508173ffffffffffffffffffffffffffffffffffffffff168173ffffffffffffffffffffffffffffffffffffffff167f8be0079c531659141344cd1fd0a4f28419497f9722a3daafe3b4186f6b6457e060405160405180910390a35050565b6000808273ffffffffffffffffffffffffffffffffffffffff163b119050919050565b600060019054906101000a900460ff16613e75576040517f08c379a0000000000000000000000000000000000000000000000000000000008152600401613e6c90615881565b60405180910390fd5b8160659080519060200190613e8b929190614748565b508060669080519060200190613ea2929190614748565b505050565b600060019054906101000a900460ff16613ef6576040517f08c379a0000000000000000000000000000000000000000000000000000000008152600401613eed90615881565b60405180910390fd5b613f06613f01613297565b613d3d565b565b8173ffffffffffffffffffffffffffffffffffffffff168373ffffffffffffffffffffffffffffffffffffffff161415613f77576040517f08c379a0000000000000000000000000000000000000000000000000000000008152600401613f6e906156c1565b60405180910390fd5b80606a60008573ffffffffffffffffffffffffffffffffffffffff1673ffffffffffffffffffffffffffffffffffffffff16815260200190815260200160002060008473ffffffffffffffffffffffffffffffffffffffff1673ffffffffffffffffffffffffffffffffffffffff16815260200190815260200160002060006101000a81548160ff0219169083151502179055508173ffffffffffffffffffffffffffffffffffffffff168373ffffffffffffffffffffffffffffffffffffffff167f17307eab39ab6107e8899845ad3d59bd9653f200f220920489ca2b5937696c31836040516140689190615589565b60405180910390a3505050565b614080848484613a06565b61408c848484846141f9565b6140cb576040517f08c379a00000000000000000000000000000000000000000000000000000000081526004016140c290615621565b60405180910390fd5b50505050565b606060405180602001604052806000815250905090565b60606140f38261324c565b60006140fd6140d1565b9050600081511161411d5760405180602001604052806000815250614148565b8061412784614390565b60405160200161413892919061542a565b6040516020818303038152906040525b915050919050565b6000816000015490506000811161419c576040517f08c379a000000000000000000000000000000000000000000000000000000000815260040161419390615601565b60405180910390fd5b6001810382600001819055505050565b60008073ffffffffffffffffffffffffffffffffffffffff166141ce83613d00565b73ffffffffffffffffffffffffffffffffffffffff1614159050919050565b50505050565b50505050565b600061421a8473ffffffffffffffffffffffffffffffffffffffff16613e03565b15614383578373ffffffffffffffffffffffffffffffffffffffff1663150b7a02614243613297565b8786866040518563ffffffff1660e01b815260040161426594939291906154ae565b602060405180830381600087803b15801561427f57600080fd5b505af19250505080156142b057506040513d601f19601f820116820180604052508101906142ad9190614b4f565b60015b614333573d80600081146142e0576040519150601f19603f3d011682016040523d82523d6000602084013e6142e5565b606091505b5060008151141561432b576040517f08c379a000000000000000000000000000000000000000000000000000000000815260040161432290615621565b60405180910390fd5b805181602001fd5b63150b7a0260e01b7bffffffffffffffffffffffffffffffffffffffffffffffffffffffff1916817bffffffffffffffffffffffffffffffffffffffffffffffffffffffff191614915050614388565b600190505b949350505050565b60606000600161439f846144b4565b01905060008167ffffffffffffffff8111156143e4577f4e487b7100000000000000000000000000000000000000000000000000000000600052604160045260246000fd5b6040519080825280601f01601f1916602001820160405280156144165781602001600182028036833780820191505090505b509050600082602001820190505b6001156144a9578080600190039150507f3031323334353637383961626364656600000000000000000000000000000000600a86061a8153600a8581614493577f4e487b7100000000000000000000000000000000000000000000000000000000600052601260045260246000fd5b04945060008514156144a4576144a9565b614424565b819350505050919050565b600080600090507a184f03e93ff9f4daa797ed6e38ed64bf6a1f0100000000000000008310614538577a184f03e93ff9f4daa797ed6e38ed64bf6a1f010000000000000000838161452e577f4e487b7100000000000000000000000000000000000000000000000000000000600052601260045260246000fd5b0492506040810190505b6d04ee2d6d415b85acef8100000000831061459b576d04ee2d6d415b85acef81000000008381614591577f4e487b7100000000000000000000000000000000000000000000000000000000600052601260045260246000fd5b0492506020810190505b662386f26fc1000083106145f057662386f26fc1000083816145e6577f4e487b7100000000000000000000000000000000000000000000000000000000600052601260045260246000fd5b0492506010810190505b6305f5e100831061463f576305f5e1008381614635577f4e487b7100000000000000000000000000000000000000000000000000000000600052601260045260246000fd5b0492506008810190505b612710831061468a576127108381614680577f4e487b7100000000000000000000000000000000000000000000000000000000600052601260045260246000fd5b0492506004810190505b606483106146d357606483816146c9577f4e487b7100000000000000000000000000000000000000000000000000000000600052601260045260246000fd5b0492506002810190505b600a83106146e2576001810190505b80915050919050565b6040518060a0016040528060008152602001600073ffffffffffffffffffffffffffffffffffffffff168152602001600073ffffffffffffffffffffffffffffffffffffffff168152602001600081526020016000151581525090565b82805461475490615c0a565b90600052602060002090601f01602090048101928261477657600085556147bd565b82601f1061478f57805160ff19168380011785556147bd565b828001600101855582156147bd579182015b828111156147bc5782518255916020019190600101906147a1565b5b5090506147ca9190614829565b5090565b6040518060a0016040528060008152602001600073ffffffffffffffffffffffffffffffffffffffff1681526020016060815260200160008152602001600073ffffffffffffffffffffffffffffffffffffffff1681525090565b5b8082111561484257600081600090555060010161482a565b5090565b600061485961485484615938565b615913565b90508281526020810184848401111561487157600080fd5b61487c848285615bc8565b509392505050565b600061489761489284615969565b615913565b9050828152602081018484840111156148af57600080fd5b6148ba848285615bc8565b509392505050565b6000813590506148d18161633d565b92915050565b6000813590506148e681616354565b92915050565b6000813590506148fb8161636b565b92915050565b6000815190506149108161636b565b92915050565b600082601f83011261492757600080fd5b8135614937848260208601614846565b91505092915050565b600082601f83011261495157600080fd5b8135614961848260208601614884565b91505092915050565b60008135905061497981616382565b92915050565b60006020828403121561499157600080fd5b600061499f848285016148c2565b91505092915050565b600080604083850312156149bb57600080fd5b60006149c9858286016148c2565b92505060206149da858286016148c2565b9150509250929050565b6000806000606084860312156149f957600080fd5b6000614a07868287016148c2565b9350506020614a18868287016148c2565b9250506040614a298682870161496a565b9150509250925092565b60008060008060808587031215614a4957600080fd5b6000614a57878288016148c2565b9450506020614a68878288016148c2565b9350506040614a798782880161496a565b925050606085013567ffffffffffffffff811115614a9657600080fd5b614aa287828801614916565b91505092959194509250565b60008060408385031215614ac157600080fd5b6000614acf858286016148c2565b9250506020614ae0858286016148d7565b9150509250929050565b60008060408385031215614afd57600080fd5b6000614b0b858286016148c2565b9250506020614b1c8582860161496a565b9150509250929050565b600060208284031215614b3857600080fd5b6000614b46848285016148ec565b91505092915050565b600060208284031215614b6157600080fd5b6000614b6f84828501614901565b91505092915050565b600060208284031215614b8a57600080fd5b600082013567ffffffffffffffff811115614ba457600080fd5b614bb084828501614940565b91505092915050565b600080600060608486031215614bce57600080fd5b600084013567ffffffffffffffff811115614be857600080fd5b614bf486828701614940565b9350506020614c058682870161496a565b9250506040614c16868287016148c2565b9150509250925092565b600060208284031215614c3257600080fd5b6000614c408482850161496a565b91505092915050565b60008060408385031215614c5c57600080fd5b6000614c6a8582860161496a565b9250506020614c7b8582860161496a565b9150509250929050565b6000614c918383615268565b60a08301905092915050565b6000614ca983836152d0565b905092915050565b6000614cbd8383615320565b905092915050565b614cce81615b35565b82525050565b614cdd81615b23565b82525050565b614cec81615b23565b82525050565b6000614cfd826159ca565b614d078185615a28565b9350614d128361599a565b8060005b83811015614d43578151614d2a8882614c85565b9750614d3583615a01565b925050600181019050614d16565b5085935050505092915050565b6000614d5b826159d5565b614d658185615a39565b935083602082028501614d77856159aa565b8060005b85811015614db35784840389528151614d948582614c9d565b9450614d9f83615a0e565b925060208a01995050600181019050614d7b565b50829750879550505050505092915050565b6000614dd0826159e0565b614dda8185615a4a565b935083602082028501614dec856159ba565b8060005b85811015614e285784840389528151614e098582614cb1565b9450614e1483615a1b565b925060208a01995050600181019050614df0565b50829750879550505050505092915050565b614e4381615b47565b82525050565b614e5281615b47565b82525050565b6000614e63826159eb565b614e6d8185615a5b565b9350614e7d818560208601615bd7565b614e8681615d43565b840191505092915050565b614e9a81615bb6565b82525050565b6000614eab826159f6565b614eb58185615a6c565b9350614ec5818560208601615bd7565b614ece81615d43565b840191505092915050565b6000614ee4826159f6565b614eee8185615a7d565b9350614efe818560208601615bd7565b614f0781615d43565b840191505092915050565b6000614f1d826159f6565b614f278185615a8e565b9350614f37818560208601615bd7565b80840191505092915050565b6000614f50602d83615a7d565b9150614f5b82615d54565b604082019050919050565b6000614f73601b83615a7d565b9150614f7e82615da3565b602082019050919050565b6000614f96603283615a7d565b9150614fa182615dcc565b604082019050919050565b6000614fb9602683615a7d565b9150614fc482615e1b565b604082019050919050565b6000614fdc602583615a7d565b9150614fe782615e6a565b604082019050919050565b6000614fff601c83615a7d565b915061500a82615eb9565b602082019050919050565b6000615022602483615a7d565b915061502d82615ee2565b604082019050919050565b6000615045601983615a7d565b915061505082615f31565b602082019050919050565b6000615068602883615a7d565b915061507382615f5a565b604082019050919050565b600061508b602983615a7d565b915061509682615fa9565b604082019050919050565b60006150ae602e83615a7d565b91506150b982615ff8565b604082019050919050565b60006150d1602e83615a7d565b91506150dc82616047565b604082019050919050565b60006150f4604083615a7d565b91506150ff82616096565b604082019050919050565b6000615117602083615a7d565b9150615122826160e5565b602082019050919050565b600061513a602a83615a7d565b91506151458261610e565b604082019050919050565b600061515d602083615a7d565b91506151688261615d565b602082019050919050565b6000615180601883615a7d565b915061518b82616186565b602082019050919050565b60006151a3602183615a7d565b91506151ae826161af565b604082019050919050565b60006151c6602483615a7d565b91506151d1826161fe565b604082019050919050565b60006151e9603d83615a7d565b91506151f48261624d565b604082019050919050565b600061520c601883615a7d565b91506152178261629c565b602082019050919050565b600061522f602b83615a7d565b915061523a826162c5565b604082019050919050565b6000615252601c83615a7d565b915061525d82616314565b602082019050919050565b60a08201600082015161527e600085018261540c565b5060208201516152916020850182614cc5565b5060408201516152a46040850182614cc5565b5060608201516152b7606085018261540c565b5060808201516152ca6080850182614e3a565b50505050565b60006060830160008301516152e86000860182614cd4565b5060208301516152fb602086018261540c565b50604083015184820360408601526153138282614ea0565b9150508091505092915050565b600060a083016000830151615338600086018261540c565b50602083015161534b6020860182614cd4565b50604083015184820360408601526153638282614ea0565b9150506060830151615378606086018261540c565b50608083015161538b6080860182614cd4565b508091505092915050565b600060a0830160008301516153ae600086018261540c565b5060208301516153c16020860182614cd4565b50604083015184820360408601526153d98282614ea0565b91505060608301516153ee606086018261540c565b5060808301516154016080860182614cd4565b508091505092915050565b61541581615b9f565b82525050565b61542481615b9f565b82525050565b60006154368285614f12565b91506154428284614f12565b91508190509392505050565b60006020820190506154636000830184614ce3565b92915050565b600060808201905061547e6000830187614ce3565b61548b6020830186614ce3565b615498604083018561541b565b6154a56060830184614e49565b95945050505050565b60006080820190506154c36000830187614ce3565b6154d06020830186614ce3565b6154dd604083018561541b565b81810360608301526154ef8184614e58565b905095945050505050565b600060408201905061550f6000830185614ce3565b61551c602083018461541b565b9392505050565b6000602082019050818103600083015261553d8184614cf2565b905092915050565b6000602082019050818103600083015261555f8184614d50565b905092915050565b600060208201905081810360008301526155818184614dc5565b905092915050565b600060208201905061559e6000830184614e49565b92915050565b60006020820190506155b96000830184614e91565b92915050565b600060208201905081810360008301526155d98184614ed9565b905092915050565b600060208201905081810360008301526155fa81614f43565b9050919050565b6000602082019050818103600083015261561a81614f66565b9050919050565b6000602082019050818103600083015261563a81614f89565b9050919050565b6000602082019050818103600083015261565a81614fac565b9050919050565b6000602082019050818103600083015261567a81614fcf565b9050919050565b6000602082019050818103600083015261569a81614ff2565b9050919050565b600060208201905081810360008301526156ba81615015565b9050919050565b600060208201905081810360008301526156da81615038565b9050919050565b600060208201905081810360008301526156fa8161505b565b9050919050565b6000602082019050818103600083015261571a8161507e565b9050919050565b6000602082019050818103600083015261573a816150a1565b9050919050565b6000602082019050818103600083015261575a816150c4565b9050919050565b6000602082019050818103600083015261577a816150e7565b9050919050565b6000602082019050818103600083015261579a8161510a565b9050919050565b600060208201905081810360008301526157ba8161512d565b9050919050565b600060208201905081810360008301526157da81615150565b9050919050565b600060208201905081810360008301526157fa81615173565b9050919050565b6000602082019050818103600083015261581a81615196565b9050919050565b6000602082019050818103600083015261583a816151b9565b9050919050565b6000602082019050818103600083015261585a816151dc565b9050919050565b6000602082019050818103600083015261587a816151ff565b9050919050565b6000602082019050818103600083015261589a81615222565b9050919050565b600060208201905081810360008301526158ba81615245565b9050919050565b600060408201905081810360008301526158db8185615396565b905081810360208301526158ef8184614d50565b90509392505050565b600060208201905061590d600083018461541b565b92915050565b600061591d61592e565b90506159298282615c3c565b919050565b6000604051905090565b600067ffffffffffffffff82111561595357615952615d14565b5b61595c82615d43565b9050602081019050919050565b600067ffffffffffffffff82111561598457615983615d14565b5b61598d82615d43565b9050602081019050919050565b6000819050602082019050919050565b6000819050602082019050919050565b6000819050602082019050919050565b600081519050919050565b600081519050919050565b600081519050919050565b600081519050919050565b600081519050919050565b6000602082019050919050565b6000602082019050919050565b6000602082019050919050565b600082825260208201905092915050565b600082825260208201905092915050565b600082825260208201905092915050565b600082825260208201905092915050565b600082825260208201905092915050565b600082825260208201905092915050565b600081905092915050565b6000615aa482615b9f565b9150615aaf83615b9f565b9250827fffffffffffffffffffffffffffffffffffffffffffffffffffffffffffffffff03821115615ae457615ae3615cb6565b5b828201905092915050565b6000615afa82615b9f565b9150615b0583615b9f565b925082821015615b1857615b17615cb6565b5b828203905092915050565b6000615b2e82615b7f565b9050919050565b6000615b4082615b7f565b9050919050565b60008115159050919050565b60007fffffffff0000000000000000000000000000000000000000000000000000000082169050919050565b600073ffffffffffffffffffffffffffffffffffffffff82169050919050565b6000819050919050565b600060ff82169050919050565b6000615bc182615ba9565b9050919050565b82818337600083830152505050565b60005b83811015615bf5578082015181840152602081019050615bda565b83811115615c04576000848401525b50505050565b60006002820490506001821680615c2257607f821691505b60208210811415615c3657615c35615ce5565b5b50919050565b615c4582615d43565b810181811067ffffffffffffffff82111715615c6457615c63615d14565b5b80604052505050565b6000615c7882615b9f565b91507fffffffffffffffffffffffffffffffffffffffffffffffffffffffffffffffff821415615cab57615caa615cb6565b5b600182019050919050565b7f4e487b7100000000000000000000000000000000000000000000000000000000600052601160045260246000fd5b7f4e487b7100000000000000000000000000000000000000000000000000000000600052602260045260246000fd5b7f4e487b7100000000000000000000000000000000000000000000000000000000600052604160045260246000fd5b6000601f19601f8301169050919050565b7f4552433732313a2063616c6c6572206973206e6f7420746f6b656e206f776e6560008201527f72206f7220617070726f76656400000000000000000000000000000000000000602082015250565b7f436f756e7465723a2064656372656d656e74206f766572666c6f770000000000600082015250565b7f4552433732313a207472616e7366657220746f206e6f6e20455243373231526560008201527f63656976657220696d706c656d656e7465720000000000000000000000000000602082015250565b7f4f776e61626c653a206e6577206f776e657220697320746865207a65726f206160008201527f6464726573730000000000000000000000000000000000000000000000000000602082015250565b7f4552433732313a207472616e736665722066726f6d20696e636f72726563742060008201527f6f776e6572000000000000000000000000000000000000000000000000000000602082015250565b7f4552433732313a20746f6b656e20616c7265616479206d696e74656400000000600082015250565b7f4552433732313a207472616e7366657220746f20746865207a65726f2061646460008201527f7265737300000000000000000000000000000000000000000000000000000000602082015250565b7f4552433732313a20617070726f766520746f2063616c6c657200000000000000600082015250565b7f4d696e74696e6720726577617264206d7573742062652067726561746572207460008201527f68616e207a65726f000000000000000000000000000000000000000000000000602082015250565b7f4552433732313a2061646472657373207a65726f206973206e6f74206120766160008201527f6c6964206f776e65720000000000000000000000000000000000000000000000602082015250565b7f45524337323155524953746f726167653a2055524920736574206f66206e6f6e60008201527f6578697374656e7420746f6b656e000000000000000000000000000000000000602082015250565b7f496e697469616c697a61626c653a20636f6e747261637420697320616c72656160008201527f647920696e697469616c697a6564000000000000000000000000000000000000602082015250565b7f506c65617365207375626d6974207468652061736b696e67207072696365206960008201527f6e206f7264657220746f20636f6d706c65746520746865207075726368617365602082015250565b7f4552433732313a206d696e7420746f20746865207a65726f2061646472657373600082015250565b7f4f6e6c79206974656d206f776e65722063616e20706572666f726d207468697360008201527f206f7065726174696f6e00000000000000000000000000000000000000000000602082015250565b7f4f776e61626c653a2063616c6c6572206973206e6f7420746865206f776e6572600082015250565b7f4552433732313a20696e76616c696420746f6b656e2049440000000000000000600082015250565b7f4552433732313a20617070726f76616c20746f2063757272656e74206f776e6560008201527f7200000000000000000000000000000000000000000000000000000000000000602082015250565b7f5072696365206d75737420626520657175616c20746f206c697374696e67207060008201527f7269636500000000000000000000000000000000000000000000000000000000602082015250565b7f4552433732313a20617070726f76652063616c6c6572206973206e6f7420746f60008201527f6b656e206f776e6572206f7220617070726f76656420666f7220616c6c000000602082015250565b7f5a65726f2061646472657373206e6f7420616c6c6f7765640000000000000000600082015250565b7f496e697469616c697a61626c653a20636f6e7472616374206973206e6f74206960008201527f6e697469616c697a696e67000000000000000000000000000000000000000000602082015250565b7f5072696365206d757374206265206174206c6561737420312077656900000000600082015250565b61634681615b23565b811461635157600080fd5b50565b61635d81615b47565b811461636857600080fd5b50565b61637481615b53565b811461637f57600080fd5b50565b61638b81615b9f565b811461639657600080fd5b5056fea26469706673582212204c7f5b4b1164b20cceea0c7d5af723704cd6144dc4b694c12e43e6021f9dbb5764736f6c63430008040033",
  "linkReferences": {},
  "deployedLinkReferences": {}
}