{
  "_format": "hh-sol-artifact-1",
  "contractName": "NFTMarketplaceV2",
  "sourceName": "contracts/NFTMarketplaceV2.sol",
  "abi": [
    {
      "anonymous": false,
      "inputs": [
        {
          "indexed": true,
          "internalType": "address",
          "name": "owner",
          "type": "address"
        },
        {
          "indexed": true,
          "internalType": "address",
          "name": "approved",
          "type": "address"
        },
        {
          "indexed": true,
          "internalType": "uint256",
          "name": "tokenId",
          "type": "uint256"
        }
      ],
      "name": "Approval",
      "type": "event"
    },
    {
      "anonymous": false,
      "inputs": [
        {
          "indexed": true,
          "internalType": "address",
          "name": "owner",
          "type": "address"
        },
        {
          "indexed": true,
          "internalType": "address",
          "name": "operator",
          "type": "address"
        },
        {
          "indexed": false,
          "internalType": "bool",
          "name": "approved",
          "type": "bool"
        }
      ],
      "name": "ApprovalForAll",
      "type": "event"
    },
    {
      "anonymous": false,
      "inputs": [
        {
          "indexed": false,
          "internalType": "uint8",
          "name": "version",
          "type": "uint8"
        }
      ],
      "name": "Initialized",
      "type": "event"
    },
    {
      "anonymous": false,
      "inputs": [
        {
          "indexed": true,
          "internalType": "uint256",
          "name": "tokenId",
          "type": "uint256"
        },
        {
          "indexed": false,
          "internalType": "address",
          "name": "seller",
          "type": "address"
        },
        {
          "indexed": false,
          "internalType": "address",
          "name": "owner",
          "type": "address"
        },
        {
          "indexed": false,
          "internalType": "uint256",
          "name": "price",
          "type": "uint256"
        },
        {
          "indexed": false,
          "internalType": "bool",
          "name": "sold",
          "type": "bool"
        }
      ],
      "name": "MarketItemCreated",
      "type": "event"
    },
    {
      "anonymous": false,
      "inputs": [
        {
          "indexed": true,
          "internalType": "address",
          "name": "previousOwner",
          "type": "address"
        },
        {
          "indexed": true,
          "internalType": "address",
          "name": "newOwner",
          "type": "address"
        }
      ],
      "name": "OwnershipTransferred",
      "type": "event"
    },
    {
      "anonymous": false,
      "inputs": [
        {
          "indexed": true,
          "internalType": "address",
          "name": "from",
          "type": "address"
        },
        {
          "indexed": true,
          "internalType": "address",
          "name": "to",
          "type": "address"
        },
        {
          "indexed": true,
          "internalType": "uint256",
          "name": "tokenId",
          "type": "uint256"
        }
      ],
      "name": "Transfer",
      "type": "event"
    },
    {
      "inputs": [
        {
          "internalType": "address",
          "name": "to",
          "type": "address"
        },
        {
          "internalType": "uint256",
          "name": "tokenId",
          "type": "uint256"
        }
      ],
      "name": "approve",
      "outputs": [],
      "stateMutability": "nonpayable",
      "type": "function"
    },
    {
      "inputs": [
        {
          "internalType": "address",
          "name": "owner",
          "type": "address"
        }
      ],
      "name": "balanceOf",
      "outputs": [
        {
          "internalType": "uint256",
          "name": "",
          "type": "uint256"
        }
      ],
      "stateMutability": "view",
      "type": "function"
    },
    {
      "inputs": [
        {
          "internalType": "address",
          "name": "referer",
          "type": "address"
        }
      ],
      "name": "connectUser",
      "outputs": [],
      "stateMutability": "nonpayable",
      "type": "function"
    },
    {
      "inputs": [
        {
          "internalType": "uint256",
          "name": "tokenId",
          "type": "uint256"
        }
      ],
      "name": "createMarketSale",
      "outputs": [],
      "stateMutability": "payable",
      "type": "function"
    },
    {
      "inputs": [
        {
          "internalType": "string",
          "name": "tokenURI",
          "type": "string"
        },
        {
          "internalType": "uint256",
          "name": "price",
          "type": "uint256"
        },
        {
          "internalType": "address",
          "name": "referer",
          "type": "address"
        }
      ],
      "name": "createToken",
      "outputs": [
        {
          "internalType": "uint256",
          "name": "",
          "type": "uint256"
        }
      ],
      "stateMutability": "payable",
      "type": "function"
    },
    {
      "inputs": [],
      "name": "fetchItemsListed",
      "outputs": [
        {
          "components": [
            {
              "internalType": "uint256",
              "name": "tokenId",
              "type": "uint256"
            },
            {
              "internalType": "address payable",
              "name": "seller",
              "type": "address"
            },
            {
              "internalType": "address payable",
              "name": "owner",
              "type": "address"
            },
            {
              "internalType": "uint256",
              "name": "price",
              "type": "uint256"
            },
            {
              "internalType": "bool",
              "name": "sold",
              "type": "bool"
            }
          ],
          "internalType": "struct NFTMarketplaceV2.MarketItem[]",
          "name": "",
          "type": "tuple[]"
        }
      ],
      "stateMutability": "view",
      "type": "function"
    },
    {
      "inputs": [],
      "name": "fetchMarketItems",
      "outputs": [
        {
          "components": [
            {
              "internalType": "uint256",
              "name": "tokenId",
              "type": "uint256"
            },
            {
              "internalType": "address payable",
              "name": "seller",
              "type": "address"
            },
            {
              "internalType": "address payable",
              "name": "owner",
              "type": "address"
            },
            {
              "internalType": "uint256",
              "name": "price",
              "type": "uint256"
            },
            {
              "internalType": "bool",
              "name": "sold",
              "type": "bool"
            }
          ],
          "internalType": "struct NFTMarketplaceV2.MarketItem[]",
          "name": "",
          "type": "tuple[]"
        }
      ],
      "stateMutability": "view",
      "type": "function"
    },
    {
      "inputs": [],
      "name": "fetchMyNFTs",
      "outputs": [
        {
          "components": [
            {
              "internalType": "uint256",
              "name": "tokenId",
              "type": "uint256"
            },
            {
              "internalType": "address payable",
              "name": "seller",
              "type": "address"
            },
            {
              "internalType": "address payable",
              "name": "owner",
              "type": "address"
            },
            {
              "internalType": "uint256",
              "name": "price",
              "type": "uint256"
            },
            {
              "internalType": "bool",
              "name": "sold",
              "type": "bool"
            }
          ],
          "internalType": "struct NFTMarketplaceV2.MarketItem[]",
          "name": "",
          "type": "tuple[]"
        }
      ],
      "stateMutability": "view",
      "type": "function"
    },
    {
      "inputs": [],
      "name": "fetchRewards",
      "outputs": [
        {
          "components": [
            {
              "internalType": "address",
              "name": "from",
              "type": "address"
            },
            {
              "internalType": "uint256",
              "name": "amount",
              "type": "uint256"
            },
            {
              "internalType": "string",
              "name": "rewardType",
              "type": "string"
            }
          ],
          "internalType": "struct NFTMarketplaceV2.Reward[]",
          "name": "",
          "type": "tuple[]"
        }
      ],
      "stateMutability": "view",
      "type": "function"
    },
    {
      "inputs": [],
      "name": "getAllUser",
      "outputs": [
        {
          "components": [
            {
              "internalType": "uint256",
              "name": "userId",
              "type": "uint256"
            },
            {
              "internalType": "address",
              "name": "userAddress",
              "type": "address"
            },
            {
              "internalType": "string",
              "name": "avatar",
              "type": "string"
            },
            {
              "internalType": "uint256",
              "name": "nftCount",
              "type": "uint256"
            },
            {
              "internalType": "address",
              "name": "referedBy",
              "type": "address"
            }
          ],
          "internalType": "struct NFTMarketplaceV2.User[]",
          "name": "",
          "type": "tuple[]"
        }
      ],
      "stateMutability": "view",
      "type": "function"
    },
    {
      "inputs": [
        {
          "internalType": "uint256",
          "name": "tokenId",
          "type": "uint256"
        }
      ],
      "name": "getApproved",
      "outputs": [
        {
          "internalType": "address",
          "name": "",
          "type": "address"
        }
      ],
      "stateMutability": "view",
      "type": "function"
    },
    {
      "inputs": [],
      "name": "getListingPrice",
      "outputs": [
        {
          "internalType": "uint256",
          "name": "",
          "type": "uint256"
        }
      ],
      "stateMutability": "view",
      "type": "function"
    },
    {
      "inputs": [],
      "name": "getMintingReward",
      "outputs": [
        {
          "internalType": "uint256",
          "name": "reward",
          "type": "uint256"
        }
      ],
      "stateMutability": "view",
      "type": "function"
    },
    {
      "inputs": [
        {
          "internalType": "address",
          "name": "user",
          "type": "address"
        }
      ],
      "name": "getUser",
      "outputs": [
        {
          "components": [
            {
              "internalType": "uint256",
              "name": "userId",
              "type": "uint256"
            },
            {
              "internalType": "address",
              "name": "userAddress",
              "type": "address"
            },
            {
              "internalType": "string",
              "name": "avatar",
              "type": "string"
            },
            {
              "internalType": "uint256",
              "name": "nftCount",
              "type": "uint256"
            },
            {
              "internalType": "address",
              "name": "referedBy",
              "type": "address"
            }
          ],
          "internalType": "struct NFTMarketplaceV2.User",
          "name": "",
          "type": "tuple"
        },
        {
          "components": [
            {
              "internalType": "address",
              "name": "from",
              "type": "address"
            },
            {
              "internalType": "uint256",
              "name": "amount",
              "type": "uint256"
            },
            {
              "internalType": "string",
              "name": "rewardType",
              "type": "string"
            }
          ],
          "internalType": "struct NFTMarketplaceV2.Reward[]",
          "name": "",
          "type": "tuple[]"
        }
      ],
      "stateMutability": "view",
      "type": "function"
    },
    {
      "inputs": [
        {
          "internalType": "address",
          "name": "bnung_token",
          "type": "address"
        }
      ],
      "name": "initialize",
      "outputs": [],
      "stateMutability": "nonpayable",
      "type": "function"
    },
    {
      "inputs": [
        {
          "internalType": "address",
          "name": "owner",
          "type": "address"
        },
        {
          "internalType": "address",
          "name": "operator",
          "type": "address"
        }
      ],
      "name": "isApprovedForAll",
      "outputs": [
        {
          "internalType": "bool",
          "name": "",
          "type": "bool"
        }
      ],
      "stateMutability": "view",
      "type": "function"
    },
    {
      "inputs": [],
      "name": "name",
      "outputs": [
        {
          "internalType": "string",
          "name": "",
          "type": "string"
        }
      ],
      "stateMutability": "view",
      "type": "function"
    },
    {
      "inputs": [],
      "name": "owner",
      "outputs": [
        {
          "internalType": "address",
          "name": "",
          "type": "address"
        }
      ],
      "stateMutability": "view",
      "type": "function"
    },
    {
      "inputs": [
        {
          "internalType": "uint256",
          "name": "tokenId",
          "type": "uint256"
        }
      ],
      "name": "ownerOf",
      "outputs": [
        {
          "internalType": "address",
          "name": "",
          "type": "address"
        }
      ],
      "stateMutability": "view",
      "type": "function"
    },
    {
      "inputs": [],
      "name": "pauseMintingReward",
      "outputs": [],
      "stateMutability": "nonpayable",
      "type": "function"
    },
    {
      "inputs": [],
      "name": "renounceOwnership",
      "outputs": [],
      "stateMutability": "nonpayable",
      "type": "function"
    },
    {
      "inputs": [
        {
          "internalType": "uint256",
          "name": "tokenId",
          "type": "uint256"
        },
        {
          "internalType": "uint256",
          "name": "price",
          "type": "uint256"
        }
      ],
      "name": "resellToken",
      "outputs": [],
      "stateMutability": "payable",
      "type": "function"
    },
    {
      "inputs": [],
      "name": "resumeMintingReward",
      "outputs": [],
      "stateMutability": "nonpayable",
      "type": "function"
    },
    {
      "inputs": [
        {
          "internalType": "address",
          "name": "from",
          "type": "address"
        },
        {
          "internalType": "address",
          "name": "to",
          "type": "address"
        },
        {
          "internalType": "uint256",
          "name": "tokenId",
          "type": "uint256"
        }
      ],
      "name": "safeTransferFrom",
      "outputs": [],
      "stateMutability": "nonpayable",
      "type": "function"
    },
    {
      "inputs": [
        {
          "internalType": "address",
          "name": "from",
          "type": "address"
        },
        {
          "internalType": "address",
          "name": "to",
          "type": "address"
        },
        {
          "internalType": "uint256",
          "name": "tokenId",
          "type": "uint256"
        },
        {
          "internalType": "bytes",
          "name": "data",
          "type": "bytes"
        }
      ],
      "name": "safeTransferFrom",
      "outputs": [],
      "stateMutability": "nonpayable",
      "type": "function"
    },
    {
      "inputs": [
        {
          "internalType": "uint256",
          "name": "amount_",
          "type": "uint256"
        },
        {
          "internalType": "address",
          "name": "receiver_",
          "type": "address"
        }
      ],
      "name": "sendBalance",
      "outputs": [],
      "stateMutability": "nonpayable",
      "type": "function"
    },
    {
      "inputs": [
        {
          "internalType": "address",
          "name": "operator",
          "type": "address"
        },
        {
          "internalType": "bool",
          "name": "approved",
          "type": "bool"
        }
      ],
      "name": "setApprovalForAll",
      "outputs": [],
      "stateMutability": "nonpayable",
      "type": "function"
    },
    {
      "inputs": [
        {
          "internalType": "uint256",
          "name": "newMintingReward",
          "type": "uint256"
        }
      ],
      "name": "setMintingReward",
      "outputs": [],
      "stateMutability": "nonpayable",
      "type": "function"
    },
    {
      "inputs": [
        {
          "internalType": "bytes4",
          "name": "interfaceId",
          "type": "bytes4"
        }
      ],
      "name": "supportsInterface",
      "outputs": [
        {
          "internalType": "bool",
          "name": "",
          "type": "bool"
        }
      ],
      "stateMutability": "view",
      "type": "function"
    },
    {
      "inputs": [],
      "name": "symbol",
      "outputs": [
        {
          "internalType": "string",
          "name": "",
          "type": "string"
        }
      ],
      "stateMutability": "view",
      "type": "function"
    },
    {
      "inputs": [
        {
          "internalType": "uint256",
          "name": "tokenId",
          "type": "uint256"
        }
      ],
      "name": "tokenURI",
      "outputs": [
        {
          "internalType": "string",
          "name": "",
          "type": "string"
        }
      ],
      "stateMutability": "view",
      "type": "function"
    },
    {
      "inputs": [
        {
          "internalType": "address",
          "name": "from",
          "type": "address"
        },
        {
          "internalType": "address",
          "name": "to",
          "type": "address"
        },
        {
          "internalType": "uint256",
          "name": "tokenId",
          "type": "uint256"
        }
      ],
      "name": "transferFrom",
      "outputs": [],
      "stateMutability": "nonpayable",
      "type": "function"
    },
    {
      "inputs": [
        {
          "internalType": "address",
          "name": "newOwner",
          "type": "address"
        }
      ],
      "name": "transferOwnership",
      "outputs": [],
      "stateMutability": "nonpayable",
      "type": "function"
    },
    {
      "inputs": [
        {
          "internalType": "string",
          "name": "avatarUrl",
          "type": "string"
        }
      ],
      "name": "updateAvatar",
      "outputs": [],
      "stateMutability": "nonpayable",
      "type": "function"
    },
    {
      "inputs": [
        {
          "internalType": "address",
          "name": "bnug_token",
          "type": "address"
        }
      ],
      "name": "updateBNUGTokenAddress",
      "outputs": [],
      "stateMutability": "nonpayable",
      "type": "function"
    },
    {
      "inputs": [],
      "name": "updateInfiniteReward",
      "outputs": [],
      "stateMutability": "nonpayable",
      "type": "function"
    },
    {
      "inputs": [
        {
          "internalType": "uint256",
          "name": "_listingPrice",
          "type": "uint256"
        }
      ],
      "name": "updateListingPrice",
      "outputs": [],
      "stateMutability": "payable",
      "type": "function"
    },
    {
      "inputs": [
        {
          "internalType": "uint256",
          "name": "newReward",
          "type": "uint256"
        }
      ],
      "name": "updateReferReward",
      "outputs": [],
      "stateMutability": "nonpayable",
      "type": "function"
    }
  ],
  "bytecode": "0x608060405234801561001057600080fd5b5061367c806100206000396000f3fe6080604052600436106102255760003560e01c806370a0823111610123578063a22cb465116100ab578063c87b56dd1161006f578063c87b56dd1461060b578063e219fc751461062b578063e985e9c51461063e578063ed21aa8914610687578063f2fde38b146106a957600080fd5b8063a22cb46514610585578063ae677aa3146105a5578063b88d4fde146105b8578063be9af536146105d8578063c4d66de8146105eb57600080fd5b8063935b5b82116100f2578063935b5b82146104fb57806395d89b411461051b5780639872d8fc146105305780639fe958b914610550578063a105fc6f1461057057600080fd5b806370a0823114610488578063715018a6146104a857806382da338a146104bd5780638da5cb5b146104dd57600080fd5b80631542bb95116101b157806342842e0e1161017557806342842e0e146103e357806345f8fa801461040357806347531df8146104185780636352211e1461043a5780636f77926b1461045a57600080fd5b80631542bb9514610366578063202e37401461037957806323b872dd1461038e5780632f5a0d81146103ae578063353298d8146103c357600080fd5b8063090564e9116101f8578063090564e9146102db578063095ea7b3146102f05780630f08efe0146103105780630f1c1c641461033257806312e855851461035157600080fd5b806301ffc9a71461022a57806306fdde031461025f57806307ef9c9b14610281578063081812fc146102a3575b600080fd5b34801561023657600080fd5b5061024a610245366004612e01565b6106c9565b60405190151581526020015b60405180910390f35b34801561026b57600080fd5b5061027461071b565b6040516102569190612e76565b34801561028d57600080fd5b506102a161029c366004612e89565b6107ad565b005b3480156102af57600080fd5b506102c36102be366004612e89565b6107bb565b6040516001600160a01b039091168152602001610256565b3480156102e757600080fd5b506102a16107e2565b3480156102fc57600080fd5b506102a161030b366004612ebe565b6107ff565b34801561031c57600080fd5b5061032561091a565b6040516102569190612ee8565b34801561033e57600080fd5b5060ff545b604051908152602001610256565b34801561035d57600080fd5b5060fe54610343565b610343610374366004613010565b610ab4565b34801561038557600080fd5b50610325610ba6565b34801561039a57600080fd5b506102a16103a9366004613067565b610d7f565b3480156103ba57600080fd5b506102a1610db0565b3480156103cf57600080fd5b506102a16103de3660046130a3565b610dc5565b3480156103ef57600080fd5b506102a16103fe366004613067565b611175565b34801561040f57600080fd5b50610325611190565b34801561042457600080fd5b5061042d611369565b6040516102569190613116565b34801561044657600080fd5b506102c3610455366004612e89565b611503565b34801561046657600080fd5b5061047a6104753660046130a3565b611563565b6040516102569291906131f9565b34801561049457600080fd5b506103436104a33660046130a3565b611779565b3480156104b457600080fd5b506102a16117ff565b3480156104c957600080fd5b506102a16104d8366004612e89565b611813565b3480156104e957600080fd5b5060c9546001600160a01b03166102c3565b34801561050757600080fd5b506102a16105163660046130a3565b611881565b34801561052757600080fd5b50610274611901565b34801561053c57600080fd5b506102a161054b366004613227565b611910565b34801561055c57600080fd5b506102a161056b366004613253565b611995565b34801561057c57600080fd5b506102a16119c0565b34801561059157600080fd5b506102a16105a0366004613288565b6119d8565b6102a16105b3366004612e89565b6119e3565b3480156105c457600080fd5b506102a16105d33660046132c4565b6119f0565b6102a16105e6366004612e89565b611a28565b3480156105f757600080fd5b506102a16106063660046130a3565b611b45565b34801561061757600080fd5b50610274610626366004612e89565b611cf0565b6102a1610639366004613340565b611df9565b34801561064a57600080fd5b5061024a610659366004613362565b6001600160a01b039182166000908152606a6020908152604080832093909416825291909152205460ff1690565b34801561069357600080fd5b5061069c611ef3565b604051610256919061338c565b3480156106b557600080fd5b506102a16106c43660046130a3565b612010565b60006001600160e01b031982166380ac58cd60e01b14806106fa57506001600160e01b03198216635b5e139f60e01b145b8061071557506301ffc9a760e01b6001600160e01b03198316145b92915050565b60606065805461072a9061339f565b80601f01602080910402602001604051908101604052809291908181526020018280546107569061339f565b80156107a35780601f10610778576101008083540402835291602001916107a3565b820191906000526020600020905b81548152906001019060200180831161078657829003601f168201915b5050505050905090565b6107b5612086565b61010355565b60006107c6826120e0565b506000908152606960205260409020546001600160a01b031690565b6107ea612086565b610102805460ff19811660ff90911615179055565b600061080a82611503565b9050806001600160a01b0316836001600160a01b0316141561087d5760405162461bcd60e51b815260206004820152602160248201527f4552433732313a20617070726f76616c20746f2063757272656e74206f776e656044820152603960f91b60648201526084015b60405180910390fd5b336001600160a01b038216148061089957506108998133610659565b61090b5760405162461bcd60e51b815260206004820152603d60248201527f4552433732313a20617070726f76652063616c6c6572206973206e6f7420746f60448201527f6b656e206f776e6572206f7220617070726f76656420666f7220616c6c0000006064820152608401610874565b610915838361213f565b505050565b6060600061092760fb5490565b9050600061093460fc5490565b60fb5461094191906133ea565b90506000808267ffffffffffffffff81111561095f5761095f612f64565b6040519080825280602002602001820160405280156109b857816020015b6040805160a08101825260008082526020808301829052928201819052606082018190526080820152825260001990920191018161097d5790505b50905060005b84811015610aab573061010460006109d7846001613401565b81526020810191909152604001600020600201546001600160a01b03161415610a99576000610a07826001613401565b60008181526101046020908152604091829020825160a0810184528154815260018201546001600160a01b039081169382019390935260028201549092169282019290925260038201546060820152600482015460ff161515608082015285519293509091859087908110610a7e57610a7e613419565b6020908102919091010152610a94600186613401565b945050505b80610aa38161342f565b9150506109be565b50949350505050565b6000610ac460fb80546001019055565b6000610acf60fb5490565b9050610adb33826121ad565b610ae58186612338565b610aef81856123d2565b6101005460ff16610b955760fd5460ff54604051636606fbc360e11b815233600482015260248101919091526001600160a01b039091169063cc0df78690604401600060405180830381600087803b158015610b4a57600080fd5b505af1158015610b5e573d6000803e3d6000fd5b50505050610b953360ff546040518060400160405280600e81526020016d1b5a5b9d1a5b99d7dc995dd85c9960921b815250612529565b610b9e83610dc5565b949350505050565b60606000610bb360fb5490565b905060008060005b83811015610c1757336101046000610bd4846001613401565b81526020810191909152604001600020600201546001600160a01b03161415610c0557610c02600184613401565b92505b80610c0f8161342f565b915050610bbb565b5060008267ffffffffffffffff811115610c3357610c33612f64565b604051908082528060200260200182016040528015610c8c57816020015b6040805160a081018252600080825260208083018290529282018190526060820181905260808201528252600019909201910181610c515790505b50905060005b84811015610aab57336101046000610cab846001613401565b81526020810191909152604001600020600201546001600160a01b03161415610d6d576000610cdb826001613401565b60008181526101046020908152604091829020825160a0810184528154815260018201546001600160a01b039081169382019390935260028201549092169282019290925260038201546060820152600482015460ff161515608082015285519293509091859087908110610d5257610d52613419565b6020908102919091010152610d68600186613401565b945050505b80610d778161342f565b915050610c92565b610d8933826125b0565b610da55760405162461bcd60e51b81526004016108749061344a565b61091583838361262e565b610db8612086565b610100805460ff19169055565b336000908152610105602052604090205461100d576040518060a0016040528061010160008154610df59061342f565b918290555081523360208083018290526040805180830182526000808252828601919091526001606086018190526001600160a01b038881166080909701969096529381526101058352819020855181558583015193810180546001600160a01b03191694909516939093179093559183015180519192610e7e92600285019290910190612d11565b506060828101516003830155608092830151600490920180546001600160a01b039384166001600160a01b0319918216179091556040805160a0810182526101015480825233602080840191825284518082018652600080825285870191825260019886018990528b8a169a86019a909a529289526101068152939097208251815596519487018054959096169490931693909317909355518051919392610f2e92600285019290910190612d11565b5060608201516003820155608090910151600490910180546001600160a01b0319166001600160a01b0392831617905581161561100a5760fd5461010354604051636606fbc360e11b81526001600160a01b038481166004830152602482019290925291169063cc0df78690604401600060405180830381600087803b158015610fb757600080fd5b505af1158015610fcb573d6000803e3d6000fd5b5050505061100a8161010354604051806040016040528060158152602001741c9959995c995c97db5a5b9d195c97dc995dd85c99605a1b815250612529565b50565b3360009081526101056020526040812060030180549161102c8361342f565b909155505033600090815261010560209081526040808320548352610106909152812060030180549161105e8361342f565b90915550506101025460ff168015611091575033600090815261010560205260409020600401546001600160a01b031615155b1561100a5760fd54336000908152610105602052604090819020600490810154610103549251636606fbc360e11b81526001600160a01b0391821692810192909252602482019290925291169063cc0df78690604401600060405180830381600087803b15801561110157600080fd5b505af1158015611115573d6000803e3d6000fd5b505033600090815261010560209081526040918290206004015461010354835180850190945260158452741c9959995c995c97db5a5b9d195c97dc995dd85c99605a1b9284019290925261100a94506001600160a01b0316925090612529565b610915838383604051806020016040528060008152506119f0565b6060600061119d60fb5490565b905060008060005b83811015611201573361010460006111be846001613401565b81526020810191909152604001600020600101546001600160a01b031614156111ef576111ec600184613401565b92505b806111f98161342f565b9150506111a5565b5060008267ffffffffffffffff81111561121d5761121d612f64565b60405190808252806020026020018201604052801561127657816020015b6040805160a08101825260008082526020808301829052928201819052606082018190526080820152825260001990920191018161123b5790505b50905060005b84811015610aab57336101046000611295846001613401565b81526020810191909152604001600020600101546001600160a01b031614156113575760006112c5826001613401565b60008181526101046020908152604091829020825160a0810184528154815260018201546001600160a01b039081169382019390935260028201549092169282019290925260038201546060820152600482015460ff16151560808201528551929350909185908790811061133c5761133c613419565b6020908102919091010152611352600186613401565b945050505b806113618161342f565b91505061127c565b606060006101015467ffffffffffffffff81111561138957611389612f64565b6040519080825280602002602001820160405280156113c257816020015b6113af612d95565b8152602001906001900390816113a75790505b50905060005b610101548110156114fd5761010660006113e3836001613401565b81526020808201929092526040908101600020815160a0810183528154815260018201546001600160a01b031693810193909352600281018054919284019161142b9061339f565b80601f01602080910402602001604051908101604052809291908181526020018280546114579061339f565b80156114a45780601f10611479576101008083540402835291602001916114a4565b820191906000526020600020905b81548152906001019060200180831161148757829003601f168201915b5050509183525050600382015460208201526004909101546001600160a01b031660409091015282518390839081106114df576114df613419565b602002602001018190525080806114f59061342f565b9150506113c8565b50919050565b6000818152606760205260408120546001600160a01b0316806107155760405162461bcd60e51b8152602060048201526018602482015277115490cdcc8c4e881a5b9d985b1a59081d1bdad95b88125160421b6044820152606401610874565b61156b612d95565b6001600160a01b03808316600090815261010560209081526040808320610107835292819020815160a08101835284548152600185015490951692850192909252600283018054606095928592908401916115c59061339f565b80601f01602080910402602001604051908101604052809291908181526020018280546115f19061339f565b801561163e5780601f106116135761010080835404028352916020019161163e565b820191906000526020600020905b81548152906001019060200180831161162157829003601f168201915b505050918352505060038201546020808301919091526004909201546001600160a01b0316604091820152835481518184028101840190925280825292945091839160009084015b8282101561176a576000848152602090819020604080516060810182526003860290920180546001600160a01b03168352600181015493830193909352600283018054929392918401916116d99061339f565b80601f01602080910402602001604051908101604052809291908181526020018280546117059061339f565b80156117525780601f1061172757610100808354040283529160200191611752565b820191906000526020600020905b81548152906001019060200180831161173557829003601f168201915b50505050508152505081526020019060010190611686565b50505050905091509150915091565b60006001600160a01b0382166117e35760405162461bcd60e51b815260206004820152602960248201527f4552433732313a2061646472657373207a65726f206973206e6f7420612076616044820152683634b21037bbb732b960b91b6064820152608401610874565b506001600160a01b031660009081526068602052604090205490565b611807612086565b6118116000612792565b565b61181b612086565b6000811161187c5760405162461bcd60e51b815260206004820152602860248201527f4d696e74696e6720726577617264206d7573742062652067726561746572207460448201526768616e207a65726f60c01b6064820152608401610874565b60ff55565b611889612086565b6001600160a01b0381166118df5760405162461bcd60e51b815260206004820152601860248201527f5a65726f2061646472657373206e6f7420616c6c6f77656400000000000000006044820152606401610874565b60fd80546001600160a01b0319166001600160a01b0392909216919091179055565b60606066805461072a9061339f565b611918612086565b8147101561195f5760405162461bcd60e51b8152602060048201526014602482015273496e73756666696369656e742062616c616e636560601b6044820152606401610874565b6040516001600160a01b0382169083156108fc029084906000818181858888f19350505050158015610915573d6000803e3d6000fd5b3360009081526101056020908152604090912082516119bc92600290920191840190612d11565b5050565b6119c8612086565b610100805460ff19166001179055565b6119bc3383836127e4565b6119eb612086565b60fe55565b6119fa33836125b0565b611a165760405162461bcd60e51b81526004016108749061344a565b611a22848484846128b3565b50505050565b60008181526101046020526040902060030154348114611ab2576040805162461bcd60e51b81526020600482015260248101919091527f506c65617365207375626d6974207468652061736b696e67207072696365206960448201527f6e206f7264657220746f20636f6d706c657465207468652070757263686173656064820152608401610874565b60008281526101046020526040902060018082018054600284018054336001600160a01b0319918216179091556004909401805460ff191684179055928316905560fc805490910190556001600160a01b0316611b1030338561262e565b6040516001600160a01b038216903480156108fc02916000818181858888f19350505050158015611a22573d6000803e3d6000fd5b600054610100900460ff1615808015611b655750600054600160ff909116105b80611b7f5750303b158015611b7f575060005460ff166001145b611be25760405162461bcd60e51b815260206004820152602e60248201527f496e697469616c697a61626c653a20636f6e747261637420697320616c72656160448201526d191e481a5b9a5d1a585b1a5e995960921b6064820152608401610874565b6000805460ff191660011790558015611c05576000805461ff0019166101001790555b60fd80546001600160a01b0319166001600160a01b0384161790556658d15e1762800060fe55678ac7230489e8000060ff55610100805460ff1990811690915561010280549091169055674563918244f400006101035560408051808201825260098152684e656772697475646560b81b602080830191909152825180840190935260038352624e454760e81b90830152611c9f916128e6565b611ca7612917565b80156119bc576000805461ff0019169055604051600181527f7f26b83ff96e1f2b6a682f133852f6798a09c465da95921460cefb38474024989060200160405180910390a15050565b6060611cfb826120e0565b60008281526097602052604081208054611d149061339f565b80601f0160208091040260200160405190810160405280929190818152602001828054611d409061339f565b8015611d8d5780601f10611d6257610100808354040283529160200191611d8d565b820191906000526020600020905b815481529060010190602001808311611d7057829003601f168201915b505050505090506000611dab60408051602081019091526000815290565b9050805160001415611dbe575092915050565b815115611df0578082604051602001611dd8929190613497565b60405160208183030381529060405292505050919050565b610b9e84612946565b600082815261010460205260409020600201546001600160a01b03163314611e765760405162461bcd60e51b815260206004820152602a60248201527f4f6e6c79206974656d206f776e65722063616e20706572666f726d20746869736044820152691037b832b930ba34b7b760b11b6064820152608401610874565b60fe543414611e975760405162461bcd60e51b8152600401610874906134c6565b60008281526101046020526040902060048101805460ff19169055600381018290556001810180546001600160a01b031990811633179091556002909101805490911630179055611ee860fc6129ba565b6119bc33308461262e565b33600090815261010760209081526040808320805482518185028101850190935280835260609492939192909184015b82821015612007576000848152602090819020604080516060810182526003860290920180546001600160a01b0316835260018101549383019390935260028301805492939291840191611f769061339f565b80601f0160208091040260200160405190810160405280929190818152602001828054611fa29061339f565b8015611fef5780601f10611fc457610100808354040283529160200191611fef565b820191906000526020600020905b815481529060010190602001808311611fd257829003601f168201915b50505050508152505081526020019060010190611f23565b50505050905090565b612018612086565b6001600160a01b03811661207d5760405162461bcd60e51b815260206004820152602660248201527f4f776e61626c653a206e6577206f776e657220697320746865207a65726f206160448201526564647265737360d01b6064820152608401610874565b61100a81612792565b60c9546001600160a01b031633146118115760405162461bcd60e51b815260206004820181905260248201527f4f776e61626c653a2063616c6c6572206973206e6f7420746865206f776e65726044820152606401610874565b6000818152606760205260409020546001600160a01b031661100a5760405162461bcd60e51b8152602060048201526018602482015277115490cdcc8c4e881a5b9d985b1a59081d1bdad95b88125160421b6044820152606401610874565b600081815260696020526040902080546001600160a01b0319166001600160a01b038416908117909155819061217482611503565b6001600160a01b03167f8c5be1e5ebec7d5bd14f71427d1e84f3dd0314c0f7b2291e5b200ac8c7c3b92560405160405180910390a45050565b6001600160a01b0382166122035760405162461bcd60e51b815260206004820181905260248201527f4552433732313a206d696e7420746f20746865207a65726f20616464726573736044820152606401610874565b6000818152606760205260409020546001600160a01b0316156122685760405162461bcd60e51b815260206004820152601c60248201527f4552433732313a20746f6b656e20616c7265616479206d696e746564000000006044820152606401610874565b6000818152606760205260409020546001600160a01b0316156122cd5760405162461bcd60e51b815260206004820152601c60248201527f4552433732313a20746f6b656e20616c7265616479206d696e746564000000006044820152606401610874565b6001600160a01b038216600081815260686020908152604080832080546001019055848352606790915280822080546001600160a01b0319168417905551839291907fddf252ad1be2c89b69c2b068fc378daa952ba7f163c4a11628f55a4df523b3ef908290a45050565b6000828152606760205260409020546001600160a01b03166123b35760405162461bcd60e51b815260206004820152602e60248201527f45524337323155524953746f726167653a2055524920736574206f66206e6f6e60448201526d32bc34b9ba32b73a103a37b5b2b760911b6064820152608401610874565b6000828152609760209081526040909120825161091592840190612d11565b600081116124225760405162461bcd60e51b815260206004820152601c60248201527f5072696365206d757374206265206174206c65617374203120776569000000006044820152606401610874565b60fe5434146124435760405162461bcd60e51b8152600401610874906134c6565b6040805160a08101825283815233602080830182815230848601818152606086018881526000608088018181528b8252610104909652979097209551865591516001860180546001600160a01b03199081166001600160a01b0393841617909155925160028701805490941691161790915593516003840155516004909201805460ff1916921515929092179091556124dc918461262e565b604080513381523060208201529081018290526000606082015282907fb640004f1d14576d0c209e240cad0410e0d8c0c33a09375861fbadae2588a98d9060800160405180910390a25050565b6001600160a01b03838116600090815261010760209081526040808320815160608101835233815280840188815292810187815282546001808201855593875295859020825160039097020180546001600160a01b03191696909716959095178655915190850155915180519293926125a89260028501920190612d11565b505050505050565b6000806125bc83611503565b9050806001600160a01b0316846001600160a01b0316148061260357506001600160a01b038082166000908152606a602090815260408083209388168352929052205460ff165b80610b9e5750836001600160a01b031661261c846107bb565b6001600160a01b031614949350505050565b826001600160a01b031661264182611503565b6001600160a01b0316146126675760405162461bcd60e51b81526004016108749061350a565b6001600160a01b0382166126c95760405162461bcd60e51b8152602060048201526024808201527f4552433732313a207472616e7366657220746f20746865207a65726f206164646044820152637265737360e01b6064820152608401610874565b826001600160a01b03166126dc82611503565b6001600160a01b0316146127025760405162461bcd60e51b81526004016108749061350a565b600081815260696020908152604080832080546001600160a01b03199081169091556001600160a01b0387811680865260688552838620805460001901905590871680865283862080546001019055868652606790945282852080549092168417909155905184937fddf252ad1be2c89b69c2b068fc378daa952ba7f163c4a11628f55a4df523b3ef91a4505050565b60c980546001600160a01b038381166001600160a01b0319831681179093556040519116919082907f8be0079c531659141344cd1fd0a4f28419497f9722a3daafe3b4186f6b6457e090600090a35050565b816001600160a01b0316836001600160a01b031614156128465760405162461bcd60e51b815260206004820152601960248201527f4552433732313a20617070726f766520746f2063616c6c6572000000000000006044820152606401610874565b6001600160a01b038381166000818152606a6020908152604080832094871680845294825291829020805460ff191686151590811790915591519182527f17307eab39ab6107e8899845ad3d59bd9653f200f220920489ca2b5937696c31910160405180910390a3505050565b6128be84848461262e565b6128ca84848484612a11565b611a225760405162461bcd60e51b81526004016108749061354f565b600054610100900460ff1661290d5760405162461bcd60e51b8152600401610874906135a1565b6119bc8282612b1e565b600054610100900460ff1661293e5760405162461bcd60e51b8152600401610874906135a1565b611811612b6c565b6060612951826120e0565b600061296860408051602081019091526000815290565b9050600081511161298857604051806020016040528060008152506129b3565b8061299284612b9c565b6040516020016129a3929190613497565b6040516020818303038152906040525b9392505050565b805480612a095760405162461bcd60e51b815260206004820152601b60248201527f436f756e7465723a2064656372656d656e74206f766572666c6f7700000000006044820152606401610874565b600019019055565b60006001600160a01b0384163b15612b1357604051630a85bd0160e11b81526001600160a01b0385169063150b7a0290612a559033908990889088906004016135ec565b602060405180830381600087803b158015612a6f57600080fd5b505af1925050508015612a9f575060408051601f3d908101601f19168201909252612a9c91810190613629565b60015b612af9573d808015612acd576040519150601f19603f3d011682016040523d82523d6000602084013e612ad2565b606091505b508051612af15760405162461bcd60e51b81526004016108749061354f565b805181602001fd5b6001600160e01b031916630a85bd0160e11b149050610b9e565b506001949350505050565b600054610100900460ff16612b455760405162461bcd60e51b8152600401610874906135a1565b8151612b58906065906020850190612d11565b508051610915906066906020840190612d11565b600054610100900460ff16612b935760405162461bcd60e51b8152600401610874906135a1565b61181133612792565b60606000612ba983612c39565b600101905060008167ffffffffffffffff811115612bc957612bc9612f64565b6040519080825280601f01601f191660200182016040528015612bf3576020820181803683370190505b5090508181016020015b600019016f181899199a1a9b1b9c1cb0b131b232b360811b600a86061a8153600a8504945084612c2c57612c31565b612bfd565b509392505050565b60008072184f03e93ff9f4daa797ed6e38ed64bf6a1f0160401b8310612c785772184f03e93ff9f4daa797ed6e38ed64bf6a1f0160401b830492506040015b6d04ee2d6d415b85acef81000000008310612ca4576d04ee2d6d415b85acef8100000000830492506020015b662386f26fc100008310612cc257662386f26fc10000830492506010015b6305f5e1008310612cda576305f5e100830492506008015b6127108310612cee57612710830492506004015b60648310612d00576064830492506002015b600a83106107155760010192915050565b828054612d1d9061339f565b90600052602060002090601f016020900481019282612d3f5760008555612d85565b82601f10612d5857805160ff1916838001178555612d85565b82800160010185558215612d85579182015b82811115612d85578251825591602001919060010190612d6a565b50612d91929150612dd6565b5090565b6040518060a001604052806000815260200160006001600160a01b03168152602001606081526020016000815260200160006001600160a01b031681525090565b5b80821115612d915760008155600101612dd7565b6001600160e01b03198116811461100a57600080fd5b600060208284031215612e1357600080fd5b81356129b381612deb565b60005b83811015612e39578181015183820152602001612e21565b83811115611a225750506000910152565b60008151808452612e62816020860160208601612e1e565b601f01601f19169290920160200192915050565b6020815260006129b36020830184612e4a565b600060208284031215612e9b57600080fd5b5035919050565b80356001600160a01b0381168114612eb957600080fd5b919050565b60008060408385031215612ed157600080fd5b612eda83612ea2565b946020939093013593505050565b602080825282518282018190526000919060409081850190868401855b82811015612f5757815180518552868101516001600160a01b03908116888701528682015116868601526060808201519086015260809081015115159085015260a09093019290850190600101612f05565b5091979650505050505050565b634e487b7160e01b600052604160045260246000fd5b600067ffffffffffffffff80841115612f9557612f95612f64565b604051601f8501601f19908116603f01168101908282118183101715612fbd57612fbd612f64565b81604052809350858152868686011115612fd657600080fd5b858560208301376000602087830101525050509392505050565b600082601f83011261300157600080fd5b6129b383833560208501612f7a565b60008060006060848603121561302557600080fd5b833567ffffffffffffffff81111561303c57600080fd5b61304886828701612ff0565b9350506020840135915061305e60408501612ea2565b90509250925092565b60008060006060848603121561307c57600080fd5b61308584612ea2565b925061309360208501612ea2565b9150604084013590509250925092565b6000602082840312156130b557600080fd5b6129b382612ea2565b805182526000602082015160018060a01b0380821660208601526040840151915060a060408601526130f360a0860183612e4a565b915060608401516060860152806080850151166080860152508091505092915050565b6000602080830181845280855180835260408601915060408160051b870101925083870160005b8281101561316b57603f198886030184526131598583516130be565b9450928501929085019060010161313d565b5092979650505050505050565b600082825180855260208086019550808260051b84010181860160005b848110156131ec57858303601f19018952815180516001600160a01b0316845284810151858501526040908101516060918501829052906131d881860183612e4a565b9a86019a9450505090830190600101613195565b5090979650505050505050565b60408152600061320c60408301856130be565b828103602084015261321e8185613178565b95945050505050565b6000806040838503121561323a57600080fd5b8235915061324a60208401612ea2565b90509250929050565b60006020828403121561326557600080fd5b813567ffffffffffffffff81111561327c57600080fd5b610b9e84828501612ff0565b6000806040838503121561329b57600080fd5b6132a483612ea2565b9150602083013580151581146132b957600080fd5b809150509250929050565b600080600080608085870312156132da57600080fd5b6132e385612ea2565b93506132f160208601612ea2565b925060408501359150606085013567ffffffffffffffff81111561331457600080fd5b8501601f8101871361332557600080fd5b61333487823560208401612f7a565b91505092959194509250565b6000806040838503121561335357600080fd5b50508035926020909101359150565b6000806040838503121561337557600080fd5b61337e83612ea2565b915061324a60208401612ea2565b6020815260006129b36020830184613178565b600181811c908216806133b357607f821691505b602082108114156114fd57634e487b7160e01b600052602260045260246000fd5b634e487b7160e01b600052601160045260246000fd5b6000828210156133fc576133fc6133d4565b500390565b60008219821115613414576134146133d4565b500190565b634e487b7160e01b600052603260045260246000fd5b6000600019821415613443576134436133d4565b5060010190565b6020808252602d908201527f4552433732313a2063616c6c6572206973206e6f7420746f6b656e206f776e6560408201526c1c881bdc88185c1c1c9bdd9959609a1b606082015260800190565b600083516134a9818460208801612e1e565b8351908301906134bd818360208801612e1e565b01949350505050565b60208082526024908201527f5072696365206d75737420626520657175616c20746f206c697374696e6720706040820152637269636560e01b606082015260800190565b60208082526025908201527f4552433732313a207472616e736665722066726f6d20696e636f72726563742060408201526437bbb732b960d91b606082015260800190565b60208082526032908201527f4552433732313a207472616e7366657220746f206e6f6e20455243373231526560408201527131b2b4bb32b91034b6b83632b6b2b73a32b960711b606082015260800190565b6020808252602b908201527f496e697469616c697a61626c653a20636f6e7472616374206973206e6f74206960408201526a6e697469616c697a696e6760a81b606082015260800190565b6001600160a01b038581168252841660208201526040810183905260806060820181905260009061361f90830184612e4a565b9695505050505050565b60006020828403121561363b57600080fd5b81516129b381612deb56fea2646970667358221220201592e5890d77868e738611ef12f5579cbb583242b8870b7f8f78e9e2757b0964736f6c63430008090033",
  "linkReferences": {},
  "deployedLinkReferences": {}
}