{
  "_format": "hh-sol-artifact-1",
  "contractName": "NFTMarketplace",
  "sourceName": "contracts/NFTMarketplace.sol",
  "abi": [
    {
      "anonymous": false,
      "inputs": [
        {
          "indexed": true,
          "internalType": "address",
          "name": "owner",
          "type": "address"
        },
        {
          "indexed": true,
          "internalType": "address",
          "name": "approved",
          "type": "address"
        },
        {
          "indexed": true,
          "internalType": "uint256",
          "name": "tokenId",
          "type": "uint256"
        }
      ],
      "name": "Approval",
      "type": "event"
    },
    {
      "anonymous": false,
      "inputs": [
        {
          "indexed": true,
          "internalType": "address",
          "name": "owner",
          "type": "address"
        },
        {
          "indexed": true,
          "internalType": "address",
          "name": "operator",
          "type": "address"
        },
        {
          "indexed": false,
          "internalType": "bool",
          "name": "approved",
          "type": "bool"
        }
      ],
      "name": "ApprovalForAll",
      "type": "event"
    },
    {
      "anonymous": false,
      "inputs": [
        {
          "indexed": false,
          "internalType": "uint8",
          "name": "version",
          "type": "uint8"
        }
      ],
      "name": "Initialized",
      "type": "event"
    },
    {
      "anonymous": false,
      "inputs": [
        {
          "indexed": true,
          "internalType": "uint256",
          "name": "tokenId",
          "type": "uint256"
        },
        {
          "indexed": false,
          "internalType": "address",
          "name": "seller",
          "type": "address"
        },
        {
          "indexed": false,
          "internalType": "address",
          "name": "owner",
          "type": "address"
        },
        {
          "indexed": false,
          "internalType": "uint256",
          "name": "price",
          "type": "uint256"
        },
        {
          "indexed": false,
          "internalType": "bool",
          "name": "sold",
          "type": "bool"
        }
      ],
      "name": "MarketItemCreated",
      "type": "event"
    },
    {
      "anonymous": false,
      "inputs": [
        {
          "indexed": true,
          "internalType": "address",
          "name": "previousOwner",
          "type": "address"
        },
        {
          "indexed": true,
          "internalType": "address",
          "name": "newOwner",
          "type": "address"
        }
      ],
      "name": "OwnershipTransferred",
      "type": "event"
    },
    {
      "anonymous": false,
      "inputs": [
        {
          "indexed": true,
          "internalType": "address",
          "name": "from",
          "type": "address"
        },
        {
          "indexed": true,
          "internalType": "address",
          "name": "to",
          "type": "address"
        },
        {
          "indexed": true,
          "internalType": "uint256",
          "name": "tokenId",
          "type": "uint256"
        }
      ],
      "name": "Transfer",
      "type": "event"
    },
    {
      "inputs": [
        {
          "internalType": "address",
          "name": "to",
          "type": "address"
        },
        {
          "internalType": "uint256",
          "name": "tokenId",
          "type": "uint256"
        }
      ],
      "name": "approve",
      "outputs": [],
      "stateMutability": "nonpayable",
      "type": "function"
    },
    {
      "inputs": [
        {
          "internalType": "address",
          "name": "owner",
          "type": "address"
        }
      ],
      "name": "balanceOf",
      "outputs": [
        {
          "internalType": "uint256",
          "name": "",
          "type": "uint256"
        }
      ],
      "stateMutability": "view",
      "type": "function"
    },
    {
      "inputs": [
        {
          "internalType": "address",
          "name": "referer",
          "type": "address"
        }
      ],
      "name": "connectUser",
      "outputs": [],
      "stateMutability": "nonpayable",
      "type": "function"
    },
    {
      "inputs": [
        {
          "internalType": "uint256",
          "name": "tokenId",
          "type": "uint256"
        }
      ],
      "name": "createMarketSale",
      "outputs": [],
      "stateMutability": "payable",
      "type": "function"
    },
    {
      "inputs": [
        {
          "internalType": "string",
          "name": "tokenURI",
          "type": "string"
        },
        {
          "internalType": "uint256",
          "name": "price",
          "type": "uint256"
        },
        {
          "internalType": "address",
          "name": "referer",
          "type": "address"
        }
      ],
      "name": "createToken",
      "outputs": [
        {
          "internalType": "uint256",
          "name": "",
          "type": "uint256"
        }
      ],
      "stateMutability": "payable",
      "type": "function"
    },
    {
      "inputs": [],
      "name": "fetchItemsListed",
      "outputs": [
        {
          "components": [
            {
              "internalType": "uint256",
              "name": "tokenId",
              "type": "uint256"
            },
            {
              "internalType": "address payable",
              "name": "seller",
              "type": "address"
            },
            {
              "internalType": "address payable",
              "name": "owner",
              "type": "address"
            },
            {
              "internalType": "uint256",
              "name": "price",
              "type": "uint256"
            },
            {
              "internalType": "bool",
              "name": "sold",
              "type": "bool"
            }
          ],
          "internalType": "struct NFTMarketplace.MarketItem[]",
          "name": "",
          "type": "tuple[]"
        }
      ],
      "stateMutability": "view",
      "type": "function"
    },
    {
      "inputs": [],
      "name": "fetchMarketItems",
      "outputs": [
        {
          "components": [
            {
              "internalType": "uint256",
              "name": "tokenId",
              "type": "uint256"
            },
            {
              "internalType": "address payable",
              "name": "seller",
              "type": "address"
            },
            {
              "internalType": "address payable",
              "name": "owner",
              "type": "address"
            },
            {
              "internalType": "uint256",
              "name": "price",
              "type": "uint256"
            },
            {
              "internalType": "bool",
              "name": "sold",
              "type": "bool"
            }
          ],
          "internalType": "struct NFTMarketplace.MarketItem[]",
          "name": "",
          "type": "tuple[]"
        }
      ],
      "stateMutability": "view",
      "type": "function"
    },
    {
      "inputs": [],
      "name": "fetchMyNFTs",
      "outputs": [
        {
          "components": [
            {
              "internalType": "uint256",
              "name": "tokenId",
              "type": "uint256"
            },
            {
              "internalType": "address payable",
              "name": "seller",
              "type": "address"
            },
            {
              "internalType": "address payable",
              "name": "owner",
              "type": "address"
            },
            {
              "internalType": "uint256",
              "name": "price",
              "type": "uint256"
            },
            {
              "internalType": "bool",
              "name": "sold",
              "type": "bool"
            }
          ],
          "internalType": "struct NFTMarketplace.MarketItem[]",
          "name": "",
          "type": "tuple[]"
        }
      ],
      "stateMutability": "view",
      "type": "function"
    },
    {
      "inputs": [],
      "name": "fetchRewards",
      "outputs": [
        {
          "components": [
            {
              "internalType": "address",
              "name": "from",
              "type": "address"
            },
            {
              "internalType": "uint256",
              "name": "amount",
              "type": "uint256"
            },
            {
              "internalType": "string",
              "name": "rewardType",
              "type": "string"
            }
          ],
          "internalType": "struct NFTMarketplace.Reward[]",
          "name": "",
          "type": "tuple[]"
        }
      ],
      "stateMutability": "view",
      "type": "function"
    },
    {
      "inputs": [],
      "name": "getAllUser",
      "outputs": [
        {
          "components": [
            {
              "internalType": "uint256",
              "name": "userId",
              "type": "uint256"
            },
            {
              "internalType": "address",
              "name": "userAddress",
              "type": "address"
            },
            {
              "internalType": "string",
              "name": "avatar",
              "type": "string"
            },
            {
              "internalType": "uint256",
              "name": "nftCount",
              "type": "uint256"
            },
            {
              "internalType": "address",
              "name": "referedBy",
              "type": "address"
            }
          ],
          "internalType": "struct NFTMarketplace.User[]",
          "name": "",
          "type": "tuple[]"
        }
      ],
      "stateMutability": "view",
      "type": "function"
    },
    {
      "inputs": [
        {
          "internalType": "uint256",
          "name": "tokenId",
          "type": "uint256"
        }
      ],
      "name": "getApproved",
      "outputs": [
        {
          "internalType": "address",
          "name": "",
          "type": "address"
        }
      ],
      "stateMutability": "view",
      "type": "function"
    },
    {
      "inputs": [],
      "name": "getListingPrice",
      "outputs": [
        {
          "internalType": "uint256",
          "name": "",
          "type": "uint256"
        }
      ],
      "stateMutability": "view",
      "type": "function"
    },
    {
      "inputs": [],
      "name": "getMintingReward",
      "outputs": [
        {
          "internalType": "uint256",
          "name": "reward",
          "type": "uint256"
        }
      ],
      "stateMutability": "view",
      "type": "function"
    },
    {
      "inputs": [
        {
          "internalType": "address",
          "name": "user",
          "type": "address"
        }
      ],
      "name": "getUser",
      "outputs": [
        {
          "components": [
            {
              "internalType": "uint256",
              "name": "userId",
              "type": "uint256"
            },
            {
              "internalType": "address",
              "name": "userAddress",
              "type": "address"
            },
            {
              "internalType": "string",
              "name": "avatar",
              "type": "string"
            },
            {
              "internalType": "uint256",
              "name": "nftCount",
              "type": "uint256"
            },
            {
              "internalType": "address",
              "name": "referedBy",
              "type": "address"
            }
          ],
          "internalType": "struct NFTMarketplace.User",
          "name": "",
          "type": "tuple"
        },
        {
          "components": [
            {
              "internalType": "address",
              "name": "from",
              "type": "address"
            },
            {
              "internalType": "uint256",
              "name": "amount",
              "type": "uint256"
            },
            {
              "internalType": "string",
              "name": "rewardType",
              "type": "string"
            }
          ],
          "internalType": "struct NFTMarketplace.Reward[]",
          "name": "",
          "type": "tuple[]"
        }
      ],
      "stateMutability": "view",
      "type": "function"
    },
    {
      "inputs": [
        {
          "internalType": "address",
          "name": "bnung_token",
          "type": "address"
        }
      ],
      "name": "initialize",
      "outputs": [],
      "stateMutability": "nonpayable",
      "type": "function"
    },
    {
      "inputs": [
        {
          "internalType": "address",
          "name": "owner",
          "type": "address"
        },
        {
          "internalType": "address",
          "name": "operator",
          "type": "address"
        }
      ],
      "name": "isApprovedForAll",
      "outputs": [
        {
          "internalType": "bool",
          "name": "",
          "type": "bool"
        }
      ],
      "stateMutability": "view",
      "type": "function"
    },
    {
      "inputs": [],
      "name": "name",
      "outputs": [
        {
          "internalType": "string",
          "name": "",
          "type": "string"
        }
      ],
      "stateMutability": "view",
      "type": "function"
    },
    {
      "inputs": [],
      "name": "owner",
      "outputs": [
        {
          "internalType": "address",
          "name": "",
          "type": "address"
        }
      ],
      "stateMutability": "view",
      "type": "function"
    },
    {
      "inputs": [
        {
          "internalType": "uint256",
          "name": "tokenId",
          "type": "uint256"
        }
      ],
      "name": "ownerOf",
      "outputs": [
        {
          "internalType": "address",
          "name": "",
          "type": "address"
        }
      ],
      "stateMutability": "view",
      "type": "function"
    },
    {
      "inputs": [],
      "name": "pauseMintingReward",
      "outputs": [],
      "stateMutability": "nonpayable",
      "type": "function"
    },
    {
      "inputs": [],
      "name": "renounceOwnership",
      "outputs": [],
      "stateMutability": "nonpayable",
      "type": "function"
    },
    {
      "inputs": [
        {
          "internalType": "uint256",
          "name": "tokenId",
          "type": "uint256"
        },
        {
          "internalType": "uint256",
          "name": "price",
          "type": "uint256"
        }
      ],
      "name": "resellToken",
      "outputs": [],
      "stateMutability": "payable",
      "type": "function"
    },
    {
      "inputs": [],
      "name": "resumeMintingReward",
      "outputs": [],
      "stateMutability": "nonpayable",
      "type": "function"
    },
    {
      "inputs": [
        {
          "internalType": "address",
          "name": "from",
          "type": "address"
        },
        {
          "internalType": "address",
          "name": "to",
          "type": "address"
        },
        {
          "internalType": "uint256",
          "name": "tokenId",
          "type": "uint256"
        }
      ],
      "name": "safeTransferFrom",
      "outputs": [],
      "stateMutability": "nonpayable",
      "type": "function"
    },
    {
      "inputs": [
        {
          "internalType": "address",
          "name": "from",
          "type": "address"
        },
        {
          "internalType": "address",
          "name": "to",
          "type": "address"
        },
        {
          "internalType": "uint256",
          "name": "tokenId",
          "type": "uint256"
        },
        {
          "internalType": "bytes",
          "name": "data",
          "type": "bytes"
        }
      ],
      "name": "safeTransferFrom",
      "outputs": [],
      "stateMutability": "nonpayable",
      "type": "function"
    },
    {
      "inputs": [
        {
          "internalType": "address",
          "name": "operator",
          "type": "address"
        },
        {
          "internalType": "bool",
          "name": "approved",
          "type": "bool"
        }
      ],
      "name": "setApprovalForAll",
      "outputs": [],
      "stateMutability": "nonpayable",
      "type": "function"
    },
    {
      "inputs": [
        {
          "internalType": "uint256",
          "name": "newMintingReward",
          "type": "uint256"
        }
      ],
      "name": "setMintingReward",
      "outputs": [],
      "stateMutability": "nonpayable",
      "type": "function"
    },
    {
      "inputs": [
        {
          "internalType": "bytes4",
          "name": "interfaceId",
          "type": "bytes4"
        }
      ],
      "name": "supportsInterface",
      "outputs": [
        {
          "internalType": "bool",
          "name": "",
          "type": "bool"
        }
      ],
      "stateMutability": "view",
      "type": "function"
    },
    {
      "inputs": [],
      "name": "symbol",
      "outputs": [
        {
          "internalType": "string",
          "name": "",
          "type": "string"
        }
      ],
      "stateMutability": "view",
      "type": "function"
    },
    {
      "inputs": [
        {
          "internalType": "uint256",
          "name": "tokenId",
          "type": "uint256"
        }
      ],
      "name": "tokenURI",
      "outputs": [
        {
          "internalType": "string",
          "name": "",
          "type": "string"
        }
      ],
      "stateMutability": "view",
      "type": "function"
    },
    {
      "inputs": [
        {
          "internalType": "address",
          "name": "from",
          "type": "address"
        },
        {
          "internalType": "address",
          "name": "to",
          "type": "address"
        },
        {
          "internalType": "uint256",
          "name": "tokenId",
          "type": "uint256"
        }
      ],
      "name": "transferFrom",
      "outputs": [],
      "stateMutability": "nonpayable",
      "type": "function"
    },
    {
      "inputs": [
        {
          "internalType": "address",
          "name": "newOwner",
          "type": "address"
        }
      ],
      "name": "transferOwnership",
      "outputs": [],
      "stateMutability": "nonpayable",
      "type": "function"
    },
    {
      "inputs": [
        {
          "internalType": "string",
          "name": "avatarUrl",
          "type": "string"
        }
      ],
      "name": "updateAvatar",
      "outputs": [],
      "stateMutability": "nonpayable",
      "type": "function"
    },
    {
      "inputs": [
        {
          "internalType": "address",
          "name": "bnug_token",
          "type": "address"
        }
      ],
      "name": "updateBNUGTokenAddress",
      "outputs": [],
      "stateMutability": "nonpayable",
      "type": "function"
    },
    {
      "inputs": [],
      "name": "updateInfiniteReward",
      "outputs": [],
      "stateMutability": "nonpayable",
      "type": "function"
    },
    {
      "inputs": [
        {
          "internalType": "uint256",
          "name": "_listingPrice",
          "type": "uint256"
        }
      ],
      "name": "updateListingPrice",
      "outputs": [],
      "stateMutability": "payable",
      "type": "function"
    },
    {
      "inputs": [
        {
          "internalType": "uint256",
          "name": "newReward",
          "type": "uint256"
        }
      ],
      "name": "updateReferReward",
      "outputs": [],
      "stateMutability": "nonpayable",
      "type": "function"
    }
  ],
  "bytecode": "0x608060405234801561001057600080fd5b506135db806100206000396000f3fe60806040526004361061021a5760003560e01c80636f77926b11610123578063a22cb465116100ab578063c87b56dd1161006f578063c87b56dd146105e0578063e219fc7514610600578063e985e9c514610613578063ed21aa891461065c578063f2fde38b1461067e57600080fd5b8063a22cb4651461055a578063ae677aa31461057a578063b88d4fde1461058d578063be9af536146105ad578063c4d66de8146105c057600080fd5b80638da5cb5b116100f25780638da5cb5b146104d2578063935b5b82146104f057806395d89b41146105105780639fe958b914610525578063a105fc6f1461054557600080fd5b80636f77926b1461044f57806370a082311461047d578063715018a61461049d57806382da338a146104b257600080fd5b80631542bb95116101a6578063353298d811610175578063353298d8146103b857806342842e0e146103d857806345f8fa80146103f857806347531df81461040d5780636352211e1461042f57600080fd5b80631542bb951461035b578063202e37401461036e57806323b872dd146103835780632f5a0d81146103a357600080fd5b8063090564e9116101ed578063090564e9146102d0578063095ea7b3146102e55780630f08efe0146103055780630f1c1c641461032757806312e855851461034657600080fd5b806301ffc9a71461021f57806306fdde031461025457806307ef9c9b14610276578063081812fc14610298575b600080fd5b34801561022b57600080fd5b5061023f61023a366004612fbb565b61069e565b60405190151581526020015b60405180910390f35b34801561026057600080fd5b506102696106f0565b60405161024b9190613304565b34801561028257600080fd5b5061029661029136600461307b565b610782565b005b3480156102a457600080fd5b506102b86102b336600461307b565b610790565b6040516001600160a01b03909116815260200161024b565b3480156102dc57600080fd5b506102966107b7565b3480156102f157600080fd5b50610296610300366004612f92565b6107d4565b34801561031157600080fd5b5061031a6108ef565b60405161024b9190613221565b34801561033357600080fd5b5060ff545b60405190815260200161024b565b34801561035257600080fd5b5060fe54610338565b610338610369366004613026565b610aa5565b34801561037a57600080fd5b5061031a610b97565b34801561038f57600080fd5b5061029661039e366004612ea4565b610d8c565b3480156103af57600080fd5b50610296610dbd565b3480156103c457600080fd5b506102966103d3366004612e58565b610dd2565b3480156103e457600080fd5b506102966103f3366004612ea4565b611182565b34801561040457600080fd5b5061031a61119d565b34801561041957600080fd5b50610422611392565b60405161024b91906132a3565b34801561043b57600080fd5b506102b861044a36600461307b565b611548565b34801561045b57600080fd5b5061046f61046a366004612e58565b6115a8565b60405161024b92919061348a565b34801561048957600080fd5b50610338610498366004612e58565b6117be565b3480156104a957600080fd5b50610296611844565b3480156104be57600080fd5b506102966104cd36600461307b565b611858565b3480156104de57600080fd5b5060c9546001600160a01b03166102b8565b3480156104fc57600080fd5b5061029661050b366004612e58565b6118c6565b34801561051c57600080fd5b50610269611946565b34801561053157600080fd5b50610296610540366004612ff3565b611955565b34801561055157600080fd5b50610296611980565b34801561056657600080fd5b50610296610575366004612f58565b611998565b61029661058836600461307b565b6119a3565b34801561059957600080fd5b506102966105a8366004612edf565b6119b0565b6102966105bb36600461307b565b6119e8565b3480156105cc57600080fd5b506102966105db366004612e58565b611b16565b3480156105ec57600080fd5b506102696105fb36600461307b565b611cc1565b61029661060e366004613093565b611dca565b34801561061f57600080fd5b5061023f61062e366004612e72565b6001600160a01b039182166000908152606a6020908152604080832093909416825291909152205460ff1690565b34801561066857600080fd5b50610671611ec4565b60405161024b9190613290565b34801561068a57600080fd5b50610296610699366004612e58565b611fe1565b60006001600160e01b031982166380ac58cd60e01b14806106cf57506001600160e01b03198216635b5e139f60e01b145b806106ea57506301ffc9a760e01b6001600160e01b03198316145b92915050565b6060606580546106ff90613513565b80601f016020809104026020016040519081016040528092919081815260200182805461072b90613513565b80156107785780601f1061074d57610100808354040283529160200191610778565b820191906000526020600020905b81548152906001019060200180831161075b57829003601f168201915b5050505050905090565b61078a612057565b61010355565b600061079b826120b1565b506000908152606960205260409020546001600160a01b031690565b6107bf612057565b610102805460ff19811660ff90911615179055565b60006107df82611548565b9050806001600160a01b0316836001600160a01b031614156108525760405162461bcd60e51b815260206004820152602160248201527f4552433732313a20617070726f76616c20746f2063757272656e74206f776e656044820152603960f91b60648201526084015b60405180910390fd5b336001600160a01b038216148061086e575061086e813361062e565b6108e05760405162461bcd60e51b815260206004820152603d60248201527f4552433732313a20617070726f76652063616c6c6572206973206e6f7420746f60448201527f6b656e206f776e6572206f7220617070726f76656420666f7220616c6c0000006064820152608401610849565b6108ea8383612110565b505050565b606060006108fc60fb5490565b9050600061090960fc5490565b60fb5461091691906134d0565b90506000808267ffffffffffffffff81111561094257634e487b7160e01b600052604160045260246000fd5b60405190808252806020026020018201604052801561099b57816020015b6040805160a0810182526000808252602080830182905292820181905260608201819052608082015282526000199092019101816109605790505b50905060005b84811015610a9c573061010460006109ba8460016134b8565b81526020810191909152604001600020600201546001600160a01b03161415610a8a5760006109ea8260016134b8565b60008181526101046020908152604091829020825160a0810184528154815260018201546001600160a01b039081169382019390935260028201549092169282019290925260038201546060820152600482015460ff161515608082015285519293509091859087908110610a6f57634e487b7160e01b600052603260045260246000fd5b6020908102919091010152610a856001866134b8565b945050505b80610a9481613548565b9150506109a1565b50949350505050565b6000610ab560fb80546001019055565b6000610ac060fb5490565b9050610acc338261217e565b610ad68186612309565b610ae081856123a3565b6101005460ff16610b865760fd5460ff54604051636606fbc360e11b815233600482015260248101919091526001600160a01b039091169063cc0df78690604401600060405180830381600087803b158015610b3b57600080fd5b505af1158015610b4f573d6000803e3d6000fd5b50505050610b863360ff546040518060400160405280600e81526020016d1b5a5b9d1a5b99d7dc995dd85c9960921b815250612537565b610b8f83610dd2565b949350505050565b60606000610ba460fb5490565b905060008060005b83811015610c0857336101046000610bc58460016134b8565b81526020810191909152604001600020600201546001600160a01b03161415610bf657610bf36001846134b8565b92505b80610c0081613548565b915050610bac565b5060008267ffffffffffffffff811115610c3257634e487b7160e01b600052604160045260246000fd5b604051908082528060200260200182016040528015610c8b57816020015b6040805160a081018252600080825260208083018290529282018190526060820181905260808201528252600019909201910181610c505790505b50905060005b84811015610a9c57336101046000610caa8460016134b8565b81526020810191909152604001600020600201546001600160a01b03161415610d7a576000610cda8260016134b8565b60008181526101046020908152604091829020825160a0810184528154815260018201546001600160a01b039081169382019390935260028201549092169282019290925260038201546060820152600482015460ff161515608082015285519293509091859087908110610d5f57634e487b7160e01b600052603260045260246000fd5b6020908102919091010152610d756001866134b8565b945050505b80610d8481613548565b915050610c91565b610d9633826125be565b610db25760405162461bcd60e51b815260040161084990613317565b6108ea83838361263c565b610dc5612057565b610100805460ff19169055565b336000908152610105602052604090205461101a576040518060a0016040528061010160008154610e0290613548565b918290555081523360208083018290526040805180830182526000808252828601919091526001606086018190526001600160a01b038881166080909701969096529381526101058352819020855181558583015193810180546001600160a01b03191694909516939093179093559183015180519192610e8b92600285019290910190612ccd565b506060828101516003830155608092830151600490920180546001600160a01b039384166001600160a01b0319918216179091556040805160a0810182526101015480825233602080840191825284518082018652600080825285870191825260019886018990528b8a169a86019a909a529289526101068152939097208251815596519487018054959096169490931693909317909355518051919392610f3b92600285019290910190612ccd565b5060608201516003820155608090910151600490910180546001600160a01b0319166001600160a01b039283161790558116156110175760fd5461010354604051636606fbc360e11b81526001600160a01b038481166004830152602482019290925291169063cc0df78690604401600060405180830381600087803b158015610fc457600080fd5b505af1158015610fd8573d6000803e3d6000fd5b505050506110178161010354604051806040016040528060158152602001741c9959995c995c97db5a5b9d195c97dc995dd85c99605a1b815250612537565b50565b3360009081526101056020526040812060030180549161103983613548565b909155505033600090815261010560209081526040808320548352610106909152812060030180549161106b83613548565b90915550506101025460ff16801561109e575033600090815261010560205260409020600401546001600160a01b031615155b156110175760fd54336000908152610105602052604090819020600490810154610103549251636606fbc360e11b81526001600160a01b0391821692810192909252602482019290925291169063cc0df78690604401600060405180830381600087803b15801561110e57600080fd5b505af1158015611122573d6000803e3d6000fd5b505033600090815261010560209081526040918290206004015461010354835180850190945260158452741c9959995c995c97db5a5b9d195c97dc995dd85c99605a1b9284019290925261101794506001600160a01b0316925090612537565b6108ea838383604051806020016040528060008152506119b0565b606060006111aa60fb5490565b905060008060005b8381101561120e573361010460006111cb8460016134b8565b81526020810191909152604001600020600101546001600160a01b031614156111fc576111f96001846134b8565b92505b8061120681613548565b9150506111b2565b5060008267ffffffffffffffff81111561123857634e487b7160e01b600052604160045260246000fd5b60405190808252806020026020018201604052801561129157816020015b6040805160a0810182526000808252602080830182905292820181905260608201819052608082015282526000199092019101816112565790505b50905060005b84811015610a9c573361010460006112b08460016134b8565b81526020810191909152604001600020600101546001600160a01b031614156113805760006112e08260016134b8565b60008181526101046020908152604091829020825160a0810184528154815260018201546001600160a01b039081169382019390935260028201549092169282019290925260038201546060820152600482015460ff16151560808201528551929350909185908790811061136557634e487b7160e01b600052603260045260246000fd5b602090810291909101015261137b6001866134b8565b945050505b8061138a81613548565b915050611297565b606060006101015467ffffffffffffffff8111156113c057634e487b7160e01b600052604160045260246000fd5b6040519080825280602002602001820160405280156113f957816020015b6113e6612d51565b8152602001906001900390816113de5790505b50905060005b6101015481101561154257610106600061141a8360016134b8565b81526020808201929092526040908101600020815160a0810183528154815260018201546001600160a01b031693810193909352600281018054919284019161146290613513565b80601f016020809104026020016040519081016040528092919081815260200182805461148e90613513565b80156114db5780601f106114b0576101008083540402835291602001916114db565b820191906000526020600020905b8154815290600101906020018083116114be57829003601f168201915b5050509183525050600382015460208201526004909101546001600160a01b0316604090910152825183908390811061152457634e487b7160e01b600052603260045260246000fd5b6020026020010181905250808061153a90613548565b9150506113ff565b50919050565b6000818152606760205260408120546001600160a01b0316806106ea5760405162461bcd60e51b8152602060048201526018602482015277115490cdcc8c4e881a5b9d985b1a59081d1bdad95b88125160421b6044820152606401610849565b6115b0612d51565b6001600160a01b03808316600090815261010560209081526040808320610107835292819020815160a081018352845481526001850154909516928501929092526002830180546060959285929084019161160a90613513565b80601f016020809104026020016040519081016040528092919081815260200182805461163690613513565b80156116835780601f1061165857610100808354040283529160200191611683565b820191906000526020600020905b81548152906001019060200180831161166657829003601f168201915b505050918352505060038201546020808301919091526004909201546001600160a01b0316604091820152835481518184028101840190925280825292945091839160009084015b828210156117af576000848152602090819020604080516060810182526003860290920180546001600160a01b031683526001810154938301939093526002830180549293929184019161171e90613513565b80601f016020809104026020016040519081016040528092919081815260200182805461174a90613513565b80156117975780601f1061176c57610100808354040283529160200191611797565b820191906000526020600020905b81548152906001019060200180831161177a57829003601f168201915b505050505081525050815260200190600101906116cb565b50505050905091509150915091565b60006001600160a01b0382166118285760405162461bcd60e51b815260206004820152602960248201527f4552433732313a2061646472657373207a65726f206973206e6f7420612076616044820152683634b21037bbb732b960b91b6064820152608401610849565b506001600160a01b031660009081526068602052604090205490565b61184c612057565b61185660006127a0565b565b611860612057565b600081116118c15760405162461bcd60e51b815260206004820152602860248201527f4d696e74696e6720726577617264206d7573742062652067726561746572207460448201526768616e207a65726f60c01b6064820152608401610849565b60ff55565b6118ce612057565b6001600160a01b0381166119245760405162461bcd60e51b815260206004820152601860248201527f5a65726f2061646472657373206e6f7420616c6c6f77656400000000000000006044820152606401610849565b60fd80546001600160a01b0319166001600160a01b0392909216919091179055565b6060606680546106ff90613513565b33600090815261010560209081526040909120825161197c92600290920191840190612ccd565b5050565b611988612057565b610100805460ff19166001179055565b61197c3383836127f2565b6119ab612057565b60fe55565b6119ba33836125be565b6119d65760405162461bcd60e51b815260040161084990613317565b6119e2848484846128c1565b50505050565b60008181526101046020526040902060030154348114611a72576040805162461bcd60e51b81526020600482015260248101919091527f506c65617365207375626d6974207468652061736b696e67207072696365206960448201527f6e206f7264657220746f20636f6d706c657465207468652070757263686173656064820152608401610849565b6000828152610104602052604090206002810180546001600160a01b0319908116331790915560048201805460ff1916600190811790915590910180549091169055611ac260fc80546001019055565b611acd30338461263c565b600082815261010460205260408082206001015490516001600160a01b03909116913480156108fc02929091818181858888f193505050501580156108ea573d6000803e3d6000fd5b600054610100900460ff1615808015611b365750600054600160ff909116105b80611b505750303b158015611b50575060005460ff166001145b611bb35760405162461bcd60e51b815260206004820152602e60248201527f496e697469616c697a61626c653a20636f6e747261637420697320616c72656160448201526d191e481a5b9a5d1a585b1a5e995960921b6064820152608401610849565b6000805460ff191660011790558015611bd6576000805461ff0019166101001790555b60fd80546001600160a01b0319166001600160a01b0384161790556658d15e1762800060fe55678ac7230489e8000060ff55610100805460ff1990811690915561010280549091169055674563918244f400006101035560408051808201825260098152684e656772697475646560b81b602080830191909152825180840190935260038352624e454760e81b90830152611c70916128f4565b611c78612942565b801561197c576000805461ff0019169055604051600181527f7f26b83ff96e1f2b6a682f133852f6798a09c465da95921460cefb38474024989060200160405180910390a15050565b6060611ccc826120b1565b60008281526097602052604081208054611ce590613513565b80601f0160208091040260200160405190810160405280929190818152602001828054611d1190613513565b8015611d5e5780601f10611d3357610100808354040283529160200191611d5e565b820191906000526020600020905b815481529060010190602001808311611d4157829003601f168201915b505050505090506000611d7c60408051602081019091526000815290565b9050805160001415611d8f575092915050565b815115611dc1578082604051602001611da99291906131b5565b60405160208183030381529060405292505050919050565b610b8f84612972565b600082815261010460205260409020600201546001600160a01b03163314611e475760405162461bcd60e51b815260206004820152602a60248201527f4f6e6c79206974656d206f776e65722063616e20706572666f726d20746869736044820152691037b832b930ba34b7b760b11b6064820152608401610849565b60fe543414611e685760405162461bcd60e51b8152600401610849906133fb565b60008281526101046020526040902060048101805460ff19169055600381018290556001810180546001600160a01b031990811633179091556002909101805490911630179055611eb960fc6129e6565b61197c33308461263c565b33600090815261010760209081526040808320805482518185028101850190935280835260609492939192909184015b82821015611fd8576000848152602090819020604080516060810182526003860290920180546001600160a01b0316835260018101549383019390935260028301805492939291840191611f4790613513565b80601f0160208091040260200160405190810160405280929190818152602001828054611f7390613513565b8015611fc05780601f10611f9557610100808354040283529160200191611fc0565b820191906000526020600020905b815481529060010190602001808311611fa357829003601f168201915b50505050508152505081526020019060010190611ef4565b50505050905090565b611fe9612057565b6001600160a01b03811661204e5760405162461bcd60e51b815260206004820152602660248201527f4f776e61626c653a206e6577206f776e657220697320746865207a65726f206160448201526564647265737360d01b6064820152608401610849565b611017816127a0565b60c9546001600160a01b031633146118565760405162461bcd60e51b815260206004820181905260248201527f4f776e61626c653a2063616c6c6572206973206e6f7420746865206f776e65726044820152606401610849565b6000818152606760205260409020546001600160a01b03166110175760405162461bcd60e51b8152602060048201526018602482015277115490cdcc8c4e881a5b9d985b1a59081d1bdad95b88125160421b6044820152606401610849565b600081815260696020526040902080546001600160a01b0319166001600160a01b038416908117909155819061214582611548565b6001600160a01b03167f8c5be1e5ebec7d5bd14f71427d1e84f3dd0314c0f7b2291e5b200ac8c7c3b92560405160405180910390a45050565b6001600160a01b0382166121d45760405162461bcd60e51b815260206004820181905260248201527f4552433732313a206d696e7420746f20746865207a65726f20616464726573736044820152606401610849565b6000818152606760205260409020546001600160a01b0316156122395760405162461bcd60e51b815260206004820152601c60248201527f4552433732313a20746f6b656e20616c7265616479206d696e746564000000006044820152606401610849565b6000818152606760205260409020546001600160a01b03161561229e5760405162461bcd60e51b815260206004820152601c60248201527f4552433732313a20746f6b656e20616c7265616479206d696e746564000000006044820152606401610849565b6001600160a01b038216600081815260686020908152604080832080546001019055848352606790915280822080546001600160a01b0319168417905551839291907fddf252ad1be2c89b69c2b068fc378daa952ba7f163c4a11628f55a4df523b3ef908290a45050565b6000828152606760205260409020546001600160a01b03166123845760405162461bcd60e51b815260206004820152602e60248201527f45524337323155524953746f726167653a2055524920736574206f66206e6f6e60448201526d32bc34b9ba32b73a103a37b5b2b760911b6064820152608401610849565b600082815260976020908152604090912082516108ea92840190612ccd565b600081116123f35760405162461bcd60e51b815260206004820152601c60248201527f5072696365206d757374206265206174206c65617374203120776569000000006044820152606401610849565b60fe5434146124145760405162461bcd60e51b8152600401610849906133fb565b6040805160a08101825283815233602080830182815230848601818152606086018881526000608088018181528b8252610104909652979097209551865591516001860180546001600160a01b03199081166001600160a01b0393841617909155925160028701805490941691161790915593516003840155516004909201805460ff1916921515929092179091556124ad918461263c565b60c95460fe546040516001600160a01b039092169181156108fc0291906000818181858888f193505050501580156124e9573d6000803e3d6000fd5b50604080513381523060208201529081018290526000606082015282907fb640004f1d14576d0c209e240cad0410e0d8c0c33a09375861fbadae2588a98d9060800160405180910390a25050565b6001600160a01b03838116600090815261010760209081526040808320815160608101835233815280840188815292810187815282546001808201855593875295859020825160039097020180546001600160a01b03191696909716959095178655915190850155915180519293926125b69260028501920190612ccd565b505050505050565b6000806125ca83611548565b9050806001600160a01b0316846001600160a01b0316148061261157506001600160a01b038082166000908152606a602090815260408083209388168352929052205460ff165b80610b8f5750836001600160a01b031661262a84610790565b6001600160a01b031614949350505050565b826001600160a01b031661264f82611548565b6001600160a01b0316146126755760405162461bcd60e51b8152600401610849906133b6565b6001600160a01b0382166126d75760405162461bcd60e51b8152602060048201526024808201527f4552433732313a207472616e7366657220746f20746865207a65726f206164646044820152637265737360e01b6064820152608401610849565b826001600160a01b03166126ea82611548565b6001600160a01b0316146127105760405162461bcd60e51b8152600401610849906133b6565b600081815260696020908152604080832080546001600160a01b03199081169091556001600160a01b0387811680865260688552838620805460001901905590871680865283862080546001019055868652606790945282852080549092168417909155905184937fddf252ad1be2c89b69c2b068fc378daa952ba7f163c4a11628f55a4df523b3ef91a4505050565b60c980546001600160a01b038381166001600160a01b0319831681179093556040519116919082907f8be0079c531659141344cd1fd0a4f28419497f9722a3daafe3b4186f6b6457e090600090a35050565b816001600160a01b0316836001600160a01b031614156128545760405162461bcd60e51b815260206004820152601960248201527f4552433732313a20617070726f766520746f2063616c6c6572000000000000006044820152606401610849565b6001600160a01b038381166000818152606a6020908152604080832094871680845294825291829020805460ff191686151590811790915591519182527f17307eab39ab6107e8899845ad3d59bd9653f200f220920489ca2b5937696c31910160405180910390a3505050565b6128cc84848461263c565b6128d884848484612a3d565b6119e25760405162461bcd60e51b815260040161084990613364565b600054610100900460ff1661291b5760405162461bcd60e51b81526004016108499061343f565b815161292e906065906020850190612ccd565b5080516108ea906066906020840190612ccd565b600054610100900460ff166129695760405162461bcd60e51b81526004016108499061343f565b611856336127a0565b606061297d826120b1565b600061299460408051602081019091526000815290565b905060008151116129b457604051806020016040528060008152506129df565b806129be84612b4a565b6040516020016129cf9291906131b5565b6040516020818303038152906040525b9392505050565b805480612a355760405162461bcd60e51b815260206004820152601b60248201527f436f756e7465723a2064656372656d656e74206f766572666c6f7700000000006044820152606401610849565b600019019055565b60006001600160a01b0384163b15612b3f57604051630a85bd0160e11b81526001600160a01b0385169063150b7a0290612a819033908990889088906004016131e4565b602060405180830381600087803b158015612a9b57600080fd5b505af1925050508015612acb575060408051601f3d908101601f19168201909252612ac891810190612fd7565b60015b612b25573d808015612af9576040519150601f19603f3d011682016040523d82523d6000602084013e612afe565b606091505b508051612b1d5760405162461bcd60e51b815260040161084990613364565b805181602001fd5b6001600160e01b031916630a85bd0160e11b149050610b8f565b506001949350505050565b60606000612b5783612bf5565b600101905060008167ffffffffffffffff811115612b8557634e487b7160e01b600052604160045260246000fd5b6040519080825280601f01601f191660200182016040528015612baf576020820181803683370190505b5090508181016020015b600019016f181899199a1a9b1b9c1cb0b131b232b360811b600a86061a8153600a8504945084612be857612bed565b612bb9565b509392505050565b60008072184f03e93ff9f4daa797ed6e38ed64bf6a1f0160401b8310612c345772184f03e93ff9f4daa797ed6e38ed64bf6a1f0160401b830492506040015b6d04ee2d6d415b85acef81000000008310612c60576d04ee2d6d415b85acef8100000000830492506020015b662386f26fc100008310612c7e57662386f26fc10000830492506010015b6305f5e1008310612c96576305f5e100830492506008015b6127108310612caa57612710830492506004015b60648310612cbc576064830492506002015b600a83106106ea5760010192915050565b828054612cd990613513565b90600052602060002090601f016020900481019282612cfb5760008555612d41565b82601f10612d1457805160ff1916838001178555612d41565b82800160010185558215612d41579182015b82811115612d41578251825591602001919060010190612d26565b50612d4d929150612d92565b5090565b6040518060a001604052806000815260200160006001600160a01b03168152602001606081526020016000815260200160006001600160a01b031681525090565b5b80821115612d4d5760008155600101612d93565b600067ffffffffffffffff80841115612dc257612dc2613579565b604051601f8501601f19908116603f01168101908282118183101715612dea57612dea613579565b81604052809350858152868686011115612e0357600080fd5b858560208301376000602087830101525050509392505050565b80356001600160a01b0381168114612e3457600080fd5b919050565b600082601f830112612e49578081fd5b6129df83833560208501612da7565b600060208284031215612e69578081fd5b6129df82612e1d565b60008060408385031215612e84578081fd5b612e8d83612e1d565b9150612e9b60208401612e1d565b90509250929050565b600080600060608486031215612eb8578081fd5b612ec184612e1d565b9250612ecf60208501612e1d565b9150604084013590509250925092565b60008060008060808587031215612ef4578081fd5b612efd85612e1d565b9350612f0b60208601612e1d565b925060408501359150606085013567ffffffffffffffff811115612f2d578182fd5b8501601f81018713612f3d578182fd5b612f4c87823560208401612da7565b91505092959194509250565b60008060408385031215612f6a578182fd5b612f7383612e1d565b915060208301358015158114612f87578182fd5b809150509250929050565b60008060408385031215612fa4578182fd5b612fad83612e1d565b946020939093013593505050565b600060208284031215612fcc578081fd5b81356129df8161358f565b600060208284031215612fe8578081fd5b81516129df8161358f565b600060208284031215613004578081fd5b813567ffffffffffffffff81111561301a578182fd5b610b8f84828501612e39565b60008060006060848603121561303a578283fd5b833567ffffffffffffffff811115613050578384fd5b61305c86828701612e39565b9350506020840135915061307260408501612e1d565b90509250925092565b60006020828403121561308c578081fd5b5035919050565b600080604083850312156130a5578182fd5b50508035926020909101359150565b600081518084526020808501808196508360051b81019150828601855b85811015613124578284038952815180516001600160a01b03168552858101518686015260409081015160609186018290529061311081870183613131565b9a87019a95505050908401906001016130d1565b5091979650505050505050565b600081518084526131498160208601602086016134e7565b601f01601f19169290920160200192915050565b805182526000602082015160018060a01b0380821660208601526040840151915060a0604086015261319260a0860183613131565b915060608401516060860152806080850151166080860152508091505092915050565b600083516131c78184602088016134e7565b8351908301906131db8183602088016134e7565b01949350505050565b6001600160a01b038581168252841660208201526040810183905260806060820181905260009061321790830184613131565b9695505050505050565b602080825282518282018190526000919060409081850190868401855b8281101561312457815180518552868101516001600160a01b03908116888701528682015116868601526060808201519086015260809081015115159085015260a0909301929085019060010161323e565b6020815260006129df60208301846130b4565b6000602080830181845280855180835260408601915060408160051b8701019250838701855b828110156132f757603f198886030184526132e585835161315d565b945092850192908501906001016132c9565b5092979650505050505050565b6020815260006129df6020830184613131565b6020808252602d908201527f4552433732313a2063616c6c6572206973206e6f7420746f6b656e206f776e6560408201526c1c881bdc88185c1c1c9bdd9959609a1b606082015260800190565b60208082526032908201527f4552433732313a207472616e7366657220746f206e6f6e20455243373231526560408201527131b2b4bb32b91034b6b83632b6b2b73a32b960711b606082015260800190565b60208082526025908201527f4552433732313a207472616e736665722066726f6d20696e636f72726563742060408201526437bbb732b960d91b606082015260800190565b60208082526024908201527f5072696365206d75737420626520657175616c20746f206c697374696e6720706040820152637269636560e01b606082015260800190565b6020808252602b908201527f496e697469616c697a61626c653a20636f6e7472616374206973206e6f74206960408201526a6e697469616c697a696e6760a81b606082015260800190565b60408152600061349d604083018561315d565b82810360208401526134af81856130b4565b95945050505050565b600082198211156134cb576134cb613563565b500190565b6000828210156134e2576134e2613563565b500390565b60005b838110156135025781810151838201526020016134ea565b838111156119e25750506000910152565b600181811c9082168061352757607f821691505b6020821081141561154257634e487b7160e01b600052602260045260246000fd5b600060001982141561355c5761355c613563565b5060010190565b634e487b7160e01b600052601160045260246000fd5b634e487b7160e01b600052604160045260246000fd5b6001600160e01b03198116811461101757600080fdfea2646970667358221220cafeaea45fc37d21eae30c274a1be8f640f73575f1f776b6362a4c67790ffd6d64736f6c63430008040033",
  "linkReferences": {},
  "deployedLinkReferences": {}
}